:020000040800F2
:1000000070090220E92E0008434C0008912D0008D9
:10001000912D0008912D0008912D0008912D0008C8
:10002000912D0008912D0008912D0008252A000827
:10003000912D0008912D0008DD29000861100008AD
:10004000C12E0008C12E0008C12E0008C12E0008D4
:10005000C12E0008C12E0008C12E0008C12E0008C4
:10006000C12E0008C12E0008C12E0008C12E0008B4
:10007000C12E0008C12E0008C12E0008C12E0008A4
:10008000C12E0008C12E0008C12E0008C12E000894
:10009000C12E0008C12E0008C12E0008C12E000884
:1000A000C12E0008C12E0008C12E0008C12E000874
:1000B000C12E0008C12E0008C12E0008C12E000864
:1000C000C12E0008C12E0008C12E0008C12E000854
:1000D000C12E0008C12E0008C12E0008C12E000844
:1000E000C12E0008C12E0008C12E0008C12E000834
:1000F000C12E0008C12E0008C12E0008C12E000824
:10010000C12E0008C12E0008C12E0008C12E000813
:10011000C12E0008C12E0008C12E0008C12E000803
:10012000C12E0008C12E0008C12E0008C12E0008F3
:10013000C12E0008C12E0008C12E0008C12E0008E3
:10014000C12E0008C12E0008C12E0008C12E0008D3
:10015000C12E0008C12E0008C12E0008C12E0008C3
:10016000C12E0008C12E0008C12E0008C12E0008B3
:10017000C12E0008C12E0008C12E0008C12E0008A3
:10018000C12E0008C12E0008C12E0008C12E000893
:10019000C12E0008C12E0008C12E0008C12E000883
:1001A000C12E0008C12E0008C12E0008C12E000873
:1001B000C12E0008C12E0008C12E0008C12E000863
:1001C000C12E0008C12E0008C12E0008C12E000853
:1001D000C12E0008C12E0008C12E0008C12E000843
:1001E000C12E0008C12E0008C12E0008C12E000833
:0801F000C12E0008C12E000819
:1001F80053B94AB9002908BF00281CBF4FF0FF3186
:100208004FF0FF3000F00CB8ADF1080C6DE904CEEA
:1002180000F008F8DDF804E0DDE9022304B07047D7
:10022800704700BF2DE9F04F099F154604468E46DA
:100238001E46002B40F0CC808A42B2FA82FC4CD990
:10024800BCF1000F0BD0CCF1200801FA0CFE20FA0B
:1002580008F802FA0CF548EA0E0E00FA0CF44FEA18
:1002680015491FFA85F8BEFBF9FA210C09FB1AE3B8
:100278000AFB08FB41EA03439B452AD9EB180AF11C
:10028800FF3004D29B4502D9AAF102002B44A3EB0C
:100298000B03A4B2B3FBF9F209FB123302FB08F813
:1002A80044EA0344A04516D92C1902F1FF3303D2BE
:1002B800A04501D9931E2C44A4EB080443EA00404E
:1002C80027B124FA0CF400233C607B603146BDE87A
:1002D800F08F5046DBE71346EEE702B9FFDEBCF1CC
:1002E800000F2ED18B1A01264FEA154EAAB2B3FB86
:1002F800FEF8210C0EFB183308FB02F941EA034310
:10030800994561D9EB1808F1FF3004D2994502D913
:10031800A8F102002B44A3EB0903A4B2B3FBFEF13E
:100328000EFB11334A4344EA0344A2424ED92C1926
:1003380001F1FF3303D2A24201D98B1E2C44A41A27
:10034800BCE7CCF1200E02FA0CF521FA0EF901FAFD
:100358000CF320FA0EFE4EEA03034FEA154800FAA2
:100368000CF4B9FBF8F11FFA85FE08FB1192180C82
:1003780001FB0EF640EA0242964221D9AA1801F181
:10038800FF3003D2964201D9881E2A44921B9BB2A1
:10039800B2FBF8F908FB192209FB0EFE43EA0243F7
:1003A8009E450FD9EB1809F1FF3604D29E4502D9B4
:1003B800A9F102062B44A3EB0E0346EA004693E795
:1003C8000846E3E74E46F6E74046A4E70B46B6E79D
:1003D8008B4205D90FB1C7E900010026304675E701
:1003E800B3FA83FCBCF1000F0FD18B4201D38242D8
:1003F80009D8841A61EB030E0120002F6AD0C7E9DF
:10040800004E002662E76046F7E7CCF1200E03FABB
:100418000CF322FA0EF521FA0EF41D4301FA0CF33F
:1004280020FA0EF10B434FEA154A00FA0CF6B4FB1A
:10043800FAF91FFA85F80AFB19401C0C09FB08F1A8
:1004480044EA0044A14202FA0CF23FD92C1909F1FE
:10045800FF3004D2A14202D9A9F102002C44641A47
:100468009BB2B4FBFAF90AFB194409FB08F843EA02
:10047800044188452CD9691809F1FF3304D288450D
:1004880002D9A9F10203294443EA0040A1EB08017B
:10049800A0FB02894945C2464C4602D306D14645CF
:1004A80004D2B8EB020A69EB0504013897B1B6EB40
:1004B8000A0361EB040606FA0EFE23FA0CF34EEA71
:1004C800030326FA0CF6C7E900369AE74846C6E75A
:1004D8004B46D9E73E46F9E608B503F0E8FF16486B
:1004E80003F04BFF4FF04041012000F0A3FA012038
:1004F80000F0DAFA114803F040FF4FF0FF3000F047
:10050800E5FA0F4803F039FF4FF0FF3000F0EAFA40
:100518000C4803F032FF0C4800F0CCFA0B4803F00B
:100528002CFF002001230A4A0A2100F0D3FC0948C5
:1005380003F023FFFEE700BFAA5C0008B65C0008D2
:10054800CA5C0008DB5C0008800000FFE85C00086B
:10055800FA5C00080F5D00080B6801330B60014B63
:100568001B681847B01202202DE9F04F85B09B4652
:10057800164682460E9C884601250A27012C4FF014
:100588000002DFF87C90B8BF0124012B0CBF302398
:1005980020230293B6FBF9F301930AB9B1451DD89C
:1005A800019B4146013503F13000D0470122019BF0
:1005B800013F09FB1366012F4FF00A03B9FBF3F95A
:1005C800E8D1414606F13000D047BBF1030F02D114
:1005D800641B002C0EDC05B0BDE8F08FBC42E6DBE6
:1005E800BBF1020FE3D84146029803920135D04788
:1005F800039ADCE741462020D047013CE9E700BFE9
:1006080000CA9A3B014B1860704700BFB012022025
:10061800002307B50246019303480B4601A903F0DE
:100628003CFD03B05DF804FB61050008F0B54FF030
:100638001003EFF3118083F31188BFF36F8F264BFC
:100648005A6912F4003211D1BFF34F8FBFF36F8F85
:10065800C3F85022BFF34F8FBFF36F8F5A6942F42C
:1006680000325A61BFF34F8FBFF36F8F1A4B5A692D
:10067800D20328D45A6912F4803224D1C3F88420D2
:10068800BFF34F8FD3F8802043F6E075C2F3C90457
:10069800C2F34E32520102EA0507214647EA817643
:1006A80011F1FF31C3F86062F8D2203A12F1200F3D
:1006B800F1D1BFF34F8F5A6942F480325A61BFF3C8
:1006C8004F8FBFF36F8F80F31188BFF36F8F034B8A
:1006D8000020034A1A60F0BD00ED00E0D0120220AD
:1006E8000024F4000A2838B50446074D04D12868C8
:1006F8000D2143685B6898472868E1B243685B68E6
:100708009847204638BD00BF0800022010B5044CA9
:10071800204602F015FC2046BDE81040FFF772BFE6
:10072800ED06000808B5044802F0F0FE034B186017
:10073800FFF7ECFF002008BD175D00080800022045
:100748002DE9F843956804460F464FF001080B4E13
:1007580005F10409BC4201DBBDE8F88308FA04F39B
:10076800726933EA020207D1736155F834301BB15C
:1007780059F83410204698470134EBE7003C014013
:100788001F2808B502DD6FF0220008BD074A0123C3
:100798001828116803FA00F343EA01031360F2DC36
:1007A800034B185602F09AFA0020EEE7003C01408D
:1007B8001E5D0008CA0710B507D51F2805DC084BC1
:1007C80001229C68824022439A608B0707D51F2824
:1007D80005DC034A0123D16883400B43D36010BD75
:1007E800003C0140074930B58C6854F8301004EBE0
:1007F800C00521B944F8302008466B6030BD6FF061
:100808000F00FBE7741302200B6884B0032B2DD86C
:10081800DFE803F0020E1822164A4B68116B1943E1
:100828001163126B13400093009B002004B07047C3
:10083800104A4B68516B19435163526B1340019333
:10084800019BF2E70B4A4B68116C19431164126C57
:1008580013400293029BE8E7064A4B68516C194320
:100868005164526C13400393039BDEE76FF0220040
:10087800DCE700BF003802400B68032B20D8DFE814
:1008880003F0020A1118104A4968136B23EA01039E
:100898001363002070470C4A4968536B23EA01032D
:1008A8005363F6E7084A4968136C23EA01031364A3
:1008B800EFE7054A4968536C23EA01035364E8E704
:1008C8006FF02200704700BF00380240084B0968EB
:1008D8001B68032909D8DFE801F0030302069B0817
:1008E8001360002070475B08FAE76FF0220070473A
:1008F800D012022030B5002187B04FF4A053CDE9C3
:1009080000134FF40043029300F038F803A803F0F3
:10091800C5FD184B1A68900706D41A6842F0010200
:100928001A601A689207FCD5124CA36823F00303D7
:10093800A360A36823F0F003A360A56815F00C0575
:10094800FBD1236803AA29460B4823F08073236050
:10095800636823F0706343F0106363606B4601F0D3
:100968002DFC236823F00103236003F09FFD284634
:1009780007B030BD0038024040787D01064B82B098
:100988001A6C42F080521A641B6C03F08053019376
:10099800019B02B0704700BF0038024038B51B4BBE
:1009A8001B4C1C489C6003F0E8FC1B4802F0AEFDA1
:1009B800206030B3194803F0E0FC20680F220021C2
:1009C80043681D680123A847154803F0D6FC206832
:1009D8000F2243685D6800231946A847114803F0B1
:1009E800CCFC0A2004F08EFD20680F220021436809
:1009F8005C680123A0470C4803F0BFFC0B4803F0D8
:100A0800BCFC0B48BDE8384003F0B7BC78010220B5
:100A18000C0302204A5D0008705D0008765D00083E
:100A2800885D0008985D0008A55D0008B35D0008B2
:100A3800B95D0008174A002310B504468EB0106847
:100A4800154A0A91FF2112680193ADF834308DF8E8
:100A58003630CDE90203CDE90423CDE90613072397
:100A68004FF4C061CDE90B02CDE90813224601A974
:100A78000A4803F0E5FF0C20094B4FF0FF316043B3
:100A88001A185160074991604FF07F421A500EB012
:100A980010BD00BFC8120220CC120220640202203E
:100AA800D0000220D4120220014B1860704700BF0A
:100AB800CC000220034B1A680C235343024AD0503F
:100AC800704700BFCC000220D0000220034B0C214D
:100AD800034A1B6801FB032358607047CC000220BF
:100AE800D00002201A4B2DE9F7431D683423194A18
:100AF8000646194C03FB05234FF440322046DF6DB0
:100B0800164BD3F80080164BD3F800900023C4E9A5
:100B18000123E360134B236003F039FDA0B9294694
:100B2800204600F037FC78B9CDF8009043463A46A5
:100B38003146204603F061FD30B90A21204603B052
:100B4800BDE8F04303F073BD03B0BDE8F08300BF18
:100B5800CC0002206402022084010220C812022074
:100B6800CC12022000B002400128034607B50AD87B
:100B78004B781522084800930B78002103F068FE93
:100B880003B05DF804FB01910A5C00210248009261
:100B9800392203F06EFEF3E7DC0102201FB5274B74
:100BA800032158205A6C42F080625A645A6C02F051
:100BB80080620192019A5A6A42F080625A625A6AC5
:100BC80022F080625A621A6B42F400021A631A6BAE
:100BD80002F400020292029A1A6942F400021A61AF
:100BE8001A6922F400021A615A6C42F000625A64CF
:100BF8005A6C02F000620392039A5A6A42F0006249
:100C08005A625A6A22F000625A62002200F0EEFA32
:100C1800582000F01DFB002203215A2000F0E6FABC
:100C28005A2000F015FB00220321622000F0DEFAB2
:100C3800622005B05DF804EB00F00ABB0038024002
:100C48002DE9FF47594C0746FFF7A8FE4FF001086A
:100C5800FFF7A4FF564B2046DFF87491236003F09A
:100C68008AFD4FF0640E05232046CDE901E30023F9
:100C7800039304230DEB0301C4E9023800F0DAFB07
:100C8800DFF85081002F40F08A804FF4F073C9F8E4
:100C980000304FF44873474C00250521C8F8003050
:100CA8000426D9F800304FF0010AD8F80020236153
:100CB8004FF4005C4FF4006E3C486562E564C4E99B
:100CC80000510221E16040F6FF71C4E905514D2150
:100CD800C4E90A6103F146014FF22443364E4B43FF
:100CE80046F62531B3FBF1F323630F232146C4E90C
:100CF8000DA31023C4E90F324FF40042C4E91123B5
:100D08004FF480534FF40072C4E914C34FF4806366
:100D1800C4E916E34FF48073C4E90755C4E91823FE
:100D280000F038FC23232548F361D9F80030C6F8D1
:100D380014A003F123023366C562726203F145020F
:100D4800D8F80030F2627366082303604FF4C0736A
:100D580043610723C36100F079FE194B2146B5862C
:100D68003046336086F83650356103F092FE3046DF
:100D780000F000FE0D4803F048FD01F0BBFD114BEB
:100D8800114A0C211B68284601FB03230F4A3946E8
:100D98009A6001F05BFA284604B0BDE8F0874FF48A
:100DA8004873C9F800304FF4F07374E7DC0102208F
:100DB800006C0140F801022064020220E8000220D1
:100DC80000680140CC000220D0000220D41202208A
:100DD800C8120220CC120220074B1B6803FB01013A
:100DE800064B07481B6810B5342404FB0303DB6D6E
:100DF80043F8212010BD00BFC8120220CC000220F9
:100E0800640202202DE9F04F87B0304F203A4FF0AE
:100E18000009CDE902012E480C210368059001FB69
:100E280003739968B1F804B0CB880BF10706096819
:100E38000093F610CBEBC604E3B20193009B06FBCC
:100E480003F505FB0215039B03EB090A009B994573
:100E58001FFA8AFA02D307B0BDE8F08F012E2C786A
:100E680004D0022E0FD12C8864BAA4B20BF1FF3241
:100E7800019B4FF00008D3180493C3450AD809F121
:100E880001093544DFE76A78240444EA0224AA7891
:100E98001443EBE7029B012103EB0800059B1A684A
:100EA80080B2049BA3EB080C08F1010801FA0CF1CD
:100EB80021424FF00C0114BF4A4301FB0272514614
:100EC80014BFBA585268FFF787FFD6E7D000022050
:100ED800CC0002202DE9F8430F4604461646114679
:100EE8000A4611F8010B0028FAD122490C2522489C
:100EF800012B096805FB0101204DD1F808802868FD
:100F0800B8F804C0B0FBFCF11DD0022B23D023B2EB
:100F18004FF00009002BD8BF012429681FFA89F374
:100F2800B8F8040016F8092009F1010900FB1313A9
:100F38009BB2834234BF00210121002A08BF00214F
:100F480079B9BDE8F883B21A50180CFB00F004EB2D
:100F5800500084B2DBE7B01A084410FB0CF0001B09
:100F6800F7E720463946FFF74DFFB8F8040020445C
:100F780084B2D2E7CC000220D0000220C81202209E
:100F880073B5044606090D46104612B9114802F019
:100F9800BDFA00230093104B53F826300193013318
:100FA80002D16FF0040012E0436869461B68984755
:100FB8000028F6D1201105F00F032A4604F00F018E
:100FC800800200F1804000F5003003F033FF02B0EA
:100FD80070BD00BF415D0008FC5A0008F8B5044622
:100FE80009480E46002502F091FA0746B54204F179
:100FF800080400D1F8BD3A4654F8041C14F8080C4B
:101008000135FFF7BDFFF1E7415D00080F4B30B533
:101018001A6899681D6812F480320D4B21F07F41DF
:101028001C680C4B18BF22460829186802441A602D
:1010380007D915F4803F1A6814BF204600200244DF
:101048001A6018682044401A30BD00BF10E000E064
:101058001C0302202003022008B50D4A0D4B12681C
:10106800186810440C4A11681860401A0B4BB0FB02
:10107800F3F003FB00131360094B1A68094B1A605D
:1010880000221A6002F0F8FEBDE8084001F06EBCCC
:101098001C0302201803022014030220C04B030083
:1010A80010E000E020030220084B1022002083F803
:1010B8002320074A074B1A60074B1860074B5A60F2
:1010C80098601A6842F007021A60704700ED00E065
:1010D800BF4B03001C0302202003022010E000E0A5
:1010E80070B5214C51B1431C08D1204A136823F034
:1010F800010313604FF07F43236070BD01384C2813
:101108002CDC00282CDD1A4E46434FF01003EFF379
:10111800118583F31188BFF36F8FFFF777FF154BA6
:1011280013491A6810441860134B1A68C2F55233F1
:1011380003F2BF3333440344101A0022B3FBF1F324
:1011480001FB03000D4B206001381A60074B586003
:101158009A6085F31188BFF36F8FCEE74C20D2E7F2
:1011680043F2BC46D1E700BF1C03022010E000E0B8
:10117800C04B03001803022014030220200302209E
:1011880010B54FF01003EFF3118483F31188BFF308
:101198006F8FFFF73BFF074B074A1B6812689B1AC4
:1011A800184484F31188BFF36F8F044BB0FBF3F03E
:1011B80010BD00BF1803022014030220C04B030017
:1011C80010B54FF01003EFF3118483F31188BFF3C8
:1011D8006F8FFFF71BFF044B1B68184484F31188BB
:1011E800BFF36F8F10BD00BF18030220164B70B5F8
:1011F800DC684FF0FF36C4F30224C4F10705231D51
:10120800042D28BF0425062B06FA05F58CBF033CE0
:101218000024002821EA050101FA04F106FA04F481
:1012280022EA040343EA01034FEA0313DBB206DBB5
:1012380000F1604000F5614080F8003370BD00F0B7
:101248000F00024A1354F9E700ED00E014ED00E046
:10125800002808DB4209012300F01F0003FA00F010
:10126800014B43F82200704700E100E003681821B1
:10127800DAB223F47F73103A23F00303B2FBF1F1DF
:1012880010B55F2A034C88BF0433615C8365C16570
:10129800184610BDE05D000870B5044603F07BF801
:1012A8000546002C71D00023226884F834300223CC
:1012B80084F83530136823F00103136021680B6844
:1012C800DA073BD40B68324DA0691D40D4E90123ED
:1012D8001343E26813432269134362691343E269C3
:1012E80003431343226A13432B43656A042D02BF49
:1012F800D4E90B2632431343042D0B604A6922F0CC
:10130800070242EA05020BD1A36AE56A1A433DB116
:10131800F8B9012B2ED00BB1022B01D1EB012CD443
:101328004A612046FFF7A2FFE26D3F2393408360A6
:1013380000200123606584F8353009E003F02BF8BC
:10134800401B0528BAD920230320636584F835009B
:1013580070BDB0F5005F14D1032BE1D801A050F89F
:1013680023F000BF83130008251300088313000827
:101378007D130008B5F1C07FD2D1402301206365F9
:10138800E4E7022BF9D9032BC7E70120E0E700BF08
:101398003F8010E090F85030012B4FF00203F0B579
:1013A80031D01824012280F8513004FB0104204F69
:1013B80080F85020226BD4E909561305626BE46A61
:1013C80043EA06432B43093D012D43EA425396BFA6
:1013D80004F07F4243EA046313430268A9B9566ADA
:1013E800012D06EA070643EA06035362036A93617E
:1013F80003D8C36A23F07F439362012380F85130F6
:10140800002380F850301846F0BDD669012D06EA51
:10141800070643EA0603D3614FF0180303FB0101F3
:101428000B6A1361E9D824F07F441462E5E700BF32
:10143800F0FFCC0073B50D460446002800F0A680E6
:10144800437C0BB903F095F90323637400230093DD
:101458002368D3F8302442F08072C3F83024D3F8DC
:10146800303403F080730093009B02F094FF06462B
:101478002268D2F80C34D90477D5D2F8303423F462
:101488005E3323F4FE73C2F83034D2F83014D5E951
:101498000003DB0243EA8003A86843EA00430B43E6
:1014A800C2F8303400230193D2F8303443F00103FA
:1014B800C2F83034D2F8303403F001030193019BB1
:1014C80002F069FF06462368D3F80C24D20556D5E6
:1014D800D3F8A020616842F006022868C3F8A0206B
:1014E800D3F8942022F00302C3F89420D3F8942070
:1014F8000A43E16842F00102C3F89420D3F8A4201B
:1015080022F00302C3F8A420D3F8A4200A43A16858
:10151800C3F8A4209A6822F0FF029A609A680A43E6
:10152800696800299A601A4A08BF01214A43A968D4
:1015380001F003018A4046F2A81141430020B2FBA2
:10154800F1F2D3F8181421F03F01C3F81814D3F8B6
:1015580018140A43C3F81824C3F8C400C3F8C80011
:1015680001236061A061637407E002F014FF801B2F
:10157800B0F57A7F7FF67CAF032002B070BD02F031
:101588000AFF801BB0F57A7F9DD9F5E70120F4E7C3
:1015980000093D00037C012B70B500F0F9800123A0
:1015A8004C68CD680374032C03687A4E5A6B22F09A
:1015B80001025A63D3F8002422F00102C3F8002480
:1015C8009A6B22F003029A639A6B42EA05020D694C
:1015D8009A63DA6B22F47F5222F03F02DA63DA6B05
:1015E80042EA0502DA631D6C4A6905EA06051D64CC
:1015F8001D6C45EA02051D645A6C8D6902EA0602F3
:101608005A645A6C42EA05020D685A64DA6822F094
:101618000302DA60DA6842EA0502DA605A6922F0FF
:1016280007025A615D69D1E9086242EA0602CE6999
:1016380042EA060242EA05025A611A6922F00F02DA
:101648001A611A6942EA04021A61D3F8002422F0E6
:101658000E02C3F80024D3F8002442EA4402C3F877
:10166800002407D11A698C6822F480721A611A69F9
:1016780022431A619C6C484D8A6A2C409C649C6C7D
:1016880014439C64DA6CCC6A2A404D6BDA64DA6CD9
:1016980022430C6BDA641A6D22F4FF4222F07F02B7
:1016A8001A651A6D22433D4C1A655A6D22405A65D7
:1016B8005A6D2A438D6B5A659A6D22409A659A6DC8
:1016C8002A439A65DA6D2240CC6BDA65DA6D2243DB
:1016D800DA651A6E22F47F5222F03F021A661A6EF9
:1016E8000C6C22434C6C1A669A6B22F400429A6383
:1016F8009A6B22438C6C9A639A6922F47F029A61EE
:101708009A6942EA0442CC6C9A619A6922F0FF0213
:101718009A619A6922430C6D9A619A6B22F400527D
:101728009A639A6B22434C6D9A639A6B22F48052A7
:101738009A639A6B22438C6D9A639A6B22F40062C7
:101748009A639A6B22439A639A6BCC6D22F48062F7
:101758009A639A6B22430C6E9A639A6B22F4007216
:101768009A639A6B22434C6E896E9A639A6B22F441
:1017780080729A639A6B22439A639A6B22F480422E
:101788009A639A6B0A439A6300230374184670BDE0
:101798000220FCE700E0FFFF00F0FFFF00FCFFFF76
:1017A8002DE9F04F0B6885B0DFF8C0810193002365
:1017B8006C4ADFF8BC914FF0010C019C0CFA03FC59
:1017C80004EA0C06B44540F0B3804C6824F01007D6
:1017D800022F16D14FEAD30A03F0070B4FF00F0E72
:1017E80000EB8A0A4FEA8B0BDAF820500EFA0BFE50
:1017F80025EA0E0E0D6905FA0BF545EA0E05CAF83D
:1018080020504FEA430A0325D0F800B004F0030E35
:1018180005FA0AF5013F0EFA0AFEED43012F05EA23
:101828000B0B4EEA0B0EC0F800E011D8876807EAE8
:10183800050BCF6807FA0AFE4EEA0B078760476870
:1018480027EA0C0CC4F300179F4047EA0C074760CF
:10185800C7683D408F6807FA0AF73D43C560E50051
:1018680066D5D8F8445023F0030703F0030C4FF073
:101878000F0E45F4804507F180474FEA8C0CC8F8F5
:10188800445007F59C37D8F8445005F48045039533
:10189800039D0EFA0CF5D7F808A02AEA050E324D7A
:1018A800A8424CD005F58065A8424AD005F5806568
:1018B800A84248D005F58065A84246D005F5806560
:1018C800A84244D0484544D005F50065A84242D016
:1018D80005F58065A84240D005F58065A8423ED050
:1018E80005F58065A8420CBF09250A2505FA0CF5FF
:1018F80014F4803F45EA0E05BD606FEA06071568D7
:101908000CBF3D40354314F4003F156055680CBFCB
:101918003D40354314F4801F556095680CBF3D4029
:101928003543A4029560D56854BF3D403543D56022
:101938000133102B7FF43FAF05B0BDE8F08F0025D1
:10194800D4E70125D2E70225D0E70325CEE7042511
:10195800CCE70525CAE70625C8E70725C6E7082511
:10196800C4E700BF003C01400000024000380240CC
:101978000014024038B50446002863D090F8A1301E
:1019880003F0FF021BB980F8A02003F058F80223E7
:1019980084F8A13023689A6922F070429A619969A3
:1019A800D4E901200243E0680243206902436069E8
:1019B8000A4325499A619A680A409A609A6842EAF5
:1019C8000042A0690243E0699A60DA680A40DA6076
:1019D800DA6842EA0042206A0243606ADA601A69F9
:1019E8000A401A611A6942EA0042A06A02431A616F
:1019F8005A6911405961E16A5A6942EA0142216B08
:101A08000A435A61D96A94F8360001F07F4194F884
:101A18003550D962D96A94F834200A4342EA05223B
:101A280042EA00420020DA625A6B42F006025A6328
:101A38009A6942F001029A610123C4F8A40084F86B
:101A4800A13038BD0120FCE700F800F02DE9F7438C
:101A58000268044612F001060BD0BB4B996821F4CA
:101A680000019960466B99683143B6FA86F67609A3
:101A7800996012F4002512D0B349E56BD1F88C3087
:101A8800B5F5801F23F4401308BF012643EA050378
:101A980016BFB5FA85F500256D09C1F88C30D1025D
:101AA80010D5A948216CD0F88C30B1F5800F23F4FB
:101AB800400343EA0103C0F88C3000F0AA810029F2
:101AC80008BF012512F0807F18BF0126920631D584
:101AD8009D4B9E4F1A6C42F080521A641B6C03F0A7
:101AE80080530193019B3B6843F480733B6002F091
:101AF80052FC80463B68DB0540F18D81924F3B6F7D
:101B080013F4407340F09281236B03F44072B2F5F2
:101B1800407F8D4A40F0B081916823F0704021F4F5
:101B2800F81120F4407001439160C3F30B03116F67
:101B38000B4313672368DA060CD5834AD2F88C1056
:101B480021F08071C2F88C10D2F88C10A06B014380
:101B5800C2F88C105F0408D57B49606ED1F89020DC
:101B680022F440320243C1F89020180408D576497F
:101B7800A06ED1F8902022F440220243C1F89020B0
:101B8800D90308D57049E06ED1F8902022F44012AC
:101B98000243C1F890209A0308D56B49206FD1F809
:101BA800902022F440020243C1F890205F0608D535
:101BB8006549606CD1F8902022F003020243C1F815
:101BC8009020180608D56049A06CD1F8902022F022
:101BD8000C020243C1F89020D90508D55A49E06C97
:101BE800D1F8902022F030020243C1F890209A05E3
:101BF80008D55549206DD1F8902022F0C002024343
:101C0800C1F890205F0508D54F49606DD1F8902044
:101C180022F440720243C1F89020180508D54A49B9
:101C2800A06DD1F8902022F440620243C1F89020C0
:101C3800D90408D54449E06DD1F8902022F44052E7
:101C48000243C1F890209A0408D53F49206ED1F884
:101C5800902022F440420243C1F890205F0208D548
:101C68003949A06FD1F8902022F080620243C1F870
:101C7800902098020CD53448E16FD0F89020B1F14B
:101C8800006F22F0006208BF01250A43C0F89020C7
:101C980013F0080F18BF0125590308D52A49606FAA
:101CA800D1F8902022F040720243C1F890201A0225
:101CB80009D52549D4F88000D1F8902022F0805227
:101CC8000243C1F890205F0109D51F49D4F8840068
:101CD800D1F8902022F000520243C1F89020180158
:101CE80009D51949D4F88800D1F88C2022F000725F
:101CF8000243C1F88C20D90009D51349D4F88C00C7
:101D0800D1F88C2022F080620243C1F88C20012E89
:101D180000F0B680B3F1007F00F0B280012D76D1DB
:101D2800094D2B682E4623F080532B6002F033FBBD
:101D380007462B689B0000F127812268150307D509
:101D4800E36B4BB104E000BF003802400070004074
:101D5800D0021CD5236CD3B9D6F88830D6F88810B1
:101D680003F4403301F0E0410B43616943EA811316
:101D7800A16943EA0163C6F88830D6F88C30A16AB5
:101D880023F4F853013943EA0123C6F88C30910251
:101D980015D5E36FB3F1006F11D18249D1F88830BE
:101DA800D1F8880003F0706300F0E04003436069F5
:101DB80043EA8013206A43EA0043C1F888301207D7
:101DC80019D57849D1F88820D1F8883002F07062A6
:101DD80003F440331343626943EA8213E26943EA36
:101DE8000273C1F88830D1F88C30E26A23F44033AA
:101DF8001343C1F88C306B4C236843F08053236045
:101E080002F0C9FA054623689B0040F1C48000200F
:101E180009E0012656E602F0BEFAA0EB08006428A5
:101E28007FF668AE032003B0BDE8F083226B02F4AE
:101E3800407293423FF468AE3B6F3A6F23F44073AD
:101E480042F480323A673A6F22F480323A673B674D
:101E58003B6FD8077FF558AE02F09DFA41F28839FA
:101E680080463B6F99073FF54FAE02F094FAA0EB1E
:101E780008004845F5D9D5E7916821F4F81153E6EB
:101E8800484E336823F08063336002F084FA0746D3
:101E980033681A0172D42268D30712D5636B83B9E9
:101EA800D6F88430D6F8841003F4403301F070611A
:101EB8000B43616843EA8113A16843EA0173C6F8DA
:101EC8008430170303D5E36BB3F5801F05D0D60222
:101ED8001ED5236CB3F5800F1AD13249D1F884305E
:101EE800D1F8840003F4403300F0E0400343606815
:101EF80043EA8013E06843EA0063C1F88430D1F80C
:101F08008C00636A20F01F00013B0343C1F88C304A
:101F1800D00111D52349D1F88430D1F8840003F0D9
:101F2800706300F0E0400343606843EA801320696F
:101F380043EA0043C1F8843091010DD523696268F2
:101F48001B0443EA8213E26843EA0263A26843EA95
:101F58000273144AC2F88430124E336843F0806327
:101F6800336002F018FA074633681A013FF5D6AE17
:101F780002F011FAC01B6428F6D953E702F00BFAF5
:101F8800C01B642884D94DE702F005FAC01B6428F9
:101F98007FF6CFAE46E702F0FEF9401B64287FF6D5
:101FA80032AF3FE7003802402DE9F0414A6AD1E9F3
:101FB8000738D1E9014ED1E903C7D1E905650968B8
:101FC80043EA0803D0F80080012912490FD01A43C8
:101FD80008EA0101224342EA0E0343EA0C033B43A9
:101FE80033432B430B4303600020BDE8F0811343C8
:101FF800426828F4F848114044EA0E0243EA08030C
:1020080042EA0C0203603A4332432A430A434260DD
:10201800EAE700BF0080FFFF084B19681A6801F063
:1020280000711B6802F000520A4314BF012000200F
:1020380013F0006F18BF0120704700BF003802403E
:102048002E4B1A681B6802F44042B2F5404F23D168
:1020580013F480333CD02A4B98423ED8294B9842FF
:102068003DD8294B98423AD8284B98424FF006035E
:1020780005D8274A904202D9002B08BF01232549D9
:102088000A6822F00F021A430A60086800F00F007D
:10209800C01A18BF0120704703F44043B3F5004F3E
:1020A80005D103F10F6303F5A343984213D8154BE9
:1020B80098420BD8144B984219D8144B98421BD805
:1020C800134B984294BF00230123D8E70423D6E793
:1020D800114A904205D90523D1E70723CFE7062304
:1020E800CDE7084A9042F1D8074A904201D9032324
:1020F800C5E7064A9042BCD90223C0E700700040F9
:102108008058840C000E2707804A5D0500879303DA
:1021180080C3C901003C024080D1F0080B68244A02
:10212800C3F3031370B5D45C0E46224D20FA04F4B1
:102138002B68A34227D3204B1A6842F080721A609A
:102148001A689201FCD59A68316822F0F0020A43B5
:102158009A609A6822F0030242F002029A60164BD3
:102168009A6802F00C02082AFAD19A68002071686D
:1021780022F4E0520A439A609A68B16822F46042F5
:102188000A439A6005E074B12046FFF759FF00281A
:10219800D1D02B68A34203D93CB12046FFF750FFAA
:1021A80000B92C6070BD0120F3E70120FAE700BFF9
:1021B800D05D0008D0120220003802402DE9F0411D
:1021C80004460E4690461D46FFF726FF002835D1E7
:1021D800D8F80030D8F8047003F03F00D8F8081099
:1021E800B4FBF0F4C7F308004443080C0130400086
:1021F800B4FBF0F0134C226892030FD42268012E2E
:102208000CBF42F4802222F480222260226842F429
:10221800803222600B4C22689203FCD5094C0A4A92
:102228006668324042EA87121A430A43294642F452
:1022380080026260BDE8F041FFF770BF0120BDE891
:10224800F08100BF003802400080BCFF38B504466A
:102258000D460020CB49FEF787FCCB490320FEF74B
:1022680083FCCA490020FEF77FFCC9490220FEF71B
:102278007BFCC6490020FEF777FCC6490020FEF724
:1022880073FC0A2002F0D1FCC3490020FEF76CFC65
:10229800C2490020FEF768FC0A2002F0C6FCC049CB
:1022A8000020FEF761FCBF490020FEF75DFCBE4937
:1022B8000020FEF759FCBD490020FEF755FCBC493B
:1022C8000020FEF751FCBB490020FEF74DFCAD494C
:1022D8000020FEF749FCB8490020FEF745FCB74945
:1022E8000020FEF741FCB6490020FEF73DFCB54949
:1022F8000020FEF739FCB4490020FEF735FCB3494D
:102308000020FEF731FCB2490020FEF72DFCB14950
:102318000020FEF729FCA5490020FEF725FC994975
:102328000020FEF721FCAC490220FEF71DFCAB495A
:102338000020FEF719FCAA490020FEF715FCA94960
:102348000020FEF711FCA8490020FEF70DFCA74964
:102358000020FEF709FCA6490020FEF705FC974976
:102368000020FEF701FCA3490020FEF7FDFB95497C
:102378000020FEF7F9FBA0490020FEF7F5FB9F4976
:102388000020FEF7F1FB9E490220FEF7EDFB7F4996
:102398000020FEF7E9FB9B490620FEF7E5FB9A497A
:1023A8000020FEF7E1FB99490E20FEF7DDFB984976
:1023B8000020FEF7D9FB97490E20FEF7D5FB96497A
:1023C8000020FEF7D1FB95490A20FEF7CDFB944982
:1023D8000020FEF7C9FB93490020FEF7C5FB6B49B7
:1023E8000020FEF7C1FB90490A20FEF7BDFB8F498C
:1023F8000020FEF7B9FB8E490F20FEF7B5FB824996
:102408000020FEF7B1FB8B490F20FEF7ADFB80499A
:102418000020FEF7A9FB88490A20FEF7A5FB7E49A4
:102428000020FEF7A1FB85490F20FEF79DFB7C49A4
:102438000020FEF799FB82490F20FEF795FB8149A2
:102448000020FEF791FB80490A20FEF78DFB7F49AB
:102458000020FEF789FB7E490A20FEF785FB4B49E1
:102468000020FEF781FB7B490A20FEF77DFB6F49C0
:102478000020FEF779FB78490F20FEF775FB6249CB
:102488000020FEF771FB75490F20FEF76DFB6049D0
:102498000020FEF769FB72490A20FEF765FB5E49DA
:1024A8000020FEF761FB6F490F20FEF75DFB5C49DA
:1024B8000020FEF759FB6C490F20FEF755FB3F49FA
:1024C8000020FEF751FB69490020FEF74DFB6849E3
:1024D8000020FEF749FB67490020FEF745FB6649E7
:1024E8000020FEF741FB65490020FEF73DFB25492A
:1024F8000020FEF739FB62490320FEF735FB21492E
:102508000020FEF731FB1F490020FEF72DFB5D4937
:102518001020FEF729FB1B490020FEF725FB5A492E
:102528001020FEF721FB00205849FEF71DFB7820FC
:1025380002F07BFB002C00F0C980022C03D1544927
:102548000020FEF711FB012D0BD152490020FEF7A8
:102558000BFB51490420FEF707FB50490420FEF706
:1025680003FB4F490020FEF7FFFA4E490020FEF713
:10257800FBFA4D490020FEF7F7FA4C490020FEF718
:10258800F3FA95E0E85D00084E5E0008FE5D00087D
:10259800D45E0008145E00082A5E0008405E000849
:1025A800465E0008485E00084A5E00084C5E000867
:1025B800EA5D0008EC5D0008EE5D0008F05D0008CB
:1025C800F25D0008F45D0008F65D0008F85D00089B
:1025D800FA5D0008FC5D0008525F0008005E000814
:1025E800025E0008045E0008065E0008085E000837
:1025F8000A5E00080C5E00080E5E0008105E000807
:10260800555F0008585F0008125E00085F5F000809
:10261800165E00086E5F0008185E0008525E00082B
:102628001A5E0008385E00085D5E00081C5E00083F
:10263800685E0008785E0008885E0008935E0008FF
:10264800A35E00081E5E0008B35E0008205E000856
:10265800BE5E0008C95E0008D75E0008E75E000895
:10266800F75E0008025F0008125F00083A5E000883
:102678003C5E00083E5E0008425E0008445E0008BA
:10268800225F0008305F0008415F0008225E0008F2
:10269800245E0008285E0008265F00082B5F0008FB
:1026A8002C5E00082E5E0008305E0008325E0008CE
:1026B80008490020FEF758FA07490020FEF754FAA7
:1026C80006490020FEF750FA002038BD044920468C
:1026D80037E700BF345E0008E85D0008365E000892
:1026E800265E00082DE9F743214C0126214D4FF0C5
:1026F80000081027214681464FF6FF722846CDF87C
:102708000480C4E90067C4E9026802F008FA3046A8
:1027180001F043FE022321464FF6FF722846C4E922
:102728000037C4E9026802F0FAF9032321464FF69C
:10273800FF722846C4E900370823C4E9023802F0CA
:10274800EEF94FF40C7321464FF6FF720193042300
:102758002846A660C4E90037019BE36002F0DFF970
:102768004946284603B0BDE8F04302F0EFB900BF80
:1027780024030220B0030220554B9A6B42F0010259
:10278800F0B59A638FB09A6B0327064609A902F041
:1027980001025048504C00250192019A1A6B42F4EC
:1027A80080021A631A6B02F480020292029A1A6B70
:1027B80042F008021A631A6B02F008020392039AA5
:1027C8001A6B42F010021A631A6B02F0100204929C
:1027D800049A1A6B42F020021A631A6B02F0200264
:1027E8000592059A1A6B42F040021A631A6B02F0BE
:1027F80040020692069A1A6B42F080021A631A6B1C
:1028080002F080020792079A1A6B42F480721A63E8
:1028180002221B6B03F480730893089B0123CDE904
:102828000A230C23CDE90C734CF203730993FEF7CA
:10283800B7FF4FF6837309A928480993FEF7B0FF3D
:102848004FF63F0309A926480993FEF7A9FF48F266
:10285800371309A923480993FEF7A2FF4FF62C73F3
:1028680009A921480993FEF79BFF40F2FF6309A9D4
:102878001E480993FEF794FF80234FF400714FF42C
:10288800805025633463E561A663C4E901534FF4BE
:102898008063C4E903134FF48043C4E905034FF48C
:1028A80000332046C4E90835114BC4E90A75236092
:1028B80001F000FE2046FEF7EFFC2A460F213820E3
:1028C800FEF794FC3820FEF7C3FC0FB0F0BD00BF44
:1028D80000380240000C0240500302200010024061
:1028E8000014024000180240001C02400020024070
:1028F8001064024038B5194C0721194B0422194DB0
:102908004FF4006023600223E260AB61C5E9003147
:10291800C5E90221C5E90433202240230021C4E986
:1029280004234FF4C073A162C4E906314FF4805305
:10293800C4E908032046C4E90111FFF71DFF294631
:102948002046094C02F0CBF8003018BF0120207057
:1029580040F20360FFF7C6FE207838BDB0030220BE
:10296800400100A03403022040130220044881687B
:10297800006A884203D003494FF080520A607047CA
:102988003005022004ED00E0002304481021C2189D
:1029980001336E2B82F80013F9D1704700E100E093
:1029A800094A0A4993680968D865196608494B684D
:1029B80043F080534B60002383F31188BFF36F8F7C
:1029C8009368186E704700BF300502209C5C0008B1
:1029D80000ED00E00F498A684FF028001044EFF33B
:1029E800098C80E8F01F102080F31188BFF36F8FE7
:1029F800094F4FF000660A6A8A603E60D06D002376
:102A0800D36580F3118802F1280090E8F01F8CF359
:102A1800098870473005022004ED00E01EF0040F1D
:102A28000CBFEFF30880EFF30980816931F8021CCD
:102A380011F0FF010229FFD001B502F0FAF801BD3B
:102A480038B51C4C05461C4801F097FCA26AD10613
:102A580002D51A4801F091FCA36A1A0702D5184852
:102A680001F08BFC134CA36A9B070ED5154801F0A7
:102A780084FC616BA36A180607D5134801F07DFC36
:102A88001DB1A36A23F08003A3620A4CA26AD2078D
:102A980002D50E4801F071FCA36A9B0602D50C48CA
:102AA80001F06BFC034B00209A6A9A6A42F0FF021D
:102AB8009A6238BD00ED00E0C37A0008DA7A0008AF
:102AC8000E7B0008227B00083B7B0008527B000835
:102AD800727B000838B51E4C05461E4801F04DFCB7
:102AE800A26AD10402D51C4801F047FCA36A1A0562
:102AF80002D51A4801F041FC154CA36A9B050ED576
:102B0800174801F03AFCA16BA36A180407D51548C9
:102B180001F033FC1DB1A36A23F40043A3620C4CFB
:102B2800A36A590502D5104801F027FCA36ADA0503
:102B380009D50E4801F021FC054A0020936A43F4A8
:102B48007F43936238BDA36A9B04F5D50848F1E733
:102B580000ED00E0357A00084C7A00080E7B00088A
:102B68005E7A0008787A00088E7A0008AA7A000847
:102B7800727B000810B5194C194801F0FEFBA26AD7
:102B8800930102D5174801F0F8FBA36ADC0102D5CE
:102B9800154801F0F2FB114CA26A100302D5134844
:102BA80001F0EBFBA36A590302D5114801F0E5FBDC
:102BB8000A4CA26A920302D50E4801F0DEFBA36A12
:102BC800DB0302D50C4801F0D8FB044A0020936AC5
:102BD8006FEA03436FEA1343936210BD00ED00E010
:102BE800A27B0008BB7B0008CF7B0008EA7B0008BB
:102BF800097C00082F7C00084A7C000870B5284D25
:102C080006466B68C3F30802D11E09293BD8DFE8E2
:102C180001F0053436293A3A3A3A3A38214801F06F
:102C2800ACFBEC6A14F0020404D01F4801F0A5FBC9
:102C380000241CE0EB6A5B0019D51C4801F09DFBE1
:102C48001B4B1B781BB10120FFF7FAFE0CE0194B58
:102C58001B781BB10120FFF73DFF05E0164B1B88D1
:102C68009BB223B1FFF786FF0628044617D03146EA
:102C78002046BDE8704000F09BB80020E4E7002043
:102C8800E9E70E48D2E713F4F87F0D4B0D49A2F19E
:102C9800100218BF19460C4801F06FFBC8E770BD59
:102CA80000ED00E0A47C0008BC7C0008DE7C000885
:102CB80028ED00E029ED00E02AED00E0FE7C0008A8
:102CC8008B7C0008767C0008357D0008024A536931
:102CD80043F010035361704700ED00E043B2002B4E
:102CE80008DB012200F01F005B0902FA00F0024A2B
:102CF80042F82300704700BF00E100E043B2013111
:102D0800002B4FEA0111C9B206DB03F1604303F55A
:102D1800614383F80013704700F00F00014B19540A
:102D2800704700BF14ED00E070B58C181E460422F1
:102D3800089B0799054602F020FCA4F120030B49E3
:102D4800002223F0070321F00101C5E9132299614C
:102D580004991E605960059999600699D9604FF0E9
:102D68008071D961AB64EA6570BD00BF6F4000082F
:102D7800014910220A60704710ED00E0404080F3DE
:102D8800118830BF704700BF404080F31188DFF8DA
:102D98001CC0DCF800C01CF4006C0CBFEFF308800A
:102DA800EFF3098001B5FFF729FF01BD04ED00E04D
:102DB80038B504460D4605281AD8DFE800F003198F
:102DC800191315170D4801F0D8FA00F0D5FEAA69B5
:102DD80001460B4801F0D1FA29462046BDE83840A3
:102DE80000F018B80748EEE70748ECE70748EAE7B5
:102DF8000146074801F0C1FAE7E700BF497D00082E
:102E0800E77D0008697D00088F7D0008A97D00081E
:102E1800C47D0008052810B50CD000F0FDFE60B197
:102E280000F0FAFE0C490D4B002808BF19460C4863
:102E380001F0A3FAFFF7A2FFFCE700F0FDFE00286F
:102E4800EED1084C0848A16801F097FAA068BDE8DF
:102E5800104000F00BB800BF237E0008277E000852
:102E6800387E000830050220587E000838B505462F
:102E78004FF01003EFF3118483F31188BFF36F8FC2
:102E880002F05CFB0A4B9B68AB420BD1094B5A68BA
:102E9800C2F3080212B92046FFF782FD5A6842F0D1
:102EA80080525A602046BDE8384002F0ADBA00BFF3
:102EB8003005022000ED00E001B5EFF30580A0F138
:102EC80010004FEAC0000449014409C99847BDE809
:102ED80001400248004700006856000875290008AC
:102EE800102080F3118808484FF40061401880F3DF
:102EF8000988EFF314800221084380F31488BFF394
:102F08006F8F00F007F80000B00A022030BFFFF70B
:102F1800FDBF00BF08B5084B084A23F07F03936044
:102F2800BFF34F8FBFF36F8F00F016FB00F01EFB4F
:102F3800FFF72AFD00F04CFB0000000800ED00E060
:102F4800014B1860704700BFDC12022008B5082149
:102F58000248FEF743F8002008BD00BF285B0008C0
:102F68000368074810B59C6800F0D0FA436804F17C
:102F780008011B689847002818BF6FF0040010BDAF
:102F8800415D000873B505461C480C4600F0BEFAC2
:102F98001B4902466B4603C983E803005168104683
:102FA8000E681946B0470F2C25DC634204F0030174
:102FB80003F0030358BF5942002C01F10401B8BFC4
:102FC80003348B000F21994041EAA401CBB2090CCC
:102FD8009B0003F1804303F59C339A6822EA0102BF
:102FE80091FAA1F1B1FA81F1002005FA01F111433A
:102FF800996002B070BD6FF01500FAE7415D0008F6
:10300800D45A00082DE9F3411D4603688046164648
:103018009F6805F080030B4305D06FF0220420461B
:1030280002B0BDE8F08101A9284601F0E6FE044699
:103038000028F4D10346019A3146386801F0FAFEB7
:10304800044610BBA907EAD54346134A79683046B7
:10305800FDF7C8FBE0B931467868FFF793FFAA0689
:10306800DBD56B060FD415F0040F14BF0121022124
:103078003046FDF79FFB3046FDF782FB002818BF5E
:103088006FF04604CBE70321F2E76FF00404C6E7CC
:103098006FF00F04C3E700BF074D0008F8B50368D9
:1030A800054687680A489E6800F030FA436831464A
:1030B8001B689847044638B92846F3689847384645
:1030C80001F09AFF2046F8BD6FF00404FAE700BF4C
:1030D800415D00082DE9F04F1E4603688DB0044697
:1030E8009B688946856890469F6812B9002E00F053
:1030F800E18005F1040B4FF0FF31584600F068FD00
:103108002368DFF80CC29B68D4F808A004AC0193CC
:10311800BCE80F000FC49CE80F0084E80F00DAF841
:10312800003099457CD0B9F80430C3F34513082B17
:1031380002D0102B40F0BC80019B74489C6800F0C2
:10314800E5F9436803AA0199DB689847039AD9F817
:103158000010012322FA03F0884240F2C0800133B4
:10316800092BF7D16FF01506A4E0226842F002029D
:103178002260580722684CBF42F0010222F0010287
:10318800D9062260226822F44442226022684CBF99
:1031980042F0800222F0800213F0010122602268CE
:1031A80022F400522260226814BF22F4827242F490
:1031B80082722260D9F80820002A6AD0216841F476
:1031C80000712160616821F00401C3F34513616057
:1031D800082B63680ABF23F4706343F4706343F4F5
:1031E800E0636360636843F480536360636823F05B
:1031F80010036360CAF8009092B1106880B1436808
:10320800002152681C680123A047DAF8002093685F
:10321800B2F90420D243D3E90001D20F01F0B9FE7C
:10322800B8F1000F4AD0D8F80030D8F80420AB62C3
:10323800EA621A685B68AA63EB63002E43D03368BE
:1032480072682B636A631A685B682A646B6400237C
:103258006B62BA6812F001023AD13B680121284634
:1032680043F040033B6001F09DFE7B6843F0200380
:103278007B607EBB7B684FF0FF3105F1140043F0A3
:1032880080037B6000F0A4FC58466E6A00F07AFC6C
:1032980010E019B1216821F4007192E7216821F446
:1032A800007141F480212160616841F004018CE7DC
:1032B8006FF0220630460DB0BDE8F08FC5E90A88E8
:1032C800C5E90E88B9E7C5E90C66C5E91066BEE729
:1032D800FB68BEE77B6843F040037B60CAE722686F
:1032E8000CA922F0400201EB83032260226853F804
:1032F800243C22F0380213432360B9F804309A07BB
:103308003FF533AF226822F0020231E7415D000841
:10331800DC5A00082DE9F84303680D460A799B68D2
:10332800012A86681C6800F08980022A0CBF4FF4C5
:103338008061002195F8059095F80680B9F1020F93
:1033480096BF434B4FF4005E33F819E0B8F1020F13
:1033580077D0B8F1040F0CBF4FF480530023EF79F6
:10336800033A012F14BF4FF0000C4FF4407C012AA0
:103378006AD919F0FD0F67D0B8F1010F64D907B306
:10338800344A94421BD0A2F54C42944217D002F51D
:103398008062944213D002F5806294420FD002F505
:1033A800806294420BD002F54442944207D0A2F5C1
:1033B8001C42944203D002F58062944244D1012F0A
:1033C80042D1226822F001022260226802F4C0621F
:1033D800914204D0276827F4C0670F4327606268CA
:1033E80002F44052964505D0616821F4405141EA03
:1033F8000E016160226802F01022934204D0226814
:1034080022F010221A432260A36803F440739C45FB
:1034180005D0A36823F4407343EA0C03A36029682A
:103428003368994203D001F031FF2B683360236879
:10343800002043F001032360BDE8F8834FF4C06126
:1034480078E74FF080538AE76FF02200F4E700BF77
:10345800A45C00080010014003682DE9F041D3F88E
:1034680008800546876846461C4856F8084B00F011
:103478004DF84368314678601B689847064648BB54
:10348800236823F001032360236843F00C032360BF
:10349800236823F0805323F4B0532360636823F434
:1034A8004053636098F8103033B12B689B681A68F2
:1034B800936843F4407393603968284601F0E6FE48
:1034C800236843F001032360E3699B02FCD530467F
:1034D800BDE8F0816FF00406F9E700BF415D000820
:1034E800094B70B553F820400130002653F820509E
:1034F800A54200D870BD236820465B68984700B194
:1035080066600C34F4E700BF885C0008104B70B5A7
:103518000546104C1E469C4204D10E4CB44209D1BB
:10352800002412E062681AB122681268AA420CD01C
:103538000C34F0E763680BB90C34EFE723682846CE
:10354800196801F081FB0028F6D1204670BD00BF44
:10355800401402204413022002480021024A121A91
:1035680001F0A8BB000002206C0502200648074AAB
:103578000749121A08B501F073FB064A06490748BD
:10358800BDE8084001F06CBBB012022054140220C0
:10359800187F000800000000187F000800000220C3
:1035A80008B50220FFF79CFF074800F0E6FE03205D
:1035B800FFF796FF00F09AFBFCF78EFF034A137B98
:1035C80023F00103137308BDC67E0008CC04022053
:1035D80080B53A4BA0B083F30888394D0024F02316
:1035E800384E012785F82230EC772C766C76AC764D
:1035F8006B6A43F4E0236B62FFF768FBFFF7B8FBE5
:103608004FF0FF3321466422AB62EB6207AB2E4DCD
:10361800184601F04FFBB06020468DF82970FFF77F
:103628005FFF3846FFF75CFF00F050FA274B356222
:103638004FF4806226492846CDE90473CDE9024457
:10364800CDE90044234B344600F038FB6B7B23F074
:10365800040213F01B0F6A7304D1AB6913B928462F
:1036680000F0ECF81C4B01221C4E05930F231C495B
:103678003046CDE9033200234FF4A072CDE901337F
:103688000093184B00F01AFB737BE66023F00403E9
:10369800A560154A7373154BC4E906330D4B1846DC
:1036A80082F3098863B64FF0000181F31188BFF3F4
:1036B8006F8F00210022002300F0D5FCB0120220F9
:1036C80000ED00E030050220CC0402200D7F000848
:1036D80070050220A9350008127F0008680402203E
:1036E800700902203556000870090220480502209A
:1036F80008B5FDF745FD054B054A00211B68184430
:1037080010611846BDE8084001F065BF6405022055
:1037180030050220EFF305800D2809D828B1054BA4
:10372800586880F40060C0F3C02080F00100704742
:103738000120FAE700ED00E010B54FF01003EFF3B9
:10374800118483F31188BFF36F8F0022064B1A612F
:10375800064B1860064B1960FFF7CAFF84F31188FF
:10376800BFF36F8F10BD00BF300502206405022033
:10377800600502204FF01003EFF3118183F31188E5
:10378800BFF36F8F044B9A68D37B013BD37381F3EC
:103798001188BFF36F8F704730050220094B03F182
:1037A8002402824205D19B688B4202D14B7BDB0607
:1037B80006D1D1E9003213605A600023C1E9003311
:1037C800704700BF3005022038B50D4C024604F1A1
:1037D800240001F033FE054600B9E568A3684AB93C
:1037E8005A7BD20606D1AA6922B9DA897F2A01D979
:1037F800236238BD9D4201D0FFF77AFF2562F8E7C2
:103808003005022010B54FF01003EFF3118483F355
:103818001188BFF36F8F084B01209A68D37B01335F
:10382800D373FFF7D1FF84F31188BFF36F8FBDE81F
:10383800104001F0F9BD00BF30050220F8B54FF087
:103848001003EFF3118483F31188BFF36F8F154AC8
:10385800114651F8243F8B421DD0E3B1966A90F986
:103868000E5093F90E70AF4210DD5A68C0E900326D
:1038780010605860437B43F0400343730020FFF718
:10388800A3FF84F31188BFF36F8FF8BDB34202D052
:103898001B68002BE5D1936A01604360936A186046
:1038A8009062E7E730050220F8B504464FF01003B0
:1038B800EFF3118783F31188BFF36F8F194D01461A
:1038C80005F124063046FFF769FF6B6A2A46B342C2
:1038D80020D0FBB1A86A94F90E1093F90E508D42CE
:1038E80013DD5968C4E900310C605C60637B906843
:1038F80043F040036373031B58425841FFF764FFCA
:1039080087F31188BFF36F8FF8BD834202D01B681D
:10391800002BE2D1936A26606360936A1C6094620C
:10392800E4E700BF300502201449154A8B6810B53A
:103938001468A34203D1BDE81040FFF7D9BE0024A4
:103948001460104A1268BAB1DA897F2A14D80E4A6C
:1039580093F90E40126894420EDB0C4A12689342A7
:103968000AD09A6942B90A69824203DC1846FFF70D
:103978009BFFE0E7121A0A6110BD00BF3005022064
:103988005C0502206405022060050220A05C000896
:1039980038B504464FF01003EFF3118583F311880F
:1039A800BFF36F8F437B5A0607D501460948FFF7D7
:1039B800F5FE637B23F040036373074B9868031B92
:1039C80058425841FFF700FF85F31188BFF36F8F06
:1039D80038BD00BF540502203005022070B50446EA
:1039E8000D461646FFF7D4FF637B43F0020363736B
:1039F8007DB12B68A5609D421BD0D3B194F90E20F0
:103A080093F90E1091420EDD5A68C4E90032146031
:103A18005C60731C14D0721C04F118000949BDE8DD
:103A2800704000F0E7B969688B4202D01B68002B30
:103A3800E6D16B68256063606B681C606C60E8E7C2
:103A480070BD00BF5154000810B50C461146064A17
:103A58009068064A10601A46FFF7C0FF2046BDE886
:103A68001040FEF79DBF00BF300502205C05022014
:103A7800F8B5461C01F0C9FD34184FF01003EFF3F8
:103A8800118783F31188BFF36F8F0D4D0D4BA86815
:103A98001860FFF77DFFA86832460B49183000F020
:103AA800A9F9AA683846537B43F010035373FEF70D
:103AB80077FF01F0AAFD201A20EAE070F8BD00BFE8
:103AC800300502205C05022051540008044B0021F7
:103AD80003F124020846C3E90922FFF72DBE00BFFF
:103AE80030050220F8B5224C224BA2681B689A4286
:103AF80025D04FF01003EFF3118683F31188BFF33D
:103B08006F8F04F12405A1682846FFF747FE636A12
:103B1800A268AB4224D01BB3A16A92F90E0093F9B4
:103B28000E70874217DD5968C2E900310A605A6091
:103B38000120FFF749FE86F31188BFF36F8F4FF01E
:103B48001003EFF3118083F31188BFF36F8FBDE883
:103B5800F840FEF725BF994202D01B68002BDED142
:103B6800A36A15605360A36A1A60A262E0E700BF07
:103B780030050220A05C0008014B9868704700BF20
:103B88003005022070B504464FF01003EFF311869C
:103B980083F31188BFF36F8F01F087FC054670B17E
:103BA800437BDB0603D183690BB9FFF747FE00238C
:103BB8002B6631460548BDE8704001F016BCD4E9D3
:103BC80002329A4218BF0133A360F2E76C05022063
:103BD80010B402460B464FF01000EFF3118180F34A
:103BE8001188BFF36F8F946844B1013C946081F3EE
:103BF8001188BFF36F8F002010BC704733B981F371
:103C08001188BFF36F8F6FF00F00F5E7014810BC04
:103C1800FFF71ABF6C050220EFF305800D2807D8BF
:103C280038B1044B586880F40060C0F3C020704776
:103C38000120704700ED00E0024B9B68187B00F004
:103C480001007047300502200849094AA0FB01011C
:103C580038B50023FCF7CCFA0446FDF7B1FA05465F
:103C6800FDF7AEFA401BA042FAD338BD00E6DF0CE0
:103C780040420F0010B502464FF01003EFF31184D5
:103C880083F31188BFF36F8F437B590704D484F300
:103C98001188BFF36F8F10BD23F00403437301F045
:103CA80044FC10B11046FFF7C9FD21460248BDE8A3
:103CB800104001F09ABB00BF6C05022030B587B0F8
:103CC80004460E9D04950D9D03950C9D02950B9D34
:103CD80001950A9D0095FFF727F8034B9B6803B1F0
:103CE8009B6DA36507B030BD30050220F0B51F4EAF
:103CF80087B01F4D3746B54205F130040AD31C4C36
:103D0800FFF738FD1B4DBC4221D307B0BDE8F0409A
:103D1800FFF778BD54F8043C059354F8103C04931D
:103D280054F8143C039354F8183C029354F81C3C80
:103D3800019354F8203C009354E90A2354E90C01F8
:103D4800FFF7BCFF54F8303CDD642546D3E7626AD0
:103D5800531C03D020681AB9FFF78CFF3034D2E720
:103D680001322946183000F045F8F7E740140220E0
:103D78004014022051540008034B1B680BB9FDF78F
:103D8800FFB90020704700BF68050220036840B1F2
:103D9800074A5268904204D01BB19A6881680A4465
:103DA8009A60426813605A600023C0E90033704784
:103DB8003813022038B50D4B1C689C4211D084B1D1
:103DC800A568FFF7D9FF281A00280DDBA468FFF7BC
:103DD800D3FF201A064B1B6913B19842A8BF184697
:103DE80038BD6FF00040F5E70020F3E738130220F4
:103DF8003005022070B504461646C1604FF0100326
:103E0800EFF3118583F31188BFF36F8FFFF7B4FFCA
:103E1800184B012EACBF801901301A68A0609A4275
:103E280001D05E6832B95A68236062605A681460CB
:103E38005C600AE09068A168884215DD411A9160CB
:103E48005168C4E900210C6054601A689A4206D08F
:103E5800944204D1FFF7AEFF0021FDF741F985F345
:103E68001188BFF36F8F70BD091AB242A160DAD012
:103E78001268D7E7381302202DE9F04B0446FFF704
:103E880053FD4FF01003EFF3118583F31188BFF34F
:103E98006F8F214F214EDFF88890B8463460D9F8EB
:103EA800004032684C45D7E900BC05D024B1A3686E
:103EB800934215DD9B1AA3601BEB02004FF0000430
:103EC8004CEBE2713460C8E90001FFF773FF21464B
:103ED800FDF706F985F31188BFF36F8FBDE8F08B06
:103EE8001BEB03004CEBE371D31A33600023C7E9E3
:103EF8000001A3602046FFF749FF85F31188BFF34F
:103F08006F8FE36898474FF01003EFF3118583F341
:103F18001188BFF36F8FC2E70000022068050220F6
:103F2800381302202DE918484FF01003EFF31184DD
:103F380083F31188BFF36F8FFDF722F9074BD3E99D
:103F4800002312EB000B43F1000C5846614684F342
:103F58001188BFF36F8FBDE8188800BF00000220EA
:103F680038B5074C074DAC4201D3002038BD04F1E9
:103F780014032046C4E9053300F02BF81C34F2E79B
:103F8800401402204014022070B5C6680C2590F930
:103F98000B004D438842104606EB0504B8BF745920
:103FA800002AB8BF02F11F00401104EB800102F0A3
:103FB8001F00196070BD07B501ABFFF7E5FF019A57
:103FC800012303FA00F013680343136003B05DF89C
:103FD80004FB2DE9F8434368FF2206890446056877
:103FE8004FF00C0E5E4390F80AC0C27200203544B0
:103FF800844505DC00252389AB4221DCBDE8F88334
:10400800D4F80C800EFB00F7B6FBF3F108EB0702BF
:10401800202902F10409C2E9019906DCE0729B0833
:104028000130033323F00303E2E711F11F0248F8DC
:10403800075048BF01F13E02521105EB8205EEE739
:10404800E368626820681E1D6A43811886509A6872
:1040580020464A609A6811602A4699600021FFF755
:10406800AAFF0135C7E708B50446084611461A46AF
:10407800A047FFF781FDFEF7F9FE0020704770B5F5
:104088000D4604464520A04729465220A047294608
:1040980023465220BDE8704018472DE9F04F4FF0F5
:1040A80000088BB01C460646531E0F464FF0FF3AD9
:1040B800C1460293002505E06DB9252800F04F811F
:1040C8003946B047029B13F8010F02930028F3D139
:1040D8000BB0BDE8F08F64286ED01AD839280AD8FA
:1040E800312860D22D2800F0408130284CD0252876
:1040F80007D139460BE0582800F0BB80632800F050
:104108002A8139462520B047029B39461878B0479E
:10411800D0E7702800F0A38011D869284CD06C280B
:1041280005D1B8F16C0F2AD14FF04C08CAE76828BE
:10413800E7D1B8F1680F22D14FF04808C2E77528D7
:1041480071D018D87328DCD154F8045BAB465B46B1
:104158001BF8010B002840F0FB80B9F1030F40F079
:104168000A815D1BAAEB0505002DA3DD3946202039
:10417800B047013DF8E778287BD07A28C1D1B8F15B
:10418800000FBED180469DE7BAF1000F0EDAB9F1F3
:10419800000F00F0ED80A0F1300AB9F1000F08BF60
:1041A8004FF002098EE7BAF1000FF4DB0A2303FB94
:1041B8000A0AAAF1300AF0E7B8F17A0F02D154F8E6
:1041C800045B1FE0B8F16C0FF9D0B8F14C0FF6D1D1
:1041D80007344FF0FF3024F00704F4E8022312F10B
:1041E8000041069143F1000107910021DDE906BC79
:1041F800614508BF584504D239463046FFF73FFFAE
:1042080058E71546002D05DA6D420AF1FF3A39469E
:104218002D20B0474B462A46CDF800A039463046F7
:10422800FCF7A2F946E7B8F17A0F02D154F8042B4B
:1042380011E0B8F16C0FF9D0B8F14C0FF6D1073492
:1042480000214FF0FF3024F00704F4E802239942DC
:1042580008BF9042D0D3CDF800A04B46DEE73946E0
:1042680030204FF0080A4FF00109B047394678204E
:10427800B047029B1B78702B04D154F8043B04937D
:1042880000230DE0B8F16C0FF7D0B8F14C0FF4D162
:10429800073424F007031C465B6854F8082B049283
:1042A800002110224FF0400B03910591ABF1040B54
:1042B8000498CBF1200CABF1200120FA0BF003FAA3
:1042C8000CFC23FA01F140EA0C00084310F00F003F
:1042D80008D1059911B9BBF1000F24D1302105E0AF
:1042E8000595E3E709288CBF572130210844394652
:1042F800089340B20592B047039B059A0133039394
:10430800089BBBF1000FEBD1B9F1030F7FF4D2AEDC
:10431800039BC3EB4A05002D7FF7CCAE394620201E
:10432800B047013DF7E7511E9245089107DBB9F107
:10433800010F06D1394630200993B047099B089AE6
:10434800B4E7B9F1020FFAD1099339462020F4E70E
:104358003946B047FBE6394654F8040BD7E6A84679
:10436800A9464FF0FF3A0125ACE64FF00309A9E64C
:104378004FF00109A6E60546A4E60FB407B504A95F
:1043880051F8040B0191FCF743F903B05DF804EB15
:1043980004B07047704701F03CB982B001900198B1
:1043A80002B001F0AFB8024601210020FCF7C8B9FD
:1043B800024602210120FCF7C3B90246032102206C
:1043C800FCF7BEB9024604210320FCF7B9B902463E
:1043D80005210420FCF7B4B902460A210520FCF7A0
:1043E800AFB9024610210A20FCF7AAB902461121EA
:1043F8001020FCF7A5B9024613211220FCF7A0B93A
:10440800024616211520FCF79BB9024617211620F3
:10441800FCF796B9024618211720FCF791B900223B
:10442800062008B51146FEF769FC00220720114650
:10443800FEF764FC002208201146FEF75FFC00220C
:1044480009201146FEF75AFC00220A201146FEF701
:1044580055FC002217201146FEF750FC00222820A8
:104468001146FEF74BFC002201201146FEF746FCE0
:1044780000222A201146FEF741FC002202201146A4
:10448800FEF73CFC002203201146FEF737FC002211
:104498005D201146FEF732FC002008BD4FF4D873AA
:1044A8001922C0E900230023836070477047012068
:1044B800FCF7C6BB38B5054620B390F83540E4B2E2
:1044C800022C1DD0036800241A6822F001021A6029
:1044D80021221C605C609C60DC601C615A61FCF7F6
:1044E800C5FEEA6D3F23934083606C6585F83440D0
:1044F80085F83540C5E90F44C5E91144C5E91344B9
:10450800204638BD0124FBE770B50468049D666C3D
:1045180045EA034306F04046334363644368E26375
:10452800B3F5403F30D186681EB1012E03D121F08A
:104538007F41A16370BD022E01F47F0301F47F4522
:10454800C8B207D1D90CAD0AC90241EA451141EAFE
:10455800D001EEE7032E01F07F420AD1DB0CED0A11
:104568009B02D10F43EA451343EAD00343EAC13122
:10457800DFE7190D2D0B0902130F41EA051141EA76
:10458800101141EA0331D4E7E160D3E7704710B571
:10459800044680B390F8513003F0FF021BB980F84D
:1045A8005020FFF7F3FF0223616884F85130236835
:1045B8001A6822F440320A43A1681A605A6B22F042
:1045C80007020A43E1685A631A6C22F47F5222F008
:1045D8003F020A431A64596BD4E9040221F44011DA
:1045E800520542EA005200200A435A6301236065DB
:1045F80084F8513010BD0120FCE773B590F85040A5
:104608000546012C4FF002040FD080F851400126D6
:10461800069C80F850600094FFF776FF2A68002017
:1046280013683343136002B070BD2046FBE70023D4
:1046380073B50193044603680D461B68DB0717D45E
:104648002268D369526A13439E0606D5FFF7A3FE74
:10465800064623685A68D20643D5236812220020EA
:104668009A60012384F8500084F8513002B070BD7C
:10467800FFF791FE064623685A689207E0D45A6805
:104688000192019A12F0210F17D0019A950603D5CD
:10469800626D42F002026265019AD00703D5626D2D
:1046A80042F00102626521229A600423012084F805
:1046B8005130002384F85030D8E7691CDCD0FFF76C
:1046C8006AFE801BA84201D8002DD4D1636D032057
:1046D80043F020036365002384F8510084F85030C8
:1046E800C4E75A680192019A12F0290F16D0019A6C
:1046F800160703D5626D42F004026265019A9506B9
:1047080003D5626D42F002026265019AD00703D5B3
:10471800626D42F0010262652922C5E7691C99D0E1
:10472800FFF739FE801BA842D0D8002D91D1CDE7E4
:104738002DE9F04107460D4614461E46FFF72BFEAD
:1047480080463B685A6FD2070AD544EA0621069C80
:10475800002041EA044141EA8511D966BDE8F081AB
:10476800FFF719FEA0EB0800B0F57A7FE9D903201E
:10477800F4E77047704730B5054685B0002842D049
:1047880003230024437403680094D3F8042422F01C
:104798000802C3F80424D3F8042402F008020092A3
:1047A800009A01945A6822F001025A605A6802F08D
:1047B80001020192019AD3F8A02022F00602C3F860
:1047C800A0200294D3F8302422F00102C3F8302448
:1047D800D3F8302402F001020292029A0394D3F82B
:1047E800302422F08072C3F83024D3F8303403F038
:1047F80080730393039BFFF7BDFF20466C612C7405
:104808006C7405B030BD0120FBE7037C82B0012B3E
:104818001CD0026800230093516841F001015160E7
:10482800516801F00101009100990193D2F8041434
:1048380041F00801C2F80414D2F80424037418469D
:1048480002F008020192019A02B070470220FBE7C9
:1048580037B5057C0446012D09D001250574069D50
:104868000095FFF765FF0023237403B030BD0220D5
:10487800FBE72DE9F84F1C46037C06460F46012B43
:104888001546DDE90A9852D001230374FFF783FD2A
:1048980083463268536F13F0010A19D0032C20465F
:1048A8004FF0000328BF032083421DD1E01A434480
:1048B800C2F8709010BB013445EA87152302240220
:1048C8009BB204F47F041D432C43D466307409E082
:1048D800FFF761FDA0EB0B00B0F57A7FD9D9032073
:1048E80086F810A0BDE8F88F18F8031001334FEAD6
:1048F800C30C01FA0CF149EA0109D5E704284FF085
:10490800000C8646614628BF4FF0040E13F801805C
:104918004FEAC109013108FA09F88E454CEA080C3A
:10492800F4D1C2F870C0A0EB0E007344C2E70220B5
:10493800D8E7D201D1F800C02DE9F04384320468E9
:104948004F680CF10106A318E5684FF0000ED1F886
:1049580018905868C5F30B4500F470403D44586002
:10496800E068C0F30B40304440EA0540CD68586029
:10497800E068C0F30A000544986800F47040986045
:104988008868E6680130C6F30A0630440E6940EAD2
:1049980005409860186920F0070018611E619D693C
:1049A80091F8320091F83180C3F818E091F830504E
:1049B80045EA096545EA082545EA00459D615869C3
:1049C80020F0FF00586148695861D86920F4E06018
:1049D80020F00700D861D1E907500543DD61986AE6
:1049E800486AC3F828E098621EB3012E23D0B01E8F
:1049F800022822D9072E0CBF02200120DD6AA7EB6E
:104A08000C0705F0E025DD628D6AC96A45437843E5
:104A1800033040EA0540D862186B20F4FF6020F0AC
:104A2800070018631963A35843F00103A350BDE8B6
:104A3800F0830420E2E70320E0E70220DEE7704786
:104A4800F8B590F8A03006468C469646012B4FF0F4
:104A580002001DD034240D4686F8A100012704FB6E
:104A6800026486F8A07038340FCD0FC40FCD0FC480
:104A78000FCD0FC42B683046724661462360FFF79E
:104A880058FF336800205F6286F8A17086F8A0009E
:104A9800F8BD4B6A002B18BF4FF00053C3600B6A78
:104AA800002B0CBF4FF0804300238360CB69002BA1
:104AB8000CBF4FF00043002343604B6B5A1E8261CA
:104AC8008A6B13445A1E02620A6C13445A1E82628D
:104AD800CA6B013A1344036300207047704738B526
:104AE8000D460446C8B190F82C3003F0FF021BB9FC
:104AF80080F82D20FFF7F2FF0223211D206884F89B
:104B08002C30FDF751FA62682946206800F030F829
:104B18000123002084F82C3038BD0120FCE738B58B
:104B2800044690F82C000D46C0B202280DD002238E
:104B3800206884F82C3000F05FF82B680020022BE6
:104B48000CBF0523012384F82C3038BD10B504466A
:104B580090F82C00C0B2022809D00223206884F8FB
:104B68002C3000F05CF80123002084F82C3010BDB4
:104B7800CB68012AF0B50C6803F1FF374B698E68E2
:104B880004F1FF3C0D6903F1FF334C6806F1FF3671
:104B980089694FEA035304F1FF3405F1FF3501F148
:104BA800FF314FEA06264FEA04144FEA05454FEA5B
:104BB800016143EA07330CD043EA0C0382682343BC
:104BC80002F0704233432B430B43134383600020AE
:104BD800F0BD876844EA060227F4700742EA0C022F
:104BE80027F470472A433B43C7680A4307F07047D6
:104BF80083603A43C260EAE7D1E9003213B5134350
:104C0800CA680446002043EA42238A680190013AB0
:104C180043EA42130193019B236102B010BD43692B
:104C280043EA4101416100207047FFF7B6BBFEF738
:104C3800ABB801460068FEF7BBB808B5FEF766F9E1
:104C4800BDE80840FDF792BE0138013910F8013F70
:104C580011F8012F934201D1002BF7D1981A704710
:104C6800F0B581EA00040346A5070BD0013B0A44CE
:104C780091421AD1F0BD002AFCD011F8014B013A3B
:104C880003F8014B9C07F6D195081E1FAC000F19BD
:104C9800B94205D16FF00306234406FB0522E5E778
:104CA80051F804CB46F804CFF2E711F8014B03F8AA
:104CB800014FDDE7C9B2034670B59C0710D141EA40
:104CC800012444EA0445940803EB8406B3420DD159
:104CD8006FF0030505FB04241C44A34209D170BDF1
:104CE800002AFCD003F8011B013AE6E743F8045B0D
:104CF800ECE703F8011BF0E74FF0FF3070478A68D4
:104D08001368C340DB0770B50E460FD5516869B10B
:104D180001250C6885408B681D4203D04B682A46E4
:104D28003046984714B121462468F4E770BD0068FE
:104D3800806810B5006841B9012404FA02F213B181
:104D48008261084610BD1204FAE76FF02201F8E705
:104D58000068806810B5006831B90469D44004F06F
:104D680001041C60084610BD6FF02201FAE7836851
:104D7800586830B558B10024814213D108685CB92D
:104D88009C685860A14200D198600020086072B900
:104D9800002030BD2846EFE720609868814208BFB0
:104DA8009C60F2E705680446002DF3D13AB15A68D1
:104DB8000A60986859600028EAD19960E9E76FF0BD
:104DC8001500E6E7806839B9012303FA02F203689F
:104DD80013430360084670476FF02201FAE78068C2
:104DE80041B9012303FA02F2036823EA02030360CC
:104DF800084670476FF02201FAE700F00103B1B1ED
:104E080023B110230B6000231846704700F440704C
:104E1800B0F5807F03D14FF400720A60F4E7B0F573
:104E2800007F01D00B60EFE74FF48062F5E76FF089
:104E38001503E9E7F0B502F030050124D0F800C009
:104E48008C402E0994FAA4F7B7FA87F74FF0030EAF
:104E58007F000EFA07F72CEA070C94FAA4F7B7FAC2
:104E680087F7202D4FEA470706FA07F646EA0C06A9
:104E7800066016D1072949DC076A94FAA4F60EB130
:104E8800B6FA86F50F26AD0006FA05F527EA0506F7
:104E980094FAA4F5B5FA85F5AD0003FA05F535439E
:104EA80005624568C2F3801325EA040503FA01F197
:104EB800C2F3C11329434160856894FAA4F1B1FA99
:104EC80081F10326490006FA01F125EA010594FA61
:104ED800A4F1B1FA81F1C2F3412249008B402B437E
:104EE8008360C16894FAA4F3B3FA83F35B0006FA0B
:104EF80003F321EA030394FAA4F4B4FA84F46400F3
:104F080002FA04F41C43C4600020F0BD476A260A74
:104F180096FAA6FCBCF1000F01D0BCFA8CF54FF054
:104F28000F0CAD000CFA05F527EA050596FAA6F66A
:104F3800B6FA86F6B600B3402B434362B1E7826BFC
:104F480052B1C36B53B103689B88C3F34513082B55
:104F58000CBF107810887047104670471846704785
:104F680008B5242000220521FDF7C8FE2420BDE84D
:104F78000840FDF7B3BE836882B05B0605D5C368F9
:104F88000193019B83680193019B6FF0040002B0B9
:104F98007047436810B45C6813460A460021A4466B
:104FA80010BC604738B50468054624B3A36813B33A
:104FB800186800B361B1B4F904205968D20FFFF73B
:104FC800E8FF2B689B689868BDE83840FEF73CBE50
:104FD80012B9A28892040ED49868FEF735FE2A68A2
:104FE8009368B2F90420D243D3E90001D20FBDE897
:104FF8003840FFF7CEBF38BD10B504460122002166
:10500800FFF7D0FFE36823B9201DBDE81040FEF785
:10501800B9BD10BD08B58068FFF7EEFF002008BDD8
:105028004B6823F0800370B54B6016464B6800222E
:105038000C46054623F040034B604B6823F02003E1
:105048004B601146FFF7AEFFA368DA0701D5E368A6
:10505800FAE7236803F48273B3F5827F02D1A36869
:105068001B06FCD4236805F1140023F040032360D9
:105078006E62BDE87040FEF785BD03689B6899685D
:105088008B6813F4B87F70B5846809D00846FFF7B9
:1050980072FF024620B12046BDE87040FFF7C0BF4E
:1050A800E56B15B9626C002AF5D023689E88F20773
:1050B80000F185802046FFF742FF8B689B07FCD5EF
:1050C800C6F34516082E49D1C0B20873E36B83B105
:1050D800013BE363002B3BD1E36A013BE362002B16
:1050E8003AD0A36A03F10802A2629A68DB68A26355
:1050F800E3638B68D807FCD522689288C2F345120F
:10510800082ACA68D4E9103041D10BB100B11A702D
:10511800636C93B1013B6364002B40F0A280636B26
:10512800013B6363002B00F0A180236B03F10802AD
:1051380022639A68DB68226463648B6813F4B87F1F
:1051480040F09C80E36B13B9626C002AA3D070BD59
:10515800A36B002BCDD00133A363CAE78881002D50
:10516800C7D0013DE5636DB9E36A013BE362002BFB
:10517800F2D0A36A03F10802A2629A68DB68A2630C
:105188005B08B5E7A36B002BB3D00233E4E70BB1A0
:1051980000B11A80636C002BCFD0013B6364002BF5
:1051A80066D1636B013B6363002B5FD0236B03F114
:1051B800080222639A68DB6822645B08BCE78B6894
:1051C8009A0749D5002D47D0C6F345162046FFF764
:1051D800B6FE082E29D1C0B20873E36B73B1013B48
:1051E800E363E3B9E36A013BE362E3B1A36A03F172
:1051F8000802A2629A68DB68A263E3638B68DB0734
:105208009BD5236C002B98D0626C002A95D022681D
:105218009288C2F34512082ACA68BAD177E7A36B05
:10522800002BEBD00133A363E8E7013D8881E563F8
:105238006DB9E36A013BE362002BF4D0A36A03F182
:105248000802A2629A68DB68A2635B08D5E7A36BD1
:10525800002BD3D00233E6E74B6823F080034B6082
:10526800CCE7236C002B3FF468AF0133236464E779
:10527800236C002B3FF461AF0233F7E70846FFF7D2
:105288007AFE024600287FF406AF5BE7036837B56D
:105298000C469968836801AA51F8085B5868436806
:1052A800DB689847019901EB5401B1FBF4F189B22D
:1052B800E96003B030BD03689B681B68DA691206B1
:1052C800FCD540221A629962704703689B681B6884
:1052D800D869DA69C0F3C000D207DA6948BF40F07C
:1052E8000200910748BF40F00400C20701D5082218
:1052F8001A62810701D501221A62420701D50222EA
:105308001A6204221A62704703689B681B68DA698C
:10531800100701D508221A62DA69920603D55B6A7A
:1053280000200B7070474FF0FF30704783681B6890
:105338000B6003689B681A68136803F4C063B3F5CD
:10534800806F28D0A3F5C060434243410B71536876
:1053580003F44053B3F5805F1FD0B3F5405F1ED010
:10536800002B0CBF012303234B71136803F0102398
:10537800B3F5805F15D0B3F1805F0CBF0223032320
:105388008B710020936803F44073A3F54072534275
:105398005341CB7170470223D8E70023E4E7022387
:1053A800E2E70423ECE7437BDB0603BF8069B0FA3E
:1053B80080F040090020704738B504464FF01003CC
:1053C800EFF3118583F31188BFF36F8F014680686F
:1053D800FEF7E4F9637B23F00203637385F3118816
:1053E800BFF36F8F0023A36038BD08B539B9FEF746
:1053F80091F920B10846BDE80840FDF7D1BA81F31C
:105408001188BFF36F8F08BD08B5024638B9FEF79B
:1054180081F920B11046BDE80840FDF7C1BA82F312
:105428001188BFF36F8F08BD4FF01003EFF31180A1
:1054380083F31188BFF36F8FFFF7E6BF03689842C5
:1054480014BF18460020704750F8103C70B5044649
:10545800A0F11805CBB14FF01003EFF3118683F3D9
:105468001188BFF36F8F294650F8100CFEF796F994
:1054780014F80B3C23F0020304F80B3C86F3118864
:10548800BFF36F8F002344F8103C14F80B3C2846F8
:1054980023F0140304F80B3CFFF785FF20B12846DE
:1054A800BDE87040FEF7CAB970BD38B54FF01003BB
:1054B800EFF3118283F31188BFF36F8FFFF7BEFFFD
:1054C800044682F31188BFF36F8FC8B14FF0100301
:1054D800EFF3118583F31188BFF36F8F014680685E
:1054E800FEF75CF9637B23F00203637385F311888D
:1054F800BFF36F8F002304F11800A36000F045F894
:10550800204638BD10B5044658B9FEF7EBFA4FF4FB
:105518007A704FF47A72002384FB0001FAF768FE70
:1055280010BDFEF7A5FA0446F1E7437BDB0603BF8F
:105538008069B0FA80F0400900207047036D10B50B
:10554800044603B198472046FFF7EFFF38B12046DD
:10555800FEF71EFA637B43F00803637310BD637B99
:105568009B0702D52046FFF727FFA369002BF1D040
:1055780004F1180000F009F8ECE703730023427304
:105588008173C373C0E90633704710B54FF010023A
:10559800EFF3118482F31188BFF36F8F03683BB177
:1055A800FEF7F4FB002084F31188BFF36F8F10BD62
:1055B8006FF01500F7E710B54FF01003EFF3118403
:1055C80083F31188BFF36F8FFEF7F4FB84F3118820
:1055D800BFF36F8F10BD70B504460E464FF0100331
:1055E800EFF3118583F31188BFF36F8FFEF7E2FBAA
:1055F800A04205DD012803DD31462046FBF770FD9A
:1056080085F31188BFF36F8F70BD08B5FEF78AFC6C
:1056180008BD08B5FFF7F9FF4FF47A714FF47A72B5
:105628000023A0FB0101FAF7E3FD08BD08B54FF020
:105638001002EFF3118382F31188BFF36F8FFFF726
:10564800BAFF01210228D8BF0846FFF7C4FFFDF7BB
:0656580095FBECE7704732
:02565E00FFFF4C
:08566000CCABFF7F010000004C
:1056680000000000374C000874130220F5430008BE
:10567800741302200944000874130220134400081C
:1056880000000000374C000800000000374C0008FC
:1056980074130220AF43000874130220B9430008B2
:1056A80074130220C343000874130220CD4300087A
:1056B80074130220D743000800000000374C00088C
:1056C80000000000374C000800000000374C0008BC
:1056D80000000000374C000800000000374C0008AC
:1056E80000000000374C000800000000374C00089C
:1056F80000000000374C000800000000374C00088C
:1057080000000000374C000800000000374C00087B
:1057180000000000374C000874130220E143000821
:1057280000000000374C000800000000374C00085B
:1057380000000000374C000800000000374C00084B
:1057480000000000374C000800000000374C00083B
:1057580000000000374C000800000000374C00082B
:1057680000000000374C000800000000374C00081B
:1057780000000000374C000800000000374C00080B
:10578800341402208350000800000000374C000841
:1057980000000000374C000800000000374C0008EB
:1057A80074130220EB43000800000000374C000887
:1057B80074130220FF43000800000000374C000863
:1057C80000000000374C000800000000374C0008BB
:1057D80000000000374C000800000000374C0008AB
:1057E80000000000374C000800000000374C00089B
:1057F80000000000374C000800000000374C00088B
:1058080000000000374C000800000000374C00087A
:1058180000000000374C000800000000374C00086A
:1058280000000000374C000800000000374C00085A
:1058380000000000374C000800000000374C00084A
:1058480000000000374C000800000000374C00083A
:1058580000000000374C000800000000374C00082A
:1058680000000000374C000800000000374C00081A
:1058780000000000374C000800000000374C00080A
:1058880000000000374C000800000000374C0008FA
:1058980000000000374C000800000000374C0008EA
:1058A80000000000374C000800000000374C0008DA
:1058B80000000000374C000800000000374C0008CA
:1058C80000000000374C000800000000374C0008BA
:1058D80000000000374C000800000000374C0008AA
:1058E80000000000374C000800000000374C00089A
:1058F80000000000374C000800000000374C00088A
:1059080000000000374C000800000000374C000879
:1059180000000000374C000800000000374C000869
:1059280000000000374C000800000000374C000859
:1059380000000000374C000800000000374C000849
:1059480000000000374C0008741302201D440008B2
:1059580000000000374C000800000000374C000829
:1059680000000000374C000800000000374C000819
:1059780000000000374C000800000000374C000809
:1059880000000000374C000800000000374C0008F9
:1059980000000000374C000800000000374C0008E9
:1059A80000000000374C000800000000374C0008D9
:1059B80000000000374C000800000000374C0008C9
:1059C80000000000374C000800000000374C0008B9
:1059D800165D00083506000800000000165D000886
:1059E8002D07000800000000365D00082744000865
:1059F80000000000415D0008FD08000800000000EC
:105A0800C65D0008B110000800000000165D00081F
:105A1800552F0008000000007D7E0008692F00084F
:105A2800085C0008705D0008692F0008F85B000832
:105A3800837E0008692F0008E85B0008897E00085B
:105A4800692F0008D85B00088F7E0008692F0008BE
:105A5800C85B0008957E0008692F0008B85B00083D
:105A68009B7E0008692F0008A85B0008A17E00083B
:105A7800692F0008985B0008A77E0008692F0008B6
:105A8800885B0008AD7E0008692F0008785B000875
:105A9800B37E0008692F0008685B0008B97E00081B
:105AA800A53000083C5C0008BF7E0008613400088F
:105AB800605C0008175D0008613400084C5C000851
:0C5AC800165D0008693F000800000000A7
