:020000040800F2
:10000000B04A0020D5250008C35300087924000811
:10001000792400087924000879240008792400084C
:10002000792400087924000879240008F9200008C0
:100030007924000879240008A1200008E9180008A4
:10004000AD250008AD250008AD250008AD25000848
:10005000AD250008AD250008AD250008AD25000838
:10006000AD250008AD250008AD250008AD25000828
:10007000AD250008AD250008AD250008AD25000818
:10008000AD250008AD250008AD250008AD25000808
:10009000AD250008AD250008AD250008AD250008F8
:1000A000AD250008AD250008AD250008AD250008E8
:1000B000AD250008AD250008AD250008AD250008D8
:1000C000AD250008AD250008AD250008AD250008C8
:1000D000AD250008AD250008AD250008AD250008B8
:1000E000AD250008AD250008AD250008AD250008A8
:1000F000AD250008AD250008AD250008AD25000898
:10010000AD250008AD250008AD250008AD25000887
:10011000AD250008AD250008AD250008AD25000877
:10012000AD250008AD250008AD250008AD25000867
:10013000AD250008AD250008AD250008AD25000857
:10014000AD250008AD250008AD250008AD25000847
:10015000AD250008AD250008AD250008AD25000837
:10016000AD250008AD250008AD250008AD25000827
:10017000AD250008AD250008AD250008AD25000817
:08018000AD250008AD250008C3
:1001880053B94AB9002908BF00281CBF4FF0FF31F6
:100198004FF0FF3000F00CB8ADF1080C6DE904CE5B
:1001A80000F008F8DDF804E0DDE9022304B0704748
:1001B800704700BF2DE9F04F099F154604468E464B
:1001C8001E46002B40F0CC808A42B2FA82FC4CD901
:1001D800BCF1000F0BD0CCF1200801FA0CFE20FA7C
:1001E80008F802FA0CF548EA0E0E00FA0CF44FEA89
:1001F80015491FFA85F8BEFBF9FA210C09FB1AE329
:100208000AFB08FB41EA03439B452AD9EB180AF18C
:10021800FF3004D29B4502D9AAF102002B44A3EB7C
:100228000B03A4B2B3FBF9F209FB123302FB08F883
:1002380044EA0344A04516D92C1902F1FF3303D22E
:10024800A04501D9931E2C44A4EB080443EA0040BE
:1002580027B124FA0CF400233C607B603146BDE8EA
:10026800F08F5046DBE71346EEE702B9FFDEBCF13C
:10027800000F2ED18B1A01264FEA154EAAB2B3FBF6
:10028800FEF8210C0EFB183308FB02F941EA034380
:10029800994561D9EB1808F1FF3004D2994502D984
:1002A800A8F102002B44A3EB0903A4B2B3FBFEF1AF
:1002B8000EFB11334A4344EA0344A2424ED92C1997
:1002C80001F1FF3303D2A24201D98B1E2C44A41A98
:1002D800BCE7CCF1200E02FA0CF521FA0EF901FA6E
:1002E8000CF320FA0EFE4EEA03034FEA154800FA13
:1002F8000CF4B9FBF8F11FFA85FE08FB1192180CF3
:1003080001FB0EF640EA0242964221D9AA1801F1F1
:10031800FF3003D2964201D9881E2A44921B9BB211
:10032800B2FBF8F908FB192209FB0EFE43EA024367
:100338009E450FD9EB1809F1FF3604D29E4502D924
:10034800A9F102062B44A3EB0E0346EA004693E705
:100358000846E3E74E46F6E74046A4E70B46B6E70D
:100368008B4205D90FB1C7E900010026304675E771
:10037800B3FA83FCBCF1000F0FD18B4201D3824248
:1003880009D8841A61EB030E0120002F6AD0C7E94F
:10039800004E002662E76046F7E7CCF1200E03FA2C
:1003A8000CF322FA0EF521FA0EF41D4301FA0CF3B0
:1003B80020FA0EF10B434FEA154A00FA0CF6B4FB8B
:1003C800FAF91FFA85F80AFB19401C0C09FB08F119
:1003D80044EA0044A14202FA0CF23FD92C1909F16F
:1003E800FF3004D2A14202D9A9F102002C44641AB8
:1003F8009BB2B4FBFAF90AFB194409FB08F843EA73
:10040800044188452CD9691809F1FF3304D288457D
:1004180002D9A9F10203294443EA0040A1EB0801EB
:10042800A0FB02894945C2464C4602D306D146453F
:1004380004D2B8EB020A69EB0504013897B1B6EBB0
:100448000A0361EB040606FA0EFE23FA0CF34EEAE1
:10045800030326FA0CF6C7E900369AE74846C6E7CA
:100468004B46D9E73E46F9E62DE9F0474E488AB0B3
:1004780003F0AAF9044680B901234FF0000163F3A1
:1004880007014A4A4A4B4B489B1ADB0863F38F1112
:1004980004F05AFB0AB0BDE8F087436806A9DB6997
:1004A80098474FF41660BDF81880BDF81A9003F00D
:1004B80071FB054660B901234FF0000163F30701A2
:1004C8003A4A3B4B3C489B1ADB0863F38F11DFE742
:1004D8004FF41662002104F0DAFFBDF81830ADF8C9
:1004E80014304FF416624FF448770392B7FBF3F7D2
:1004F800ADF81030ADF812700026BDF81A30B342CE
:1005080023DC636820465B6898472C4B04930027DC
:100518002823ADF814303E464FF0FF0A4FF4166218
:100528000021284604F0B3FF3346B3F5166F15D300
:1005380007F00303022B29D0032B2FD0012B11D056
:10054800009503AB0022002112E0B2B2009503AB84
:100558000021204603F0DAFF3E44CEE705F803A069
:100568000333E2E7A8F12801009503AB002289B222
:100578000136204603F0CAFF032E4FF4FA7007F144
:10058800010728BF002605F05CFCC7E7A9F11402A3
:10059800A8F12801009503AB92B2E8E7A9F114028B
:1005A800009503AB92B2CEE7CA650008486300081D
:1005B80058630008D2650008F36500082800140095
:1005C8000B6801330B60014B1B68184790580020DB
:1005D8002DE9F04F85B09B460E9CDFF88890012CE2
:1005E800B8BF0124012B0CBF3023202316468246B6
:1005F8008846029301250A270022B6FBF9F30193E6
:100608000AB9B1451DD8019B414603F13000D047D6
:1006180001350122019B013F012F09FB13664FF0B1
:100628000A03B9FBF3F9E8D1414606F13000D04797
:10063800BBF1030F02D1641B002C0EDC05B0BDE832
:10064800F08FBC42E6DBBBF1020FE3D841460298CB
:1006580003920135D047039ADCE741462020D04772
:10066800013CE9E700CA9A3B014B1860704700BF9C
:100678009058002007B50023019302460B46034813
:1006880001A904F0C9F803B05DF804FBC905000826
:100698004FF01002EFF3118382F31188BFF36F8FCD
:1006A80083F31188BFF36F8F024B034A1A6000204F
:1006B800704700BFAC58002000093D0007B5002274
:1006C80001A90848019203F099F910B100F044FA21
:1006D8000190019818B1012343600023038103B0FE
:1006E8005DF804FBA800002030B50C4D0C4987B01C
:1006F80000240E23CDE902434FF44072094BCDE9A3
:100708000444CDE90044284603F09AFD06492846EA
:1007180005F0B6FB204607B030BD00BF380000200A
:10072800B0430020E10A00083666000808B500F06A
:1007380009FA094804F0EEF9042328220748084971
:1007480005F0AAFA074B084A1A604FF47A70BDE818
:10075800084000F017BC00BF140000201C00002057
:10076800F053002094580020494B0008F8B50F4B6F
:10077800BFF35B8F002553E8007F43E80052002A4F
:10078800F9D1BFF35B8F0A4C0A4E361B3611B542BE
:1007980000DBF8BD63685B792BB12368DB6813B1B4
:1007A80039462046984701351034F0E70C00002000
:1007B8007863000888630008064BBFF35B8F53E833
:1007C800002F013243E800210029F8D1BFF35B8FE5
:1007D800704700BF0C000020044A054B9B1AB1EB80
:1007E800D30F34BF52F83100002070474863000827
:1007F80078630008064B4268C31A1B110133137152
:100808004268012311605371024A1370704700BF98
:1008180078630008AC43002070B5114BBFF35B8FC1
:1008280053E8005F6A1C43E800210029F8D1BFF3B0
:100838005B8F2DB90B4C0C4E361B3611B54200DBC5
:1008480070BD237B43B123685B6903B198470422D9
:1008580000212046FFF7CEFF01351034EEE700BF38
:1008680010000020786300088863000848B1054B31
:10087800984205D3A03398422CBF0020012070472E
:1008880000207047F05300202DE9F84F534B1B7898
:10089800044603B960B34FF01003EFF3118683F3F6
:1008A8001188BFF36F8F4E4804F044F9054686F36C
:1008B8001188BFF36F8F78B1BFF35B8F494B53E853
:1008C800002F013A43E800210029F8D1BFF35B8FDC
:1008D8008CB1284604F016FA24B9434B1B680BB1B7
:1008E800FFF744FF3E4804F023F9041C18BF012415
:1008F8002046BDE8F88F3D4B1B78DBB92B7ADB0728
:1009080018D404F012FA8146284604F0DBF926468A
:100918002246CC4623464FF0010E1CF8011B09B1B4
:1009280098420ED8324B334ADFF8E0B09B1AC3F333
:10093800C90AD6B9304E314FBF1B3F114FF00008DE
:1009480048E0252902D182F00102E6E7002AE4D036
:1009580041F02007613F192FDFD8732904BF0EFA31
:1009680003F2164301330022D7E7B6FA86F7C7F138
:100978001F073946284604F0A8F9214B9842024639
:1009880002D3204B984214D31046FFF76FFF80B96B
:100998001D4B9A420DD028F03F0343F0010363F347
:1009A80007086AF38F1843464A463946584604F002
:1009B800ECF8012303FA07F726EA0706B9E7736894
:1009C8005B7923B1336829461B683046984708F19C
:1009D80001081036B845F2DB7BE700BFAC430020C6
:1009E80014000020080000200C000020AD43002067
:1009F80050630008486300087863000888630008AB
:100A0800B05F0008C46F0008746600083E660008FE
:100A18001A4B70B51B68418105469847184CE86029
:100A2800BFF35B8F54E8003F013344E80032002AEB
:100A3800F8D1BFF35B8F4FF01003EFF3118683F308
:100A48001188BFF36F8F0F48294604F067F886F3C3
:100A58001188BFF36F8F0C4B1B7823B10020BDE8C2
:100A68007040FFF711BF23680A2B06D1074B18689F
:100A780018B1BDE8704003F003BB70BD9458002066
:100A88000800002014000020AD430020A40000202E
:100A9800F8B50E4F3D7875B90D4C0E4EFFF7BCFEFC
:100AA800361B3611B54207DB0020FFF7EDFE0028A4
:100AB800FAD101233B70F8BD63685B791BB12368E9
:100AC80020461B69984701351034EBE7AD430020F9
:100AD800786300088863000808B5FFF79DFE03F0F7
:100AE800F5FA094A106028B1084B1B68092B01DD8B
:100AF80003F0C6FA0020FFF7C7FE0028FAD14FF42A
:100B08007A7005F09EF9F5E7A4000020080000209F
:100B180007B504380190BFF35B8F50E8003F5A1EB9
:100B280040E800210029F8D1BFF35B8F012B03D1E6
:100B380001A9034802F08EFF03B05DF804FB00BF73
:100B48001C00002020231A460149024805F0A4B8D9
:100B580090540020A800002037B50023094D0193C8
:100B68000120FFF791FE0446FFF726FE002201A9A7
:100B7800284602F043FF08B1002CF1D1019803B0D8
:100B880030BD00BFA800002007B5002201A9064813
:100B9800019202F033FF10B1FFF7DEFF01900198D8
:100BA80003B05DF804FB00BFA80000207FB5047AFD
:100BB800457A019014F001044FEA15150ED0019BF7
:100BC8001A7A920704D55B69104C0393039BB3B957
:100BD80001A90E4802F03EFF04B070BD002DEED012
:100BE800A5420198EBD9214604F06FF80646FFF7B5
:100BF8003DFE10B13046FFF78BFF0134F0E71D686A
:100C080003A9204602F026FF0395DFE7A80000208D
:100C18000EB403B503AB014653F8042B0448019303
:100C280003F0FAFD002002B05DF804EB03B0704752
:100C3800DB5000082DE9F04F85B011F0020406469C
:100C480090469DF8387001F0010901F0080507D0B9
:100C580011F0440F37D11A463249FFF7D9FF04463D
:100C6800B9F1000F0AD0304B304953F82720304BE8
:100C78003046002A08BF1A46FFF7CAFF3DB12D4B80
:100C88002D4953F827203046FFF7C2FF0546B8F133
:100C9800000F44D0012303FA07F7284B17F0100F71
:100CA800274F18BF1F46BDF840109DF83C00FFF7BE
:100CB80093FD394602463046FFF7AAFF28442044F0
:100CC80005B0BDE8F08F1F4A116831B31E4A4FF4D2
:100CD800616E1468B3FBF4F34FF47A7CB3FBF1F460
:100CE800B4FBFEF20EFB124E01FB14340CFB04F4B1
:100CF8004FF03C0AB4FBF1FB01FB1B44BEFBFAF3CB
:100D08000CFB04F4B4FBF1F1CDE901B10AFB13E1EA
:100D180000910E49FFF77CFFA1E708469FE7084FBF
:100D2800C1E700BFDC660008DC6300080167000853
:100D3800CE660008F063000804670008D86600085B
:100D4800D3660008C4000020C8000020E56600083B
:100D58002DE9F8439846089B1746DA0604460E46DE
:100D680005D49B064CBF21492149FFF751FFDFF805
:100D780088900025454528DBDFF88080DFF88090E3
:100D88000025AF4227D9725D49462046FFF740FF4C
:100D98000135082DF5D11749DFF85C80DFF864903C
:100DA8002046FFF735FF0025AF4219D9725DA2F141
:100DB80020035F2B28BF2E2249462046FFF728FF35
:100DC8000135082DF0D1BDE8F88349462046FFF7E4
:100DD8001FFF0135CEE741462046FFF719FFD7E749
:100DE80041462046FFF714FFEAE700BF9366000874
:100DF800926600089F6600089D6600089B660008CA
:100E080095660008A166000838B50C46E107054656
:100E180003D5084A0849FFF7FBFEE20608D4A306F3
:100E280028464CBF05490649BDE83840FFF7F0BEE3
:100E380038BD00BFCE660008016700089366000849
:100E4800926600082DE9F0478B7A13F007041746DD
:100E580088B005460E460A7A1CD04989C3F3C203F6
:100E68008909D2430291CDE9004302F00102F368F7
:100E78003946FFF7DFFE8146337ADA070CD4294674
:100E8800304603F0BCFF4CB3224639462846FFF7EC
:100E9800BBFF23E0A146EFE734BB2746EB68069388
:100EA80006AA3B46A968304603F095FF069A6B6888
:100EB8001A603AB1AB68134413F8014CA4F10A0361
:100EC8005C425C41284604F0F7F8069B1F44002B5F
:100ED800E4D11CB114492846FFF79AFE284604F0CD
:100EE800EBF808B0BDE8F087304603F01EFF0F4965
:100EF80002462846FFF78CFE4FF000084FF0080A1C
:100F080005AA434606A93046CDF814A003F063FFAE
:100F1800059A002AB8D04B46009706A92846FFF73D
:100F280017FF059B9844EBE7A466000801670008D3
:100F380073B5D0E900435D680F4A42F20F738B42E4
:100F480028BF0B466846052102F02AF82B460646BC
:100F58000B222046094903F045FF2B4632466946D5
:100F6800204603F03FFF2B461B220549204603F08D
:100F780039FF02B070BD00BFF26E0008C2660008FB
:100F8800A6660008084A10B50123084C1360002122
:100F9800A04204D801B11360054B186010BD400889
:100FA8005B000121F4E700BFC800002040420F00A9
:100FB800C400002008B5034802F006FC024B586044
:100FC80008BD00BF2A670008D4000020014804F0CB
:100FD80073B800BF1C6400080148FFF7A9BF00BF31
:100FE8001C64000810B508460C4603F05EFE214656
:100FF80004480F22FFF726FF2046BDE8104003F003
:1010080081BE00BF1C6400080A2838B50446074D95
:1010180004D1286843680D215B68984728684368AD
:10102800E1B25B689847204638BD00BFE000002069
:1010380010B5044C204601F0ADFF2046BDE8104035
:10104800FFF712BB1110000808B5044802F0BCFBFA
:10105800034B1860FFF7ECFF002008BD2A67000863
:10106800E00000202DE9F84395680D4E04460F4630
:101078004FF0010805F10409BC4201DBBDE8F88323
:10108800726908FA04F333EA020207D1736155F86A
:1010980034301BB159F83410204698470134EBE737
:1010A800000401401F2808B502DD6FF0220008BDCA
:1010B800064A0123116883400B4310281360F4DCAF
:1010C800034B185601F076F90020F0E700040140C0
:1010D80042670008CA0710B507D51F2805DC084B6A
:1010E80001229C68824022439A608B0707D51F28FB
:1010F80005DC034A0123D16883400B43D36010BD4C
:1011080000040140074930B58C6854F8301004EBEE
:10111800C00521B944F830206B60084630BD6FF037
:101128000F00FBE7545900200B6886B0042B38D811
:10113800DFE803F0030F192D23001B4A4B68916C5D
:1011480019439164926C13400193019B002006B0EF
:101158007047154A4B68D16C1943D164D26C13405F
:101168000293029BF2E7104A4B68916D194391650F
:10117800926D13400393039BE8E70B4A4B68D16DCC
:101188001943D165D26D13400493049BDEE7064AE8
:101198004B68116E19431166126E13400593059B37
:1011A800D4E76FF02200D2E7001002400B68042B4E
:1011B80028D8DFE803F0030B12201900134A496806
:1011C800936C23EA01039364002070470F4A49682F
:1011D800D36C23EA0103D364F6E70C4A4968936D9C
:1011E80023EA01039365EFE7084A4968D36D23EAC8
:1011F8000103D365E8E7054A4968136E23EA01034A
:101208001366E1E76FF02200704700BF001002404C
:101218000B68042B9FBF044B1B681360002088BF1A
:101228006FF02200704700BFAC58002010B586B0A0
:1012380000231D4C0293CDE9003303F0BCFF03A843
:1012480003F0B1FF23685A0506D4236843F480737A
:10125800236023685B05FCD5A36823F0030343F0F0
:101268000103A360A36823F0F003A360A36803F05D
:101278000C03042BFAD1236823F080732360E368FE
:1012880023F4C00343F48003E360694603A800F035
:101298009FFE236823F4803323602368002023F013
:1012A8000103236006B010BD0010024008B54FF0DE
:1012B80000010123064A074863F30701064B9B1AFE
:1012C800DB0863F38F1103F03FFC6FF0220008BDC9
:1012D800486300084D6900084863000808B54FF0E6
:1012E80000010223064A074863F30701064B9B1ACD
:1012F800DB0863F38F1103F027FC6FF0220008BDB1
:10130800486300082E6900084863000808B54FF0D4
:1013180000010123064A074863F30701064B9B1A9D
:10132800DB0863F38F1103F00FFC002008BD00BF3A
:1013380048630008FB6700084863000808B54FF0D9
:1013480000010123064A074863F30701064B9B1A6D
:10135800DB0863F38F1103F0F7FB6FF0220008BD81
:1013680048630008186900084863000810B50C466F
:1013780010220021204604F08AF8034A0123C4E918
:101388000023A38110BD00BF4001F00008B581B162
:1013980001234FF0000163F30701074A074B084890
:1013A8009B1ADB0863F38F1103F0CEFB6FF022006A
:1013B80008BD0846FCE700BF48630008486300080A
:1013C80068690008012908B510D001234FF0000111
:1013D80063F30701064A074B07489B1ADB0863F3C8
:1013E8008F1103F0B1FB6FF0220008BD0020FCE76D
:1013F800486300084863000895690008F8B54FF08D
:101408000002042363F30702494E4A4B85684A49A0
:101418004A48F61AC6F3C90666F38F1203F0A1FB11
:10142800474802F0D1F9A86060B94FF000010123E4
:1014380063F30701434866F38F1103F085FB4FF010
:10144800FF30F8BD404A41484FF480730024C5E995
:1014580003236C6102F0B8F9286040B94FF000012D
:10146800012363F3070166F38F113948E5E7436801
:1014780009221F6821460123B847344802F0A4F91D
:10148800686040B94FF00001012363F3070166F378
:101498008F113048D1E7436808221F68214601238D
:1014A800B84704234FF0000263F3070266F38F1274
:1014B8002149294803F055FB01220921286803F036
:1014C8007BFE012004F0BDFC22460921286803F0B8
:1014D80073FE012004F0B5FC01220921286803F0FD
:1014E8006BFE052004F0ADFC04234FF0000263F30B
:1014F800070266F38F121049184803F032FB28469A
:1015080000F0FAF804234FF0000263F3070266F3D1
:101518008F120949124803F024FB23462246112161
:10152800284603F052FE782004F08BFC204688E71A
:1015380048630008486300086667000823680008D5
:1015480043680008496800089B31E7006E68000896
:10155800746800089E680008CF680008EC680008F6
:10156800016900082DE9F04F1C4615464FF00003AD
:1015780004220E4662F3070339493A4A87683A4813
:10158800521A89B0D20862F38F13384A0392A2889C
:101598000492E288DDF848800795CDE9052603A97D
:1015A800052203F025FBA388B4F8069072BA013E21
:1015B8001E44ADF80C2076BA042303AA2A21384623
:1015C800ADF80E6003F001FE6BBA013D4D44ADF875
:1015D8000C306DBA042303AA2B213846ADF80E50FF
:1015E80003F0F3FDA3882289E6889A4284BFB146B6
:1015F800012606FB03F303EB430342464FF02C019D
:10160800384698BF4FF0010903F0DFFD258901AB8B
:10161800039305EB45050123454404934FF0000867
:1016280007F10C0A08F101081FFA88F3994503D855
:10163800002009B0BDE8F08FA388B868019573430E
:1016480003EB43030293436803AAD3F800B051465F
:101658000023D847238903EB43031D44E2E700BF77
:101668004863000848630008B96900087367000800
:1016780004234FF0000263F307020A490A4B10B52E
:101688005B1ADB0884680949094863F38F1203F081
:1016980068FA002320461A46292103F096FD002007
:1016A80010BD00BF48630008486300088167000850
:1016B800BA67000804234FF0000263F307020A49DF
:1016C8000A4B10B55B1ADB0884680949094863F3BB
:1016D8008F1203F046FA002320461A46282103F009
:1016E80074FD002010BD00BF48630008486300086F
:1016F8009E670008DB6700081FB523238DF80030BC
:101708006A460123C021044603F05FFD10238DF8CB
:1017180000306A4620460123C12103F056FD42F6F7
:101728003E03ADF800306A4620460223C52103F087
:101738004CFD86238DF800306A4620460123C721D8
:1017480003F043FD28238DF800306A462046012324
:10175800362103F03AFD66238DF800306A462046AC
:1017680001233A2103F031FD4FF4C053ADF80030A6
:101778006A4620460223B12103F027FD48F20823D8
:10178800ADF8003027238DF802306A46204603233F
:10179800B62103F01AFD01236A46204626218DF85A
:1017A800003003F012FD134A134BCDE90023134B0D
:1017B800029340F60E13ADF80C3000238DF80E306E
:1017C8006A4620460F23E02103F0FFFC0C490D4B2D
:1017D800CDE900130C4B029343F23163ADF80C30A2
:1017E8006A460F23E12120468DF80E3003F0EDFC08
:1017F80004B010BD0F312B0C0E084EF13707100343
:10180800000E1403110731C148080F0C73B50446C4
:1018180006090D46104612B9104801F0D5FF0123FC
:1018280000930F4B53F826300193013302D16FF028
:10183800040010E0436869461B6898470028F6D101
:101848002011800205F00F032A4604F00F0100F171
:10185800904003F065FF02B070BD00BF5D670008EF
:1018680054640008F8B5044609480E4601F0ACFF78
:1018780000250746B54204F1080400D1F8BD3A46F0
:1018880054F8041C14F8080CFFF7C0FF0135F1E701
:101898005D6700080F4B30B51A6899681D680E4BD4
:1018A8001C680E4B12F48032186818BF224621F0CB
:1018B8007F41024408291A6007D915F4803F1A6845
:1018C80014BF2046002002441A6018682044401AB9
:1018D80030BD00BF10E000E0840100208801002036
:1018E80008B50D4A0D4B1268186810440C4A186068
:1018F80011680C4B401AB0FBF3F003FB00131360A4
:10190800094B1A68094B1A6000221A6002F08AFD16
:10191800BDE8084000F08CBB840100208001002055
:101928007C01002000350C0010E000E08801002058
:10193800084B102283F82320074B084A1A60084BEB
:1019480000201860074B5A6098601A6842F0070236
:101958001A60704700ED00E084010020FF340C009D
:101968008801002010E000E070B5214C51B1431C03
:1019780008D1204A136823F0010313604FF07F4316
:10198800236070BD013813282CDC00282CDD1A4E8A
:1019980046434FF01003EFF3118583F31188BFF32B
:1019A8006F8FFFF777FF154B13491A6810441860BB
:1019B800134B1A68C2F5432303F2FF43334403442D
:1019C800101AB3FBF1F301FB03000E4B2060002259
:1019D8001A60084B013858609A6085F31188BFF384
:1019E8006F8FCEE71320D2E74CF25036D1E700BF15
:1019F8008401002010E000E000350C008001002088
:101A08007C0100208801002010B54FF01003EFF38F
:101A1800118483F31188BFF36F8FFFF73BFF074BE8
:101A2800074A1B6812689B1A184484F31188BFF38D
:101A38006F8F044BB0FBF3F010BD00BF8001002096
:101A48007C01002000350C0010B54FF01003EFF3B7
:101A5800118483F31188BFF36F8FFFF71BFF044BCB
:101A68001B68184484F31188BFF36F8F10BD00BF43
:101A780080010020036A23F001030362036A70B542
:101A8800446882690D6822F4803222F073022A4386
:101A98008D6823F002032B431B4DA8420FD005F598
:101AA8000065A8420BD005F54065A84207D005F5AA
:101AB8008065A84203D005F58065A8421ED1CD688F
:101AC80023F008032B43104DA84223F004030FD042
:101AD80005F50065A8420BD005F54065A84207D07A
:101AE80005F58065A84203D005F58065A84205D1B3
:101AF80024F44075D1E9054634432C43446082619F
:101B08004A684263036270BD002C0140036A23F4F3
:101B180080730362036A70B54468C2690D6822F471
:101B2800803222F073022A438D6823F4007343EA5B
:101B38000523164DA84203D005F50065A8420DD12E
:101B4800CD6823F4006343EA0523104DA84223F42B
:101B580080630ED005F50065A8420AD00C4DA84256
:101B680007D005F58065A84203D005F58065A84231
:101B780006D124F44055D1E90546344345EA041416
:101B88004460C2614A68C263036270BD002C0140B0
:101B980000400140036A23F480530362036A30B5AE
:101BA8004468C2690D6822F0807222F4E64242EA73
:101BB80005228D6823F4005343EA05330E4DA842ED
:101BC8000FD005F50065A8420BD005F54065A84281
:101BD80007D005F58065A84203D005F58065A842C1
:101BE80004D14D6924F4804444EA85144460C261F8
:101BF8004A680264036230BD002C0140036A23F482
:101C080080330362036A30B54468426D0D6822F47C
:101C1800803222F070022A438D6823F4003343EAAD
:101C280005430F4DA8420FD005F50065A8420BD01B
:101C380005F54065A84207D005F58065A84203D0A0
:101C480005F58065A84204D14D6924F4803444EA3E
:101C58000524446042654A688265036230BD00BF5E
:101C6800002C0140036A23F480130362036A30B531
:101C78004468426D0D6822F0807222F4E04242EA24
:101C880005228D6823F4001343EA05530E4DA8423C
:101C98000FD005F50065A8420BD005F54065A842B0
:101CA80007D005F58065A84203D005F58065A842F0
:101CB80004D14D6924F4802444EA852444604265B3
:101CC8004A68C265036230BD002C0140304A03688F
:101CD800904212D0B0F1804F0FD0A2F594329042CA
:101CE8000BD002F58062904207D002F580629042E4
:101CF80003D002F59432904219D14A6823F0700358
:101D08001343234A90421DD0B0F1804F1AD0A2F558
:101D18009432904216D002F58062904212D002F5B9
:101D2800806290420ED002F5943290420AD0194A4D
:101D3800904207D002F58062904203D002F580629B
:101D4800904203D1CA6823F4407313434A6923F0CD
:101D58008003134303608B68C3620B6883620C4B78
:101D680098420FD003F5006398420BD003F5406307
:101D7800984207D003F58063984203D003F5806347
:101D8800984201D10B69036301234361704700BF87
:101D9800002C014000400140036A23F01003036255
:101DA800036A70B5446882690D6822F0807222F473
:101DB800E64242EA05228D6823F0200343EA051330
:101DC800164DA84203D005F50065A8420DD1CD688F
:101DD80023F0800343EA0513104DA84223F0400383
:101DE8000ED005F50065A8420AD00D4DA84207D0CF
:101DF80005F58065A84203D005F58065A84206D19F
:101E080024F44065D1E90546344345EA8404446036
:101E180082614A688263036270BD00BF002C014082
:101E28000040014010B504460122006803F09FFA03
:101E38002368124A93420FD002F5006293420BD0F6
:101E480002F54062934207D002F58062934203D0C4
:101E580002F58062934203D15A6C42F400425A64FC
:101E68009968074A0A40062A06D0B2F5803F1EBF85
:101E78001A6842F001021A60002010BD002C0140CF
:101E880007000100084B19681A681B6801F0007107
:101E980002F000620A4314BF0120002013F0005F23
:101EA80018BF0120704700BF00100240174B1B6885
:101EB80003F4C063B3F5007F1AD1154B98421FD8BD
:101EC800144B98421ED8144B98421DD8134B984275
:101ED80094BF00200120124A136823F0070303432C
:101EE8001360136803F00703181A18BF012070471E
:101EF8000C4B984206D80C4B984205D80B4BE6E79A
:101F08000420E8E70320E6E70220E4E70070004049
:101F18000090D003006CDC020048E8010024F400C3
:101F28000020024080A81201001BB700808D5B00D2
:101F380038B50B68234A244DC3F30313D45C2B68CC
:101F480020FA04F4A34228D3204B1A6842F0807286
:101F58001A60DA6842F08072DA601A689201FCD579
:101F68009A68086822F0F00202439A609A6842F080
:101F780003029A609A6802F00C020C2AFAD19A6855
:101F8800486822F4E06202439A609A68896822F4F9
:101F980060520A439A60002005E074B12046FFF7BA
:101FA80085FF0028D0D02B68A34203D93CB1204636
:101FB800FFF77CFF00B92C6038BD0120F3E7012052
:101FC800FAE700BFF9690008AC5800200010024089
:101FD80070B505460C46FFF755FF00BB294611486A
:101FE80003F0D5F9104A1368590506D4136843F469
:101FF8008073136013685B05FCD5D6680B4B696862
:10200800334043EA012329680B43A9680B4343F093
:1020180002032146D360BDE87040FFF789BF012065
:1020280070BD00BF0024F400001002408C80FFF94E
:1020380004488168006A884203D003494FF08052FF
:102048000A6070477043002004ED00E00448002354
:102058001021C2180133522B82F80013F9D17047AE
:1020680000E100E0094A0A49936809689966094944
:1020780058664B6843F080534B60002383F3118804
:10208800BFF36F8F9368986E704700BF704300204E
:10209800BC65000800ED00E013498A684FF028008D
:1020A8001044EFF3098C80E8F01F102080F31188AA
:1020B800BFF36F8F0D4F4FF000660A6A8A603E606B
:1020C800506E0023536680F3118804B50648806873
:1020D80003F07AF9BDE8044002F1280090E8F01F07
:1020E8008CF30988704700007043002004ED00E07D
:1020F8001EF0040F0CBFEFF30880EFF3098081692D
:1021080031F8021C11F0FF010229FFD001B503F0DC
:1021180050F901BD38B51C4C05461C4802F0ECFCD2
:10212800A26AD10602D51A4802F0E6FCA36A1A0789
:1021380002D5184802F0E0FC134CA36A9B070ED5A1
:10214800154802F0D9FC616BA36A180607D5134835
:1021580002F0D2FC1DB1A36A23F08003A3620A4CEB
:10216800A26AD20702D50E4802F0C6FCA36A9B06F3
:1021780002D50C4802F0C0FC034B9A6A9A6A42F0F6
:10218800FF029A62002038BD00ED00E0976A00085F
:10219800AE6A0008E26A0008F66A00080F6B0008D9
:1021A800266B0008466B000838B51E4C05461E48CD
:1021B80002F0A2FCA26AD10402D51C4802F09CFCE1
:1021C800A36A1A0502D51A4802F096FC154CA36AB0
:1021D8009B050ED5174802F08FFCA16BA36A180463
:1021E80007D5154802F088FC1DB1A36A23F4004303
:1021F800A3620C4CA36A590502D5104802F07CFC76
:10220800A36ADA0509D50E4802F076FC054A936AF6
:1022180043F47F439362002038BDA36A9B04F5D53D
:102228000848F1E700ED00E0096A0008206A0008A4
:10223800E26A0008326A00084C6A0008626A00080C
:102248007E6A0008466B000810B5194C194802F060
:1022580053FCA26A930102D5174802F04DFCA36A09
:10226800DC0102D5154802F047FC114CA26A1003A4
:1022780002D5134802F040FCA36A590302D511485D
:1022880002F03AFC0A4CA26A920302D50E4802F008
:1022980033FCA36ADB0302D50C4802F02DFC044A88
:1022A800936A6FEA03436FEA13439362002010BDF9
:1022B80000ED00E0766B00088F6B0008A36B000848
:1022C800BE6B0008DD6B0008036C00081E6C00087C
:1022D800F8B5294D6E68C6F308040746FEF7D8FB23
:1022E800E31E092B3BD8DFE803F0053436293A3AD8
:1022F8003A3A3A38214802F0FFFBEC6A14F002043B
:1023080004D01F4802F0F8FB00241CE0EB6A5B00D5
:1023180019D51C4802F0F0FB1B4B1B781BB10120A0
:10232800FFF7F8FE0CE0194B1B781BB10120FFF7F3
:102338003BFF05E0164B1B889BB223B1FFF784FFD8
:102348000628044617D039462046BDE8F84000F074
:10235800A3B80020E4E70020E9E70E48D2E70E4BD7
:102368000E490F4816F4F87FA4F1100218BF194659
:1023780002F0C2FBC8E7F8BD00ED00E0786C000889
:10238800906C0008B26C000828ED00E029ED00E030
:102398002AED00E0D26C00085F6C00084A6C000867
:1023A800096D0008024A536943F0100353617047EE
:1023B80000ED00E043B2002B08DB012200F01F0013
:1023C80002FA00F05B09024A42F82300704700BF96
:1023D80000E100E043B2002BA8BF03F1604301F124
:1023E80001014FEA0111AEBF03F5614300F00F0090
:1023F800034BC9B2ACBF83F800131954704700BF30
:1024080014ED00E02DE9F0418C18884617461E4669
:1024180004220A9B0999054603F054FDA4F1200300
:102428000C4923F00703002221F00101C5E913221A
:10243800C5E91687996106995960079999600899BD
:10244800D9604FF080711E60D961AB646A66BDE8DF
:10245800F08100BFED470008014910220A6070476B
:1024680010ED00E0404080F3118830BF704700BF96
:10247800404080F31188DFF81CC0DCF800C01CF471
:10248800006C0CBFEFF30880EFF3098001B5FFF78C
:102498001FFF01BD04ED00E038B504460D46FEF708
:1024A800F7FA052C1AD8DFE804F0031919131517E1
:1024B8000D4802F021FB01F009FEAA6901460B480C
:1024C80002F01AFB29462046BDE8384000F018B84B
:1024D8000748EEE70748ECE70748EAE721460748D8
:1024E80002F00AFBE7E700BF1D6D0008BB6D00089E
:1024F8003D6D0008636D00087D6D0008986D00084B
:10250800052810B50CD001F031FE60B101F02EFEA7
:102518000C490D4B002808BF19460C4802F0ECFA8C
:10252800FFF7A0FFFCE701F031FE0028EED1084CD0
:102538000848A16802F0E0FAA068BDE8104000F081
:102548000BB800BFF76D0008FB6D00080C6E0008A3
:10255800704300202C6E000838B505464FF0100374
:10256800EFF3118483F31188BFF36F8F03F08BFCB3
:102578000A4B9B68AB420BD1094B5A68C2F308025D
:1025880012B92046FFF76EFD5A6842F080525A6031
:102598002046BDE8384003F0D6BB00BF704300209A
:1025A80000ED00E001B5EFF30580A0F110004FEA5F
:1025B800C0000449014409C99847BDE801400248E0
:1025C80000470000B05F000839200008102080F3A1
:1025D800118808484FF40061401880F30988EFF328
:1025E80014800221084380F31488BFF36F8F00F032
:1025F80007F80000F04B002030BFFFF7FDBF00BF19
:1026080008B5084B084A23F07F039360BFF34F8F48
:10261800BFF36F8F01F0FEF801F006F9FFF716FD22
:1026280001F034F90000000800ED00E01FB5084B88
:102638000193084B0293084B039301AB0093074A9D
:10264800074B0121684600F0B5F805B05DF804FBBA
:10265800000000200000000000000B060000002021
:1026680000800120F8B52E4F0E460021B14222DA33
:1026780050F821C0DCF80440002C4FD0EBB104F135
:10268800FF3E14EA0E0F06D11F2C04D9DCF80050C7
:102698001EEA050F11D001234FF0000263F3070271
:1026A8002048214B1B1ADB08204863F38F1202F0E5
:1026B80058FA6FF015021046F8BD202CD5B2DCF898
:1026C8000020DCF808C01AD9B4F1004F19D8013C31
:1026D800B4FA84F4C4F11F046400072D4CEA04041E
:1026E80011D901234FF0000263F307020D490E4B85
:1026F8000F485B1ADB0863F38F122946D7E70824D3
:10270800EBE73E24E9E722F01F022A4342F01002D9
:1027180044F00104BD60FA603C616A1C0131A5E720
:1027280090ED00E04863000860630008556E0008FB
:10273800786E0008034B05225A60BFF34F8FBFF332
:102748006F8F704790ED00E0BFF35F8F014B002261
:102758005A60704790ED00E013490868082810B5E2
:102768001ED8FFF7F1FF114C49680022904201F191
:102778000C0105D10E4B1870FFF7DCFF002010BDCF
:10278800A26051F80C3C23F01F03134343F01003DD
:10279800E36051F8043C43F0010323610132E5E7AB
:1027A8004FF0FF30EBE700BFB063000890ED00E0AA
:1027B800AF43002010B5034C01232278FFF752FFE6
:1027C800207010BDAF43002008B5084A00231278D6
:1027D800FFF748FF10F1160F03D0054B002207281A
:1027E80000DD08BD98601A610130F8E7AF430020AA
:1027F80090ED00E02DE9F04FCFB0CDE90E011E4677
:102808000023934603935D4615F8010B48B125282C
:102818007ED0DDE90E319847013006D14FF0FF3305
:10282800039303984FB0BDE8F08F039B01960133E3
:102838000393AB46019EE6E7232C61D056D8002CC3
:10284800EFD0202C079B08BF012307935D46AB46BA
:10285800BC481BF8014B214602F0BEFD0028EBD115
:102868002A2C5DD156F8043B0293002BBEBF5B4275
:10287800029301239BF80040B8BF0D9305F1020BAA
:10288800029BC92B28BFC82302932E2C6DD19BF81D
:1028980000302A2B66D156F8045B0BF1010B5B461E
:1028A800C92D13F8014BA8BF4FF0FF359B462146B1
:1028B800A54802F091FD28B15B46204613F8012B8C
:1028C8009B461446672C00F38780652C80F2E780CE
:1028D800472C4DDC452C80F2E280002CA1D0252C21
:1028E80000F02483C82C40F32B8397E72D2C0AD0C3
:1028F800302C0BD02B2C0C9B08BF01230C93A5E785
:102908004FF00109A2E701230D939FE706949DE785
:1029180000232021CDE90613CDE90C33994696E72B
:10292800A4F13003092B0290AFD80A22AB461BF85A
:10293800010BA0F13003092B0446A1D8029B02FB2E
:102948000300A0F1300302935D46EFE700FB053575
:10295800303D93465A4612F8013BA3F1300109294C
:10296800F4D99CE700250A20F4E74FF0FF359EE7ED
:10297800632C78D03BDC582CB4D1331D6F2C0193D9
:10298800316840F0A082B9F1000F00F08D82302349
:102998008DF86C30002940F093820135069B8DF844
:1029A8006D1018BF20230F460693029B4B4540F33A
:1029B800ED820D9B1BAC002B00F0C4822023029AF1
:1029C80004F8093009F101094A45F8D1DDE9023274
:1029D80013441BAC1D46D5E2702C00F0468227DC60
:1029E8006E2C00F03382C8DC692C7FF47BAF34682E
:1029F800331D002C019343DA2D238DF86C3061428E
:102A08000DF16D0A2B460A22504602F062FD0C9B1E
:102A1800079A504453EA02070DF16C0AA0EB0A002A
:102A280000D1E70F0135069B18BF202306937DE0F0
:102A3800752CA2D0782CA0D0732C7FF453AF3346DA
:102A48004FF0000953F8041B019311F80930002BCB
:102A580000F01C8209F10109B9F1C80FF5D1002D68
:102A680080F216821BE232464FF0010952F8043B0D
:102A78008DF86C30002301928DF86D30002794E7B3
:102A88000C9B23B12B238DF86C302146B8E7079BAC
:102A98000BB12023F7E721460DF16C0AB2E70736A0
:102AA80026F007063346716853F8080B0193CB02EA
:102AB80043EA5053C20223F0004308920993DDE928
:102AC8000823C1F30A58CDE916230B4640F2FF71DB
:102AD8008845024645D10028DDE9081273F1000354
:102AE800BBBF2D238DF86C301BAB0DF16D030A4372
:102AF800A4F1410403F1030028D1192C1BD8492261
:102B08001A704E225A7046229A700DF16C0A0022F1
:102B1800DA70A0EB0A000C9B079A53EA020705D16A
:102B28009DF86C70A7F12D035F425F41C8283FF7FD
:102B380075AE814639E769221A706E225A7066228C
:102B4800E2E700BF9E6E0008A46E0008192C99BF2A
:102B58004E2241216E22612194BF1A701A70597059
:102B6800D2E70899099E48EA010140461091C11729
:102B780031431191DDE91001462C08BF6624014359
:102B880040D00898002A46F0004173F10003A8F2EB
:102B9800FE38CDE9160137DA2D238DF86C300DF1AA
:102BA8006D07002618F1020F3BDBB8F1000F74DC4B
:102BB80016A808F1010802F0B3FCB8F1040FF7D128
:102BC800002D24F02003B8BF0625472B40F08A804B
:102BD800B9F1000F40F0838015F1000818BF4FF0DD
:102BE8000108F21C02DB6B1C9E427FDD672C0CBFC8
:102BF8006524452405F1010A10239A451593A8BFB9
:102C08009A467BE04FF000080C9B0BB12B23C4E7DE
:102C1800079B0BB12023C0E71BAFC2E716A802F041
:102C28007FFCDDE916EC0023CDF828C00B93DDE925
:102C38000A23BD480021994208BF904208F10108C3
:102C4800ECD30520AEFB0023CDE90423059B00FB54
:102C58000C330593DDE90423CDE91623013E4FF03B
:102C6800000C0598002100236FF000428B4208BF3A
:102C7800824207D2BCF1000F94D0DDE90423CDE9EC
:102C880016238FE7049BDB180493059B5B41059390
:102C980008F1FF384FF0010CE3E716A802F052FCE8
:102CA800DDE916AE08F1FF3801364FF0000C0023BD
:102CB80000216FF00040994208BF704506D2BCF170
:102CC800000F3FF472AFCDE916AE6EE71AEB0A0AB1
:102CD8004EEB0E0E08F1FF384FF0010CE7E74FF00E
:102CE80000087EE7662C4FF0000883D116EB050A32
:102CF80040D51023159366244FF0000A00224FF0A8
:102D08000063CDE918231AF1FF3A35D2169B189AB9
:102D180019999B18179A41EB0202CDE9163202F075
:102D28007043129300231393DDE91223134306D053
:102D380016A802F007FC16A802F0F2FB0136662C72
:102D480007F1010236D1002E1DDD07EB060A15A991
:102D580016A802F023FC07F8010BBA45F7D10026A4
:102D680059EA050903D02E230AF8013BA946D144A4
:102D7800302512E066243FE718A802F0E3FB18A804
:102D880002F0CEFBBFE730233B709246E8E70AF13A
:102D9800010A46B10AF8015C0136D145F7D1B8F10C
:102DA800000F29D14BE015A916A802F0F7FB0AF885
:102DB800010CF2E715A916A8049202F0EFFB3028DF
:102DC80018BF06F1FF3659EA05093870049A03D08E
:102DD8002E23BA1C7B70A94602EB090A07E015A945
:102DE80016A8049202F0DAFB049A02F8010B524585
:102DF800F5D1B8F1000F07D053461AF8012D302A43
:102E0800FAD02E2A18BF9A4624F02003452B16D153
:102E1800002EBABF76422D232B230A228AF80130CE
:102E280096FBF2F302FB136603F1300130368AF8A1
:102E380000408AF802108AF803600AF1040A0023A5
:102E48001BA88AF80030AAEB000064E632466C281A
:102E580052F8043B0192039A05D07A2803D06828D7
:102E680001D11A80E6E41A60E4E4304647F63003FC
:102E780050F8041BADF86C300190082310220DF1B6
:102E88006E0002F026FB02300027CBE5002D02DBA6
:102E9800A945A8BFA946B9F1000F3FF4CBAC4A46F3
:102EA8001BA802F0CAFAE9E50DF16C0A50462B4658
:102EB800082202F00EFB1BAEAAEB060A5044E3E719
:102EC8000DF16D0AF2E7752C05D12B460A221BA8D5
:102ED80002F0FFFAD8E7B9F1000F1BD047F630032C
:102EE800ADF86C300DF16E062B461022304602F01C
:102EF800F0FA582C03D11BAA12F8013B63B90DF163
:102F08006C0AB9F1000FA6EB0A0A504414BF022755
:102F1800002787E51BAEE7E7A3F1610119299CBFEC
:102F2800203B02F8013CE7E7323333330F990E9B1D
:102F38002046984701303FF471AC039B013303935B
:102F4800019677E4029BA3EB0905601909F10102D8
:102F5800214602F05BFA069B202B08BF00273D4460
:102F6800AF42BFF633AD069B3B550137F8E70F99E3
:102F780014F8010B0E9B984701303FF44FAC039BAC
:102F880001330393039BAB42F1D153E4CDF808908E
:102F98001CE500BF014B1860704700BFB058002007
:102FA8000CB41FB509B90DF10300CDE9020107AB57
:102FB800069A0648019302A9FFF71CFC029B00220F
:102FC8001A7005B05DF804EB02B07047D9550008D7
:102FD80008B507210248FEF745FC002008BD00BFE0
:102FE80080640008036813B516489C6800F0ECFB81
:102FF800436804F108011B68984700BB6368062B07
:1030080009D1114B9A6D12F0805F104A05D05368B0
:1030180043F40073536002B010BD996D41F08051C4
:103028009965996D01F0805101910199516841F4B8
:10303800007151609A6D22F080529A65EBE76FF04B
:103048000400E8E75D6700080010024000700040D7
:1030580073B505461D480C4600F0B6FB1C490246F0
:1030680003C96B4683E80300516810460E68194689
:10307800B0470F2C26DC634203F0030304F003017E
:1030880058BF594204318B00002C4FF00F0101FA50
:1030980003F1B8BF033441EAA401CBB29B0003F1AA
:1030A800804303F58033090C9A6822EA010291FAF9
:1030B800A1F1B1FA81F105FA01F1114399600020FB
:1030C80002B070BD6FF01500FAE700BF5D67000839
:1030D800886300082DE9F3411D4603689F6805F0E1
:1030E80080030B438046164605D06FF02204204625
:1030F80002B0BDE8F08101A9284602F0F4FA0446BE
:103108000028F4D10346019A3868314602F008FBDA
:10311800044610BBA907EAD54346134A79683046E6
:10312800FDF7F0FFE0B931467868FFF791FFAA068E
:10313800DBD56B060FD415F0040F14BF0121022153
:103148003046FDF7C7FF3046FDF7ACFF002818BF33
:103158006FF04604CBE70321F2E76FF00404C6E7FB
:103168006FF00F04C3E700BFF3550008F0B51F4622
:1031780089B086688AB39A422FD303689B6801F1A5
:1031880080441968304B013C99424FEA840457D077
:10319800B1F1804F24D021F40060A3F59433984214
:1031A8004BD003F5806399424AD0284821F48063C4
:1031B800834242D000F59230814241D000F5406010
:1031C80083423AD0224B99423AD06FF0220032E043
:1031D8002048E040C307F8D507E06FF015002AE063
:1031E80064B1142CF4D93C2CEFD1B1F1804F05D047
:1031F800194B994202D0B2F5803FE6D80025336CCE
:103208003160013A7360F2603561B56075613046CE
:1032180002F00DF8602301A9224630460193039578
:10322800CDE90455CDE90655029702F01AF8214672
:10323800304602F0AAF809B0F0BD002CD1D1D7E78A
:10324800002CCED1D7E700BF002C01400010004071
:103258000048014010111100000C004038B5036807
:10326800856807489C6800F0AFFA436868641B6883
:10327800211D9847002818BF6FF0040038BD00BF13
:103288005D670008826812F4B87213B504461AD054
:1032980001214FF0000361F307030C480C49091A98
:1032A800C90861F38F130B480B4901F06EFCA36842
:1032B8005B0605D5E3680193019BA3680193019B15
:1032C8006FF0040000E0104602B010BD486300082B
:1032D80070630008EA6E0008D86E0008F8B5036845
:1032E80087689E680546114800F06EFA43683146C3
:1032F8001B689847044688B101234FF0000163F327
:1033080007010B4A0B4B0C489B1ADB0863F38F1120
:1033180001F01AFC6FF004042046F8BD2846F36853
:103328009847384602F0EBFAF6E700BF5D670008F9
:103338004863000870630008F56E00082DE9F04F37
:103348001E46036885689B688FB0044689469F6857
:10335800904612B9002E00F0068105F1040B4FF0DB
:10336800FF31584600F0DEFE2368DFF868C29B682C
:103378000393BCE80F00D4F808A006AC0FC49CE87F
:103388000F0084E80F00DAF80030994500F09180CA
:10339800B9F80430C3F34513082B02D0102B40F0C2
:1033A800E080039B86489C6800F00EFA4368039906
:1033B800DB6805AA9847059AD9F80010012322FA74
:1033C80003F0884240F2E4800133092BF7D101234E
:1033D8004FF0000063F307007A4C7B4B1B1BDB08A4
:1033E80063F38F10ADF80000130A7848520801F013
:1033F800E4FB6FF01506B6E0226842F00202226094
:10340800226858074CBF42F0010222F001022260F4
:10341800226822F4444222602268D9064CBF42F056
:10342800800222F080022260226822F40052226088
:10343800226813F0010114BF22F4827242F48272EE
:103448002260D9F80820002A6DD0216841F4007163
:103458002160616821F004016160C3F34513082B02
:10346800636806BF23F4706343F4E06343F4706356
:103478006360636843F480536360636823F01003F8
:103488006360CAF80090002A5CD01068002859D000
:10349800436852681C6800210123A047DAF800201D
:1034A8009368B2F90420D243D20FD3E9000102F0A5
:1034B800F3F9B8F1000F5AD0D8F80030D8F8042042
:1034C800AB62EA621A685B68AA63EB63002E53D0AA
:1034D800336872682B636A631A685B682A646B6472
:1034E80000236B62BA6812F001024AD13B6843F0CC
:1034F80040033B600121284602F0D7F97B6843F07E
:1035080020037B60002E3ED17B6843F080037B6004
:103518004FF0FF3105F1140000F004FE58466E6AC2
:1035280000F0DAFD1FE019B1216821F400718FE77E
:10353800216821F4007141F480212160616841F023
:10354800040189E703234FF0000163F307011D4AD3
:103558001D4B1F489B1ADB0863F38F1101F0F4FA27
:10356800A7E76FF0220630460FB0BDE8F08FC5E937
:103578000A88C5E90E88A9E7C5E90C66C5E9106699
:10358800AEE7FB68AEE77B6843F040037B60BBE7D0
:1035980022680EA922F04002226001EB8303226810
:1035A80053F8243C22F0380213432360B9F804305E
:1035B8009A073FF521AF226822F002021FE700BFF9
:1035C8005D6700084863000870630008366F0008EC
:1035D800106F0008906300082DE9F84303680A7922
:1035E8009B6886681C68012A0D4600F08180022AC3
:1035F8000CBF4FF48061002195F8059095F806807E
:10360800B9F1020F96BF3F4B4FF4005E33F819E053
:10361800B8F1020F6FD0B8F1040F0CBF4FF480530C
:103628000023EF79033A012F14BF4FF0000C4FF439
:10363800407C012A62D919F0FD0F5FD0B8F1010F63
:103648005CD9C7B1304A944213D0A2F5744294426F
:103658000FD002F5806294420BD002F5806294424A
:1036680007D002F58062944203D002F5405294429A
:1036780044D1012F42D1226822F00102226022683F
:1036880002F4C06291421FBF276827F4C0670F4346
:103698002760626802F4405296451FBF616821F4B2
:1036A800405141EA0E0161602268296802F0102247
:1036B80093421FBF226822F010221A432260A36897
:1036C80003F440739C451FBFA36823F4407343EA87
:1036D8000C03A3603368994203D002F050FA2B68B8
:1036E8003360236843F0010323600020BDE8F883BA
:1036F8004FF4C06180E74FF0805392E76FF02200EB
:10370800F4E700BFC46500080038014003682DE9EC
:10371800F041D3F808808768464605461E4856F8A3
:10372800084B00F051F84368786031461B689847A9
:10373800064600282CD1236823F001032360236860
:1037480043F00C032360236823F0805323F4B05321
:103758002360636823F44053636098F8103033B1F2
:103768002B689B681A68936843F4407393603968C0
:10377800284602F004FA236843F001032360E36952
:103788009A02FCD5E3695B02FCD53046BDE8F081BE
:103798006FF00406F9E700BF5D670008094B70B5D4
:1037A80053F820400130002653F82050A54200D895
:1037B80070BD236820465B68984700B166600C348A
:1037C800F4E700BFA8650008104B70B5104C05461B
:1037D8001E469C4204D10E4CB44209D1002412E08A
:1037E80062681AB122681268AA420CD00C34F0E759
:1037F80063680BB90C34EFE723682846196801F0B1
:10380800F9FD0028F6D1204670BD00BF145A0020EB
:103818000C5900200248034A0021121A01F037BE51
:1038280000000020B043002008B50648064A0749B2
:10383800121A01F002FE064A06490748BDE8084088
:1038480001F0FBBD90580020445A0020C46F0008C6
:1038580000000000C46F00080000002008B5022026
:10386800FFF79CFF074801F047F90320FFF796FF91
:1038780000F00EFDFCF7F8FD034A137B23F001036B
:10388800137308BD726F0008A002002080B5A2B0B3
:10389800FCF74CFF3E4B83F308883E4C3E4E636971
:1038A80043F4007363610025F02384F82230E57740
:1038B80025766576A576636A43F4E0236362FEF7AE
:1038C80071FDFEF7C9FD4FF0FF33A362E36207AB5A
:1038D80029466C22184601F0DAFD0127B060284617
:1038E8008DF82970FFF75AFF3846FFF757FF2B4C22
:1038F80000F070FB2A4B34624FF48062CDE9047308
:10390800CDE90255CDE90055264B2749204600F060
:103918007FFC637B23F0040213F01B0F62733546B0
:1039280004D1A36913B9204600F0E4F91F4B204ED7
:10393800059301220F23CDE9033200234FF4A0722F
:103948001C4900933046CDE901331B4B00F060FC65
:10395800737BEE6023F004037373184BC5E90633D9
:10396800FEF764FE0D48AC6001F02EFD0D4B144AC5
:10397800184682F3098863B64FF0000181F3118875
:10398800BFF36F8F00210022002300F02BFF00BF40
:10399800F053002000ED00E070430020A00200205A
:1039A8001D66000865380008B0460020BC6F000896
:1039B80034020020B04A00207D5F000888430020C0
:1039C800B04A00200B4B0C4870B50024834201D349
:1039D800002070BD1A699D685C610021A94201D16F
:1039E8001C33F3E75E691660DE685A6101313244C0
:1039F800F4E700BF145A0020145A002010B51346EB
:103A08000C464FF01002EFF3118182F31188BFF3D7
:103A18006F8F42695AB12260136843618369013329
:103A28008361002081F31188BFF36F8F0DE01BB90C
:103A380023606FF00B00F5E70246044800F088FAAF
:103A480018B9034B9B685B69236010BDB043002025
:103A58007043002070B504460D464FF01003EFF395
:103A6800118683F31188BFF36F8F02F0BDF980B11F
:103A78002A684261427B0021D206816603D18369AC
:103A88000BB900F037F931460848BDE8704002F03C
:103A98004BB92B6862691A602B686361A369013BA3
:103AA800A36186F31188BFF36F8F70BDB043002008
:103AB80038B5074C074DAC4201D3002038BD04F19E
:103AC80014032046C4E9053300F086FD1C34F2E7F0
:103AD800145A0020305A00202DE9F04F1D1E85B0E1
:103AE80007460C4692464EDD00F0F2FC05F109034C
:103AF8000A2293FBF2F310EB0308244B244EFB1A23
:103B08009B105E43F6B207F1140B009403AB02AAB4
:103B18005146384600F0AAFD10F10B0F0BD1009466
:103B280003AB02AA5146384600F0A0FD10F10B0F76
:103B380008BF6FF00B006379029A267162F30303E2
:103B480063716368039A62F31F336360C0B1BDB1E8
:103B580010F10C0F14D14FF01003EFF3118083F321
:103B68001188BFF36F8F2A46594600F0CDF96B1CB8
:103B7800CBD000F0ADFCB8EB0005C6D56FF00A005D
:103B880005B0BDE8F08F4FF00008B6E7145A0020E2
:103B9800B76DDBB60146014802F090B8145A002010
:103BA80008B5FDF731FF054B054A1B68184410613D
:103BB80000211846BDE8084002F0B2B9A44300202D
:103BC80070430020EFF305800D2809D828B1054B74
:103BD800586880F40060C0F3C02080F0010070478E
:103BE8000120FAE700ED00E010B54FF01003EFF305
:103BF800118483F31188BFF36F8F094B00221A6178
:103C080009300A2390FBF3F0064B1860064B196045
:103C1800FFF7C6FF84F31188BFF36F8F10BD00BF95
:103C280070430020A4430020A04300204FF010035D
:103C3800EFF3118183F31188BFF36F8F044B9A68F8
:103C4800D37B013BD37381F31188BFF36F8F704728
:103C580070430020094B03F12402824205D19B687E
:103C68008B4202D14B7BDB0606D1D1E900321360CF
:103C78005A600023C1E90033704700BF7043002039
:103C880038B50D4C024604F1240002F076F80546DA
:103C980000B9E568A3684AB95A7BD20606D1AA6971
:103CA80022B9DA897F2A01D9236238BD9D4201D021
:103CB800FFF776FF2562F8E77043002010B54FF054
:103CC8001003EFF3118483F31188BFF36F8F084B50
:103CD8009A68D37B0133D3730120FFF7D1FF84F3B4
:103CE8001188BFF36F8FBDE8104002F03CB800BFE9
:103CF80070430020F8B54FF01003EFF3118483F3FD
:103D08001188BFF36F8F154A114651F8243F8B4233
:103D18001DD0E3B1966A90F90E5093F90E70AF4238
:103D280010DD5A68C0E9003210605860437B43F0E8
:103D3800400343730020FFF7A3FF84F31188BFF308
:103D48006F8FF8BDB34202D01B68002BE5D1936A90
:103D58004360936A016018609062E7E7704300204F
:103D6800F8B504464FF01003EFF3118783F3118879
:103D7800BFF36F8F194D05F1240601463046FFF752
:103D880069FF6B6AB3422A4620D0FBB1A86A94F94E
:103D98000E1093F90E508D4213DD5968C4E90031B5
:103DA8000C605C60637B906843F040036373031BA3
:103DB80058425841FFF764FF87F31188BFF36F8FAC
:103DC800F8BD834202D01B68002BE2D1936A63607E
:103DD800936A26601C609462E4E700BF7043002089
:103DE8001449154A8B6810B51468A34203D1BDE87D
:103DF8001040FFF7D5BE00241460104A1268BAB10B
:103E0800DA897F2A14D80E4A93F90E401268944230
:103E18000EDB0C4A126893420AD09A6942B90A69C1
:103E2800824203DC1846FFF79BFFE0E7121A0A619B
:103E380010BD00BF704300209C430020A443002015
:103E4800A0430020C065000838B504464FF01003B1
:103E5800EFF3118583F31188BFF36F8F437B5A0605
:103E680007D501460948FFF7F5FE637B23F04003B9
:103E78006373074B9868031B58425841FFF700FFCC
:103E880085F31188BFF36F8F38BD00BF94430020BE
:103E98007043002070B504460D461646FFF7D4FF60
:103EA800637B43F0020363737DB12B68A5609D4279
:103EB80020D0FBB194F90E2093F90E10914213DD36
:103EC8005A68C4E9003214605C60731C19D006F1AA
:103ED800090204F118000A260A4992FBF6F2BDE825
:103EE8007040013200F05CBA69688B4202D01B68EE
:103EF800002BE1D16B6863606B6825601C606C60A7
:103F0800E3E770BD8F5D000870B50F4D0F4C064696
:103F1800A868FFF7BFFFAB6823603046FEF7A2F83A
:103F28004FF01002EFF3118382F31188BFF36F8F04
:103F38002268A968914204BF0022226083F3118895
:103F4800BFF36F8F70BD00BF704300209C430020FB
:103F580010B50C461146064A9068064A10601A4683
:103F6800FFF798FF2046BDE81040FEF77BB800BF7A
:103F7800704300209C430020F8B5461C01F0EAFF7E
:103F880034184FF01003EFF3118783F31188BFF350
:103F98006F8F0D4D0D4BA8681860FFF755FFA86887
:103FA8000B493246183000F0FBF9AA68537B43F0FE
:103FB800100353733846FEF755F801F0CBFF201A6B
:103FC80020EAE070F8BD00BF704300209C43002049
:103FD8008F5D0008044B002103F12402C3E9092284
:103FE8000846FFF701BE00BF70430020F8B5224C19
:103FF800224BA2681B689A4225D04FF01003EFF3BA
:10400800118683F31188BFF36F8F04F12405A1682B
:104018002846FFF71FFE636AA268AB4224D01BB391
:10402800A16A92F90E0093F90E70874217DD59685C
:10403800C2E900310A605A600120FFF721FE86F3C9
:104048001188BFF36F8F4FF01003EFF3118083F3E4
:104058001188BFF36F8FBDE8F840FEF703B89942A7
:1040680002D01B68002BDED1A36A5360A36A1560D7
:104078001A60A262E0E700BF70430020C065000834
:1040880010B5437B9A0704461CD4183001F022FF70
:10409800002817DB637B23F010036373204601F0CD
:1040A80021FE10B12046FFF725FEEFF305830D2B07
:1040B80008D81BB1044B5B681B0503D5BDE810404D
:1040C80001F051BE10BD00BF00ED00E0014B986843
:1040D800704700BF7043002070B504464FF01003CE
:1040E800EFF3118683F31188BFF36F8F01F07CFE25
:1040F800054670B1437BDB0603D183690BB9FFF733
:10410800F9FD0023AB6631460548BDE8704001F073
:104118000BBED4E902329A4218BF0133A360F2E71A
:10412800B043002010B402460B464FF01000EFF3E6
:10413800118180F31188BFF36F8F946844B1013CFB
:10414800946081F31188BFF36F8F002010BC704713
:1041580033B981F31188BFF36F8F6FF00F00F5E764
:10416800014810BCFFF7F4BEB0430020EFF3058010
:104178000D2807D838B1044B586880F40060C0F3A4
:10418800C02070470120704700ED00E0024B9B689B
:10419800187B00F001007047704300200849094A65
:1041A80038B5A0FB01010023FBF7EAFF0446FDF741
:1041B8004BFC0546FDF748FC401BA042FAD338BD2E
:1041C80000B4C40440420F0010B502464FF010037B
:1041D800EFF3118483F31188BFF36F8F437B590783
:1041E80004D484F31188BFF36F8F10BD23F0040348
:1041F800437301F03CFE10B11046FFF77BFD2146EA
:104208000248BDE8104001F08FBD00BFB043002058
:1042180030B587B004460E9D04950D9D03950C9D01
:1042280002950B9D01950A9D0095FEF7EBF8034B4F
:104238009B6803B11B6E236607B030BD7043002036
:1042480070B586B0002605960E9E04960D9E0396C0
:104258000C9E02960B9E0F9C01960A9E00960546A0
:10426800FFF7D6FF631C03D02CB92846FFF7ACFF35
:10427800284606B070BD09340A22044994FBF2F2BC
:1042880005F11800013200F08BF8F1E78F5D0008A6
:10429800F0B5214F214D87B03E46BD4205F13004AF
:1042A8000BD3FFF7C3FC1D4C1D4F0A25B44221D385
:1042B80007B0BDE8F040FFF701BD54F8043C059392
:1042C80054F8103C049354F8143C039354F8183CE5
:1042D800029354F81C3C019354F8203C009354E991
:1042E8000A2354E90C01FFF793FF54F8303CDD64CE
:1042F8002546D2E7626A531C03D020681AB9FFF733
:1043080063FF3034D2E70932394692FBF5F21830B0
:10431800013200F045F8F4E7145A0020145A00203E
:104328008F5D0008034B1B680BB9FDF76DBB0020C0
:10433800704700BFA8430020036840B1074A52688D
:10434800904204D01BB19A6881680A449A60426816
:1043580013605A600023C0E90033704704590020F5
:1043680038B50D4B1C689C4211D084B1A568FFF785
:10437800D9FF281A00280DDBA468FFF7D3FF201AFD
:10438800064B1B6913B19842A8BF184638BD6FF099
:104398000040F5E70020F3E70459002070430020AF
:1043A80070B504461646C1604FF01003EFF311854F
:1043B80083F31188BFF36F8FFFF7B4FF184B1A68A8
:1043C800012EACBF801901309A42A06001D05E680E
:1043D80032B95A6862605A68236014605C600AE007
:1043E8009068A168884215DD411A91605168C4E956
:1043F80000210C6054601A689A4206D0944204D195
:10440800FFF7AEFF0021FDF7AFFA85F31188BFF380
:104418006F8F70BD091AB242A160DAD01268D7E76F
:10442800045900202DE9F04B0446FFF7D9FC4FF062
:104438001003EFF3118583F31188BFF36F8F214EBB
:10444800214FDFF888903460B846D9F800403268C8
:104458004C45D7E900BC05D024B1A368934214DDCC
:104468009B1AA3601BEB02004CEBE2710024C8E925
:1044780000013460FFF774FF2146FDF775FA85F3F4
:104488001188BFF36F8FBDE8F08B1BEB03004CEB7B
:10449800E371D31A33600023C7E90001A360204603
:1044A800FFF74AFF85F31188BFF36F8FE3689847DA
:1044B8004FF01003EFF3118583F31188BFF36F8F6B
:1044C800C3E700BFA84300200000002004590020D3
:1044D8002DE918484FF01003EFF3118483F3118886
:1044E800BFF36F8FFDF790FA074BD3E9002312EB68
:1044F800000B43F1000C5846614684F31188BFF362
:104508006F8FBDE8188800BF0000002010B4446811
:10451800A468A44610BC604770B5C66890F90B0043
:104528000C254D43884206EB0504B8BF7459002A90
:104538001046B8BF02F11F00401104EB800119605A
:1045480002F01F0070BD07B501ABFFF7E5FF019A48
:10455800012303FA00F013680343136003B05DF806
:1045680004FB07B501ABFFF7D7FF019A012303FA54
:1045780000F0136823EA0003136003B05DF804FB3E
:1045880070B553F82150046802FB05558E00254488
:1045980041B9038940685843204485428CBF0020B4
:1045A800012070BD3344002A53F8040CB8BF03320D
:1045B800921000FB0244EFE74FF01003EFF3118075
:1045C80083F31188BFF36F8F7047C30703D581F357
:1045D8001188BFF36F8F70472DE9F8434368068948
:1045E800056890F80AC05E43FF220446C27235444B
:1045F80000204FF00C0E844505DC00252389AB42D2
:1046080021DCBDE8F883D4F80C80B6FBF3F10EFB8F
:1046180000F708EB070202F104092029C2E9019911
:1046280006DCE0729B08033323F003030130E2E762
:1046380011F11F0248BF01F13E02521148F807501C
:1046480005EB8205EEE76268E36820686A43811833
:104658001E1D86509A684A609A68204611609960C3
:104668002A460021FFF76FFF0135C7E72DE9F04F14
:1046780089B0857A00AFC7E90132AB00073303F48C
:10468800FF63ADEB030DE9464A46436842F8043937
:1046980004460020854200F1FF360ADD28B1136880
:1046A8009B08033323F00303536052F8043F8B4203
:1046B80007D2731C07D1BA6C002313606FF00B008C
:1046C8003FE00130E6E7207C10F0010001D0FFF761
:1046D80073FFE268F8610C2303FB0623B2461A460F
:1046E80052F8045F954273D0D5E900310B605960E8
:1046F8000023C5E90033236859F82A20EB1A5146EC
:1047080093FBF2F22046FFF72CFF09EB8A030AF12C
:104718000108BB6108F1FF33B34216DBF969207C5D
:10472800FFF753FFBB6C1D60002DC7D0BB681E6030
:104738002368ED1A59F8263095FBF3F57B680020BD
:104748001D602437BD46BDE8F08FBB6953F8042BC4
:10475800BB612368EB1A93FBF2F39B003B610C23CC
:1047680003FB08F37B614FF0010A3B690AEB030B7B
:10477800BB695A461B68FB6041462046FFF7E3FECB
:104788004B465A4641462046FFF7FAFE68B1FB6899
:1047980078690AFB03F2E3680344A918181DA850B6
:1047A8009A684A609A68116099600AF1010ABAF138
:1047B800040FDAD1207CF969FFF707FF207C10F09D
:1047C800010001D0FFF7F8FEF86108F10108A1E740
:1047D8000AF1FF3ABAF1FF3FA3F10C037FF47FAF70
:1047E80000259BE708B50446084611461A46A04727
:1047F800FFF76CFCFDF7B0FE0020704770B504466B
:104808000D464520A04729465220A0472946234661
:104818005220BDE8704018472DE9F04F8BB01C4678
:104828004FF00008531E06460F4602934FF0FF3A1A
:10483800C146002505E06DB9252800F04F813946AD
:10484800B047029B13F8010F02930028F3D10BB075
:10485800BDE8F08F64286ED01AD839280AD83128D4
:1048680060D22D2800F0408130284CD0252807D16F
:1048780039460BE0582800F0BB80632800F02A81F5
:1048880039462520B047029B18783946B047D0E70B
:10489800702800F0A38011D869284CD06C2805D165
:1048A800B8F16C0F2AD14FF04C08CAE76828E7D155
:1048B800B8F1680F22D14FF04808C2E7752871D0C7
:1048C80018D87328DCD154F8045BAB465B461BF858
:1048D800010B002840F0FB80B9F1030F40F00A817A
:1048E8005D1BAAEB0505002DA3DD39462020B04746
:1048F800013DF8E778287BD07A28C1D1B8F1000FBC
:10490800BED180469DE7BAF1000F0EDAB9F1000F6B
:1049180000F0ED80A0F1300AB9F1000F08BF4FF0A8
:1049280002098EE7BAF1000FF4DB0A2303FB0A0A37
:10493800AAF1300AF0E7B8F17A0F02D154F8045B13
:104948001FE0B8F16C0FF9D0B8F14C0FF6D107346D
:1049580024F00704F4E8022312F10041069143F120
:1049680000010791DDE906BC00214FF0FF306145E9
:1049780008BF584504D239463046FFF73FFF58E78D
:104988001546002D05DA39462D20B0476D420AF14B
:10499800FF3ACDF800A04B462A4639463046FBF789
:1049A80017FE46E7B8F17A0F02D154F8042B11E04C
:1049B800B8F16C0FF9D0B8F14C0FF6D1073424F0E8
:1049C8000704F4E8022300214FF0FF30994208BFA2
:1049D8009042D0D3CDF800A04B46DEE739463020D0
:1049E800B04739467820B0474FF0080A4FF0010920
:1049F800029B1B78702B04D154F8043B04930023CA
:104A08000DE0B8F16C0FF7D0B8F14C0FF4D10734C2
:104A180024F007031C465B6854F8082B0492002115
:104A28001022039105914FF0400BABF1040B049851
:104A3800CBF1200CABF1200120FA0BF003FA0CFCAF
:104A480040EA0C0023FA01F1084310F00F0008D1E6
:104A5800059911B9BBF1000F24D1302105E0059566
:104A6800E3E709288CBF57213021084440B2394672
:104A780008930592B047039B059A01330393089B5B
:104A8800BBF1000FEBD1B9F1030F7FF4D2AE039B5A
:104A9800C3EB4A05002D7FF7CCAE39462020B0473E
:104AA800013DF7E7511E9245089107DBB9F1010F67
:104AB80006D1099339463020B047099B089AB4E7D4
:104AC800B9F1020FFAD1099339462020F4E73946A3
:104AD800B047FBE6394654F8040BD7E6A846A94682
:104AE8004FF0FF3A0125ACE64FF00309A9E64FF075
:104AF8000109A6E60546A4E60FB407B504A951F8CE
:104B0800040B0191FBF7B6FD03B05DF804EB04B0AC
:104B1800704770470023C0E900337047036823B922
:104B28000160002341600B60704743681960F8E733
:104B38000068704703680BB11A680260184670472E
:104B480001F00CBA0020704738B505460C46FBF753
:104B5800B5FD28B105612146BDE83840FBF758BFCF
:104B680038BD70B504460E461546FBF7A7FD58B18B
:104B78000461447A4661012262F3071444722946AB
:104B8800BDE87040FBF744BF70BD2DE9F041054614
:104B9800884617461E46FBF791FD60B10561457AC8
:104BA800022363F307154572C0E905873146BDE85E
:104BB800F041FBF72DBFBDE8F0812DE9F84305462C
:104BC800894690461F46BDF82060FBF777FD68B11F
:104BD8000561457AC761032363F307154572C0E988
:104BE80005983146BDE8F843FBF712BFBDE8F883E6
:104BF80010B51C4600F09BF820B12146BDE81040D6
:104C0800FBF706BF10BD2DE9F8431C4603899DF844
:104C180020709B08A3420E4603D800231360BDE80A
:104C2800F88311682144994284BF191B11600C2B29
:104C3800D2F8009028D9072CD0F814802BD8183037
:104C480008234B4528BF4B461D4620441A46FFB152
:104C5800314600F0F2FBA9EB05092E44B9F1000F2B
:104C6800DDD0C4F11C054D4528BF4D46201D4044EC
:104C78002A46BFB1314600F0E0FBA9EB0509D8F898
:104C880000802E440024E9E714304FF00008D8E7EC
:104C980001463046DDE7083C1B2CDFD9D8F80080F8
:104CA8001C3CF9E701463046E5E70430BFF35B8F6B
:104CB80050E8003F013340E80032002AF8D1BFF342
:104CC8005B8F7047407A00097047437A1B098B4213
:104CD80016D9032B03D800EB8101486970470129D5
:104CE80003D800EB810188697047436902390629B6
:104CF80003D803EB81014868704707391B68F6E75A
:104D0800002070470346021DBFF35B8F52E8001F67
:104D1800013942E8001CBCF1000FF7D1BFF35B8FEB
:104D28005B680BB9FBF742BF7047006970472DE914
:104D3800F84F824688461546FBF726FF044630B3EF
:104D480001230026032D4360068109D9022202812E
:104D5800A5F1020900F1140B4661B9F1000F0EDC50
:104D6800637AC4F810A065F30713032D637218D88B
:104D7800AA00414604F1140000F05FFB07E0FBF7CE
:104D880003FF074630B92046FBF710FF3C46204694
:104D9800BDE8F88FCBF80000A9F107090660834643
:104DA800DBE74146082204F11800676900F045FB7B
:104DB800023D08F10808072D2E4628BF07264FEAAE
:104DC80086094146381D4A4600F037FBAD1BC844EA
:104DD8003F68F0D1DBE713B500240094FFF713FF19
:104DE80002B010BDF8B506460D4614461F462146CA
:104DF80028463A46B047241A0544F8D1F8BD2DE9AB
:104E0800F0478EB00EAF81460D46FFF78EFF06467F
:104E18004846FFF757FF8300073323F00703ADEB3E
:104E2800030D82460EAC4FF00008D04516D1484617
:104E3800FFF748FF0F281ED8DFE810F01900200000
:104E480026002D00360041004E005D006E008100F6
:104E58009600AD00C600E100FE001D01414648462F
:104E6800FFF733FF44F8280008F10108DDE7314671
:104E78002846FBF7CDFEBD46BDE8F08722683146DF
:104E88002846FBF7C5FEF6E7D4E900233146284655
:104E9800FBF7BEFEEFE7A3680093D4E90023314691
:104EA8002846FBF7B5FEE6E7E3680193A36800939D
:104EB800D4E9002331462846FBF7AAFEDBE723693D
:104EC8000293E3680193A3680093D4E90023314671
:104ED8002846FBF79DFECEE7636903932369029397
:104EE800E3680193A3680093D4E900233146284678
:104EF800FBF78EFEBFE7A3690493636903932369F5
:104F08000293E3680193A3680093D4E90023314630
:104F18002846FBF77DFEAEE7E3690593A369049392
:104F28006369039323690293E3680193A368009379
:104F3800D4E9002331462846FBF76AFE9BE7236A3B
:104F48000693E3690593A36904936369039323694B
:104F58000293E3680193A3680093D4E900233146E0
:104F68002846FBF755FE86E7636A0793236A06938C
:104F7800E3690593A369049363690393236902931F
:104F8800E3680193A3680093D4E9002331462846D7
:104F9800FBF73EFE6FE7A36A0893636A0793236AE9
:104FA8000693E3690593A3690493636903932369EB
:104FB8000293E3680193A3680093D4E90023314680
:104FC8002846FBF725FE56E7E36A0993A36A089388
:104FD800636A0793236A0693E3690593A3690493B5
:104FE8006369039323690293E3680193A3680093B9
:104FF800D4E9002331462846FBF70AFE3BE7236B3A
:105008000A93E36A0993A36A0893636A0793236A76
:105018000693E3690593A36904936369039323697A
:105028000293E3680193A3680093D4E9002331460F
:105038002846FBF7EDFD1EE7636B0B93236B0A9382
:10504800E36A0993A36A0893636A0793236A06933A
:10505800E3690593A369049363690393236902933E
:10506800E3680193A3680093D4E9002331462846F6
:10507800FBF7CEFDFFE6A36B0C93636B0B93236BDF
:105088000A93E36A0993A36A0893636A0793236AF6
:105098000693E3690593A3690493636903932369FA
:1050A8000293E3680193A3680093D4E9002331468F
:1050B8002846FBF7ADFDDEE64268816810B5044678
:1050C800D2E900230068FFF78DFE636800221A60AA
:1050D80010BD08B5D1E901321B68D0544A6813687D
:1050E80001331360CA68934202D10846FFF7E4FF10
:1050F800002008BDF8B50D46164604464718BC42C0
:1051080001D12846F8BD736814F8011B5B68304666
:105118009847F4E7024601210020FBF7A3BF0246A7
:1051280002210120FBF79EBF024603210220FBF764
:1051380099BF024604210320FBF794BF02460521CC
:105148000420FBF78FBF02460A210520FBF78ABF20
:10515800024610210A20FBF785BF002208B5114638
:105168000620FDF737F9002211460720FDF732F92E
:10517800002211460820FDF72DF9002211460920CA
:10518800FDF728F9002211460A20FDF723F900222D
:1051980011461720FDF71EF9002211462820FDF7B9
:1051A80019F9002008BD14230022C0E900234FF09C
:1051B8000073836070477047436810B45C68134697
:1051C800A4460A4610BC002160472DE9F04387B089
:1051D800044698460DF1070317468DF80710029309
:1051E800012502AB0022082140680395CDE904356A
:1051F800FFF7E2FFA068436804F10C06D3F80090BB
:1052080004AA00233146C8476FB12A4608216068BE
:10521800CDE90278FFF7D0FFA068436804AA1C68AC
:1052280031460023A04707B0BDE8F083704710B5AA
:105238000446A0B190F83D3003F0FF021BB980F896
:105248003C20FFF7F3FF022384F83D302068211D3E
:10525800FCF73CFD012384F83D30002010BD0120FF
:10526800FCE738B590F83C30012B04464FF00200BB
:1052780010D00123082A84F83C3084F83D0043D03C
:1052880009D8FAB1042A2ED00123002084F83D3031
:1052980084F83C0038BD102A47D0142A56D00C2A6E
:1052A800F2D12068FCF776FC23680969DA6942F4D0
:1052B8000062DA61DA6922F48062DA61DA6942EA64
:1052C800012230E02068FCF7D5FB236809699A6958
:1052D80042F008029A619A6922F004029A619A6976
:1052E8000A439A61D0E72068FCF756FD23680969EC
:1052F8009A6942F400629A619A6922F480629A611A
:105308009A6942EA0122ECE72068FCF7FFFB236870
:105318000969DA6942F00802DA61DA6922F00402FE
:10532800DA61DA690A43DA61AEE72068FCF766FCFD
:10533800236809695A6D42F008025A655A6D22F0CD
:1053480004025A655A6D0A435A659DE72068FCF7BE
:1053580089FC236809695A6D42F400625A655A6DDE
:1053680022F480625A655A6D42EA0122ECE7036A28
:1053780001F01F0110B501248C4023EA04030362E5
:10538800036A8A401A43026210BDFCF74BBD0B68E2
:105398001B090133B0FBF3F3486800F07F00434377
:1053A8008868400E01304000B3FBF0F07047FDF70D
:1053B8005FB801460068FDF76FB808B5FDF71CF93E
:1053C800BDE80840FCF734BE07B5002101A8FDF789
:1053D800FBF903B05DF804FBC9B202788A420346C0
:1053E80000F1010004D0002AF7D1002918BF0023DA
:1053F800184670470138013910F8013F11F8012F9C
:10540800934201D1002BF7D1981A7047431A93425F
:1054180010B500EB020308D3013902469A420BD0BB
:1054280011F8014F02F8014BF8E70A4412F8014D50
:1054380003F8014D8A42F9D110BDF0B581EA0004A4
:10544800A50703460BD0013B0A4491421AD1F0BD8F
:10545800002AFCD011F8014B03F8014B013A9C07D4
:10546800F6D19508AC001E1F0F19B94205D16FF08F
:10547800030606FB05222344E5E751F804CB46F86A
:1054880004CFF2E711F8014B03F8014FDDE770B5DF
:10549800C9B203469C0710D141EA012444EA0445F5
:1054A800940803EB8406B3420DD16FF0030505FBA6
:1054B80004241C44A34209D170BD002AFCD003F87F
:1054C800011B013AE6E743F8045BECE703F8011B2C
:1054D800F0E7F0B50446B1FBF2F702FB1715092D0A
:1054E8008CBF2726002630353544914204F8015BED
:1054F8000AD23021221A934208DC002304F8013929
:10550800A04206D31046F0BD3946E4E704F8011B73
:10551800F0E72378017804F8011900F8013BEFE778
:1055280070B5D0E90065720806F0010342EAC57259
:105538009B184FF000014FEA550444EB0101C0E904
:10554800003170BDD0E900322DE9F04302334FF04D
:1055580005074FF0000C42F10002B3EB0C06B2FB5A
:10556800F7FE07FB0EF162EB0101F20842EA417215
:10557800B2FBF7F1CA001CEB02084FEA51734EEB7D
:105588000309A2FB0723B31AB3FBF7F318EB0304D1
:1055980049F10005C0E90045BDE8F0830B68002B20
:1055A80070B510DD013B02680B6044680A21A2FB5C
:1055B800015601FB046626F07043C0E90053310F21
:1055C8003031C8B270BD3021FBE74FF0FF30704773
:1055D8004B68012B07DD0B6818700B6801330B60F3
:1055E8004B68013B4B60002070478A681368C340D2
:1055F800DB0770B50E460FD5516869B101250C68F7
:1056080085408B681D4203D04B682A463046984730
:1056180014B121462468F4E770BD0068806810B5AD
:10562800006841B9012404FA02F213B18261084604
:1056380010BD8262FBE76FF02201F8E7006880681E
:1056480010B5006831B90469D44004F001041C6045
:10565800084610BD6FF02201FAE78368586830B534
:1056680058B10024814213D108685CB99C6858601D
:10567800A14200D198600020086072B9002030BDB6
:105688002846EFE720609868814208BF9C60F2E7EF
:1056980005680446002DF3D13AB15A680A60986843
:1056A80059600028EAD19960E9E76FF01500E6E74C
:1056B800806839B9012303FA02F2036813430360CF
:1056C800084670476FF02201FAE7806841B9012364
:1056D80003FA02F2036823EA0203036008467047EC
:1056E8006FF02201FAE700F00103B1B123B11023F2
:1056F8000B6000231846704700F44070B0F5807FB7
:1057080003D14FF400720A60F4E7B0F5007F01D0CE
:105718000B60EFE74FF48062F5E76FF01503E9E7F8
:10572800F0B502F0300701248C403D09D0F800C0E4
:1057380094FAA4F6B6FA86F64FF0030E76000EFA3F
:1057480006F62CEA060C94FAA4F6B6FA86F6760063
:10575800B54045EA0C05202F056062D1072949DCD0
:10576800056A94FAA4F60EB1B6FA86F70F26BF00BA
:1057780006FA07F725EA070794FAA4F5B5FA85F5B6
:10578800AD0003FA05F53D4305624568C2F3801391
:1057980025EA040503FA01F129434160C2F3C11364
:1057A800856894FAA4F1B1FA81F10326490006FA52
:1057B80001F125EA010594FAA4F1B1FA81F1490051
:1057C8008B402B438360C2F34122C16894FAA4F34F
:1057D800B3FA83F35B0006FA03F321EA030394FAAE
:1057E800A4F4B4FA84F4640002FA04F41C43C46018
:1057F8000020F0BDD0F824C0260A96FAA6F50DB10F
:10580800B5FA85F70F25BF0005FA07F72CEA070751
:1058180096FAA6F6B6FA86F6B600B3403B4343625C
:10582800B3E7302F02BFC36A2343C362ADE70368FF
:1058380037B59968856814467AB1686C436801AAD7
:10584800DB68043198472A6C019B00200132B3FBC6
:10585800F2F3C4E9003003B030BD6FF01500FAE789
:10586800826B52B1C36B53B103689B88C3F3451372
:10587800082B0CBF107810887047104670471846E0
:10588800704708B5232000220521FCF7A3FD23203B
:10589800BDE80840FCF78EBD436810B45C68134649
:1058A800A4460A4610BC0021604738B5046805467E
:1058B80024B3A36813B3186800B361B1B4F9042022
:1058C8005968D20FFFF7E8FF2B689B689868BDE816
:1058D8003840FEF763BC12B9A28892040ED49868C7
:1058E800FEF75CFC2A689368B2F90420D243D3E936
:1058F8000001D20FBDE83840FFF7CEBF38BD10B564
:10590800044601220021FFF7D0FFE36823B9201DD8
:10591800BDE81040FEF7E0BB10BD08B58068FFF792
:10592800EEFF002008BD4B6823F0800370B54B6084
:105938004B6823F040034B604B68164623F0200366
:1059480000220C464B6011460546FFF7AEFFA368E0
:10595800DA0701D5E368FAE7236803F48273B3F53D
:10596800827F02D1A3681B06FCD4236823F040037E
:10597800236005F114006E62BDE87040FEF7ACBB11
:1059880003689B6870B59D6884682846FDF77AFCB3
:10599800024628B129462046BDE87040FFF7C3BF3C
:1059A800E16B11B9636C002BF4D023689E88F20771
:1059B80000F186802046FFF753FFAB689B07FCD5B4
:1059C800C6F34516082E4AD1C0B22873E36B83B1DB
:1059D800013BE363002B3CD1E36A013BE362002B0C
:1059E8003BD0A36A03F10802A2629A68DB68A2634B
:1059F800E363AB68D907FCD522689288C2F34512E5
:105A0800082AD4E91031EA6842D10BB101B11A7001
:105A1800636C93B1013B6364002B40F0A380636B1C
:105A2800013B6363002B00F0A280236B03F10802A3
:105A380022639A68DB68226463642846FDF722FCC7
:105A480002460028A6D1E36B13B9636C002BA1D0E2
:105A580070BDA36B002BCCD00133A363C9E7A88129
:105A68000029C6D00139E16369B9E36A013BE36201
:105A7800002BF2D0A36A03F10802A2629A68DB68DD
:105A8800A2635B08B4E7A36B002BB2D00233E4E750
:105A98000BB101B11A80636C002BCED0013B63645B
:105AA800002B66D1636B013B6363002B5FD0236BD4
:105AB80003F1080222639A68DB6822645B08BBE78B
:105AC800AB689A0749D5002947D02046C6F3451642
