:020000040800F2
:1000000070060220CD130008CB25000875120008E9
:1000100075120008751200087512000875120008A4
:10002000751200087512000875120008090F000803
:100030007512000875120008C10E0008910A000828
:10004000A5130008A5130008A5130008A5130008B0
:10005000A5130008A5130008A5130008A5130008A0
:10006000A5130008A5130008A5130008A513000890
:10007000A5130008A5130008A5130008A513000880
:10008000A5130008A5130008A5130008A513000870
:10009000A5130008A5130008A5130008A513000860
:1000A000A5130008A5130008A5130008A513000850
:1000B000A5130008A5130008A5130008A513000840
:1000C000A5130008A5130008A5130008A513000830
:1000D000A5130008A5130008A5130008A513000820
:1000E000A5130008A5130008A5130008A513000810
:1000F000A5130008A5130008A5130008A513000800
:10010000A5130008A5130008A5130008A5130008EF
:10011000A5130008A5130008A5130008A5130008DF
:10012000A5130008A5130008A5130008A5130008CF
:10013000A5130008A5130008A5130008A5130008BF
:10014000A5130008A5130008A5130008A5130008AF
:10015000A5130008A5130008A5130008A51300089F
:10016000A5130008A5130008A5130008A51300088F
:10017000A5130008A5130008A5130008A51300087F
:10018000A5130008A5130008A5130008A51300086F
:10019000A5130008A5130008A5130008A51300085F
:1001A000A5130008A5130008A5130008A51300084F
:1001B000A5130008A5130008A5130008A51300083F
:1001C000A5130008A5130008A5130008A51300082F
:1001D000A5130008A5130008A5130008A51300081F
:1001E000A5130008A5130008A5130008A51300080F
:0801F000A5130008A513000887
:1001F80053B94AB9002908BF00281CBF4FF0FF3186
:100208004FF0FF3000F00CB8ADF1080C6DE904CEEA
:1002180000F008F8DDF804E0DDE9022304B07047D7
:10022800704700BF2DE9F04F099F154604468E46DA
:100238001E46002B40F0CC808A42B2FA82FC4CD990
:10024800BCF1000F0BD0CCF1200801FA0CFE20FA0B
:1002580008F802FA0CF548EA0E0E00FA0CF44FEA18
:1002680015491FFA85F8BEFBF9FA210C09FB1AE3B8
:100278000AFB08FB41EA03439B452AD9EB180AF11C
:10028800FF3004D29B4502D9AAF102002B44A3EB0C
:100298000B03A4B2B3FBF9F209FB123302FB08F813
:1002A80044EA0344A04516D92C1902F1FF3303D2BE
:1002B800A04501D9931E2C44A4EB080443EA00404E
:1002C80027B124FA0CF400233C607B603146BDE87A
:1002D800F08F5046DBE71346EEE702B9FFDEBCF1CC
:1002E800000F2ED18B1A01264FEA154EAAB2B3FB86
:1002F800FEF8210C0EFB183308FB02F941EA034310
:10030800994561D9EB1808F1FF3004D2994502D913
:10031800A8F102002B44A3EB0903A4B2B3FBFEF13E
:100328000EFB11334A4344EA0344A2424ED92C1926
:1003380001F1FF3303D2A24201D98B1E2C44A41A27
:10034800BCE7CCF1200E02FA0CF521FA0EF901FAFD
:100358000CF320FA0EFE4EEA03034FEA154800FAA2
:100368000CF4B9FBF8F11FFA85FE08FB1192180C82
:1003780001FB0EF640EA0242964221D9AA1801F181
:10038800FF3003D2964201D9881E2A44921B9BB2A1
:10039800B2FBF8F908FB192209FB0EFE43EA0243F7
:1003A8009E450FD9EB1809F1FF3604D29E4502D9B4
:1003B800A9F102062B44A3EB0E0346EA004693E795
:1003C8000846E3E74E46F6E74046A4E70B46B6E79D
:1003D8008B4205D90FB1C7E900010026304675E701
:1003E800B3FA83FCBCF1000F0FD18B4201D38242D8
:1003F80009D8841A61EB030E0120002F6AD0C7E9DF
:10040800004E002662E76046F7E7CCF1200E03FABB
:100418000CF322FA0EF521FA0EF41D4301FA0CF33F
:1004280020FA0EF10B434FEA154A00FA0CF6B4FB1A
:10043800FAF91FFA85F80AFB19401C0C09FB08F1A8
:1004480044EA0044A14202FA0CF23FD92C1909F1FE
:10045800FF3004D2A14202D9A9F102002C44641A47
:100468009BB2B4FBFAF90AFB194409FB08F843EA02
:10047800044188452CD9691809F1FF3304D288450D
:1004880002D9A9F10203294443EA0040A1EB08017B
:10049800A0FB02894945C2464C4602D306D14645CF
:1004A80004D2B8EB020A69EB0504013897B1B6EB40
:1004B8000A0361EB040606FA0EFE23FA0CF34EEA71
:1004C800030326FA0CF6C7E900369AE74846C6E75A
:1004D8004B46D9E73E46F9E608B500F089FB0146E8
:1004E8000248BDE8084001F0D4BF00BF0A32000846
:1004F80073B5194801F0CDFF184801F03DF90446DD
:1005080020B9174801F0C5FF02B070BD436800224A
:100518001D6811462623A8471249134B01224B6038
:1005280063688A60DB680BB12046984763681B697B
:100538001BB1002220461146984700266368002216
:10054800019620469D68114601ABA8474FF4FA7002
:1005580002F0C8FAF2E700BF203200084C32000867
:10056800C132000808000220E10400080B680133CA
:100578000B60014B1B681847B00F02202DE9F04FA4
:1005880085B09B46164682460E9C884601250A275A
:10059800012C4FF00002DFF87C90B8BF0124012B3A
:1005A8000CBF302320230293B6FBF9F301930AB959
:1005B800B1451DD8019B4146013503F13000D047B4
:1005C8000122019B013F09FB1366012F4FF00A032B
:1005D800B9FBF3F9E8D1414606F13000D047BBF149
:1005E800030F02D1641B002C0EDC05B0BDE8F08FB0
:1005F800BC42E6DBBBF1020FE3D841460298039206
:100608000135D047039ADCE741462020D047013C1A
:10061800E9E700BF00CA9A3B014B1860704700BF6A
:10062800B00F0220002307B50246019303480B468A
:1006380001A901F0BEFD03B05DF804FB75050008D3
:10064800F0B54FF01003EFF3118083F31188BFF377
:100658006F8F264B5A6912F4003211D1BFF34F8FB6
:10066800BFF36F8FC3F85022BFF34F8FBFF36F8F65
:100678005A6942F400325A61BFF34F8FBFF36F8F4C
:100688001A4B5A69D20328D45A6912F4803224D1F9
:10069800C3F88420BFF34F8FD3F8802043F6E0756A
:1006A800C2F3C904C2F34E32520102EA05072146D9
:1006B80047EA817611F1FF31C3F86062F8D2203A37
:1006C80012F1200FF1D1BFF34F8F5A6942F48032F3
:1006D8005A61BFF34F8FBFF36F8F80F31188BFF359
:1006E8006F8F034B0020034A1A60F0BD00ED00E055
:1006F800C80F02200024F4000A2838B50446074D24
:1007080004D128680D2143685B6898472868E1B2DE
:1007180043685B689847204638BD00BF1400022034
:1007280010B5044C204600F07DFE2046BDE8104080
:10073800FFF772BF0107000808B5044801F01CF86C
:10074800034B1860FFF7ECFF002008BD5232000889
:10075800140002202DE9F843956804460F464FF02F
:1007680001080B4E05F10409BC4201DBBDE8F88322
:1007780008FA04F3726933EA020207D1736155F883
:1007880034301BB159F83410204698470134EBE750
:10079800003C01401F2808B502DD6FF0220008BDAB
:1007A800074A01231828116803FA00F343EA0103F2
:1007B8001360F2DC034B185600F002FD0020EEE750
:1007C800003C014059320008CA0710B507D51F2858
:1007D80005DC084B01229C68824022439A608B0703
:1007E80007D51F2805DC034A0123D16883400B4342
:1007F800D36010BD003C0140074930B58C6854F8FF
:10080800301004EBC00521B944F8302008466B606D
:1008180030BD6FF00F00FBE7181002200B6884B0A2
:10082800032B2DD8DFE803F0020E1822164A4B6876
:10083800116B19431163126B13400093009B002046
:1008480004B07047104A4B68516B19435163526B9F
:1008580013400193019BF2E70B4A4B68116C194353
:100868001164126C13400293029BE8E7064A4B6836
:10087800516C19435164526C13400393039BDEE798
:100888006FF02200DCE700BF003802400B68032B42
:1008980020D8DFE803F0020A1118104A4968136BE0
:1008A80023EA01031363002070470C4A4968536B1D
:1008B80023EA01035363F6E7084A4968136C23EAFD
:1008C80001031364EFE7054A4968536C23EA0103FF
:1008D8005364E8E76FF02200704700BF0038024019
:1008E800084B09681B68032909D8DFE801F00303EE
:1008F80002069B081360002070475B08FAE76FF058
:1009080022007047C80F022030B5002187B04FF48D
:10091800A053CDE900134FF40043029300F038F8D8
:1009280003A801F03FFE184B1A68900706D41A680E
:1009380042F001021A601A689207FCD5124CA368AB
:1009480023F00303A360A36823F0F003A360A56862
:1009580015F00C05FBD1236803AA29460B4823F0A0
:1009680080732360636823F0706343F010636360EF
:100978006B4600F025FA236823F00103236001F099
:1009880019FE284607B030BD0038024040787D0186
:10099800064B82B01A6C42F080521A641B6C03F04A
:1009A80080530193019B02B0704700BF003802409A
:1009B80073B5044606090D46104612B9114800F0F1
:1009C800DBFE00230093104B53F8263001930133CC
:1009D80002D16FF0040012E0436869461B6898472B
:1009E8000028F6D1201105F00F032A4604F00F0164
:1009F800800200F1804000F5003001F0DFFE02B017
:100A080070BD00BF7C32000894300008F8B5044679
:100A180009480E46002500F0AFFE0746B54204F12E
:100A2800080400D1F8BD3A4654F8041C14F8080C20
:100A38000135FFF7BDFFF1E77C3200080F4B30B5F9
:100A48001A6899681D6812F480320D4B21F07F41B5
:100A58001C680C4B18BF22460829186802441A6003
:100A680007D915F4803F1A6814BF204600200244B5
:100A78001A6018682044401A30BD00BF10E000E03A
:100A8800E0000220E400022008B50D4A0D4B126870
:100A9800186810440C4A11681860401A0B4BB0FBD8
:100AA800F3F003FB00131360094B1A68094B1A6033
:100AB80000221A6001F06CFABDE8084000F0C8B9DD
:100AC800E0000220DC000220D8000220C04B030016
:100AD80010E000E0E4000220084B1022002083F818
:100AE8002320074A074B1A60074B1860074B5A60C8
:100AF80098601A6842F007021A60704700ED00E03B
:100B0800BF4B0300E0000220E400022010E000E0F8
:100B180070B5214C51B1431C08D1204A136823F009
:100B2800010313604FF07F43236070BD01384C28E8
:100B38002CDC00282CDD1A4E46434FF01003EFF34F
:100B4800118583F31188BFF36F8FFFF777FF154B7C
:100B580013491A6810441860134B1A68C2F55233C7
:100B680003F2BF3333440344101A0022B3FBF1F3FA
:100B780001FB03000D4B206001381A60074B5860D9
:100B88009A6085F31188BFF36F8FCEE74C20D2E7C8
:100B980043F2BC46D1E700BFE000022010E000E0CD
:100BA800C04B0300DC000220D8000220E400022031
:100BB80010B54FF01003EFF3118483F31188BFF3DE
:100BC8006F8FFFF73BFF074B074A1B6812689B1A9A
:100BD800184484F31188BFF36F8F044BB0FBF3F014
:100BE80010BD00BFDC000220D8000220C04B03006B
:100BF80010B54FF01003EFF3118483F31188BFF39E
:100C08006F8FFFF71BFF044B1B68184484F3118890
:100C1800BFF36F8F10BD00BFDC000220084B1968BE
:100C28001A6801F000711B6802F000520A4314BFF1
:100C38000120002013F0006F18BF0120704700BF8B
:100C4800003802402E4B1A681B6802F44042B2F585
:100C5800404F23D113F480333CD02A4B98423ED8DE
:100C6800294B98423DD8294B98423AD8284B98426C
:100C78004FF0060305D8274A904202D9002B08BF37
:100C8800012325490A6822F00F021A430A600868FE
:100C980000F00F00C01A18BF0120704703F440434A
:100CA800B3F5004F05D103F10F6303F5A343984251
:100CB80013D8154B98420BD8144B984219D8144B9B
:100CC80098421BD8134B984294BF00230123D8E7BE
:100CD8000423D6E7114A904205D90523D1E7072313
:100CE800CFE70623CDE7084A9042F1D8074A904259
:100CF80001D90323C5E7064A9042BCD90223C0E7BD
:100D0800007000408058840C000E2707804A5D055B
:100D18000087930380C3C901003C024080D1F008DA
:100D28000B68244AC3F3031370B5D45C0E46224DF6
:100D380020FA04F42B68A34227D3204B1A6842F008
:100D480080721A601A689201FCD59A68316822F09C
:100D5800F0020A439A609A6822F0030242F0020203
:100D68009A60164B9A6802F00C02082AFAD19A681F
:100D78000020716822F4E0520A439A609A68B168C8
:100D880022F460420A439A6005E074B12046FFF7F6
:100D980059FF0028D1D02B68A34203D93CB1204683
:100DA800FFF750FF00B92C6070BD0120F3E7012068
:100DB800FAE700BF8F320008C80F0220003802404F
:100DC8002DE9F04104460E4690461D46FFF726FFE2
:100DD800002835D1D8F80030D8F8047003F03F0067
:100DE800D8F80810B4FBF0F4C7F308004443080C23
:100DF80001304000B4FBF0F0134C226892030FD48A
:100E08002268012E0CBF42F4802222F48022226044
:100E1800226842F4803222600B4C22689203FCD58F
:100E2800094C0A4A6668324042EA87121A430A4362
:100E3800294642F480026260BDE8F041FFF770BFC6
:100E48000120BDE8F08100BF003802400080BCFFEF
:100E580004488168006A884203D003494FF08052F1
:100E68000A6070473402022004ED00E000230448C1
:100E78001021C21801336E2B82F80013F9D1704784
:100E880000E100E0094A0A4993680968D8651966CB
:100E980008494B6843F080534B60002383F3118863
:100EA800BFF36F8F9368186E704700BF340202203B
:100EB800FC31000800ED00E00F498A684FF0280077
:100EC8001044EFF3098C80E8F01F102080F311889C
:100ED800BFF36F8F094F4FF000660A6A8A603E6061
:100EE800D06D0023D36580F3118802F1280090E8C3
:100EF800F01F8CF3098870473402022004ED00E0EB
:100F08001EF0040F0CBFEFF30880EFF3098081692E
:100F180031F8021C11F0FF010229FFD001B501F0E0
:100F28004CFB01BD38B51C4C05461C4801F0B1FA14
:100F3800A26AD10602D51A4801F0ABFAA36A1A07C9
:100F480002D5184801F0A5FA134CA36A9B070ED5E1
:100F5800154801F09EFA616BA36A180607D5134875
:100F680001F097FA1DB1A36A23F08003A3620A4C2B
:100F7800A26AD20702D50E4801F08BFAA36A9B0633
:100F880002D50C4801F085FA034B00209A6A9A6A48
:100F980042F0FF029A6238BD00ED00E02D330008F0
:100FA80044330008783300088C330008A533000860
:100FB800BC330008DC33000838B51E4C05461E4813
:100FC80001F067FAA26AD10402D51C4801F061FA5F
:100FD800A36A1A0502D51A4801F05BFA154CA36AF0
:100FE8009B050ED5174801F054FAA16BA36A1804A3
:100FF80007D5154801F04DFA1DB1A36A23F4004343
:10100800A3620C4CA36A590502D5104801F041FAB5
:10101800A36ADA0509D50E4801F03BFA054A002013
:10102800936A43F47F43936238BDA36A9B04F5D562
:101038000848F1E700ED00E09F320008B6320008EA
:1010480078330008C8320008E2320008F832000895
:1010580014330008DC33000810B5194C194801F0A6
:1010680018FAA26A930102D5174801F012FAA36A86
:10107800DC0102D5154801F00CFA114CA26A1003E4
:1010880002D5134801F005FAA36A590302D511489D
:1010980001F0FFF90A4CA26A920302D50E4801F04A
:1010A800F8F9A36ADB0302D50C4801F0F2F9044A07
:1010B8000020936A6FEA03436FEA1343936210BDFB
:1010C80000ED00E00C34000825340008393400082D
:1010D800543400087334000899340008B434000804
:1010E80070B5284D06466B68C3F30802D11E09295E
:1010F8003BD8DFE801F0053436293A3A3A3A3A382B
:10110800214801F0C6F9EC6A14F0020404D01F4823
:1011180001F0BFF900241CE0EB6A5B0019D51C48FC
:1011280001F0B7F91B4B1B781BB10120FFF7FAFE42
:101138000CE0194B1B781BB10120FFF73DFF05E0C0
:10114800164B1B889BB223B1FFF786FF062804467F
:1011580017D031462046BDE8704000F09BB800200B
:10116800E4E70020E9E70E48D2E713F4F87F0D4BD7
:101178000D49A2F1100218BF19460C4801F089F96F
:10118800C8E770BD00ED00E00E3500082635000800
:101198004835000828ED00E029ED00E02AED00E0E0
:1011A80068350008F5340008E03400089F35000869
:1011B800024A536943F010035361704700ED00E0A1
:1011C80043B2002B08DB012200F01F005B0902FA82
:1011D80000F0024A42F82300704700BF00E100E037
:1011E80043B20131002B4FEA0111C9B206DB03F10A
:1011F800604303F5614383F80013704700F00F0064
:10120800014B1954704700BF14ED00E070B58C18FD
:101218001E460422089B0799054601F09EFCA4F18E
:1012280020030B49002223F0070321F00101C5E93F
:101238001322996104991E6059600599996006996D
:10124800D9604FF08071D961AB64EA6570BD00BFA9
:1012580087210008014910220A60704710ED00E05C
:10126800404080F3118830BF704700BF404080F392
:101278001188DFF81CC0DCF800C01CF4006C0CBF3F
:10128800EFF30880EFF3098001B5FFF729FF01BDEF
:1012980004ED00E038B504460D4605281AD8DFE805
:1012A80000F00319191315170D4801F0F2F800F0B2
:1012B8004FFDAA6901460B4801F0EBF82946204684
:1012C800BDE8384000F018B80748EEE70748ECE7F3
:1012D8000748EAE70146074801F0DBF8E7E700BFFF
:1012E800B335000851360008D3350008F935000831
:1012F800133600082E360008052810B50CD000F06B
:101308002DFD60B100F02AFD0C490D4B002808BFE7
:1013180019460C4801F0BDF8FFF7A2FFFCE700F002
:101328002DFD0028EED1084C0848A16801F0B1F85D
:10133800A068BDE8104000F00BB800BF8D3600086B
:1013480091360008A236000834020220C23600088E
:1013580038B505464FF01003EFF3118483F3118875
:10136800BFF36F8F01F0DAFB0A4B9B68AB420BD1DE
:10137800094B5A68C2F3080212B92046FFF782FDEA
:101388005A6842F080525A602046BDE8384001F061
:1013980058BB00BF3402022000ED00E001B5EFF3B6
:1013A8000580A0F110004FEAC0000449014409C9B2
:1013B8009847BDE801400248004700002C2C00086F
:1013C800590E0008102080F3118808484FF4006176
:1013D800401880F30988EFF314800221084380F352
:1013E8001488BFF36F8F00F007F80000B0070220E1
:1013F80030BFFFF7FDBF00BF08B5084B084A23F010
:101408007F039360BFF34F8FBFF36F8F00F0DAF95C
:1014180000F0E2F9FFF72AFD00F010FA00000008DA
:1014280000ED00E0014B1860704700BFCC0F0220B0
:1014380008B504210248FFF7E9FA002008BD00BFFB
:10144800C03000080368074810B59C6800F094F99C
:10145800436804F108011B689847002818BF6FF01B
:10146800040010BD7C32000873B505461C480C46C4
:1014780000F082F91B4902466B4603C983E8030062
:10148800516810460E681946B0470F2C25DC634298
:1014980004F0030103F0030358BF5942002C01F183
:1014A8000401B8BF03348B000F21994041EAA4011D
:1014B800CBB2090C9B0003F1804303F59C339A6877
:1014C80022EA010291FAA1F1B1FA81F1002005FAAC
:1014D80001F11143996002B070BD6FF01500FAE791
:1014E8007C3200088C3000082DE9F3411D46036862
:1014F800804616469F6805F080030B4305D06FF0C1
:101508002204204602B0BDE8F08101A9284601F076
:1015180038F904460028F4D10346019A3146386860
:1015280001F04CF9044610BBA907EAD54346134A13
:1015380079683046FFF760F9E0B931467868FFF717
:1015480093FFAA06DBD56B060FD415F0040F14BF62
:10155800012102213046FFF737F93046FFF71AF923
:10156800002818BF6FF04604CBE70321F2E76FF0BD
:101578000404C6E76FF00F04C3E700BF8F26000816
:101588002DE9F84303680D460A799B68012A8668A5
:101598001C6800F08980022A0CBF4FF4806100218A
:1015A80095F8059095F80680B9F1020F96BF434B60
:1015B8004FF4005E33F819E0B8F1020F77D0B8F1B4
:1015C800040F0CBF4FF480530023EF79033A012F27
:1015D80014BF4FF0000C4FF4407C012A6AD919F06F
:1015E800FD0F67D0B8F1010F64D907B3344A9442AC
:1015F8001BD0A2F54C42944217D002F58062944267
:1016080013D002F5806294420FD002F580629442B2
:101618000BD002F54442944207D0A2F51C429442F2
:1016280003D002F58062944244D1012F42D122684E
:1016380022F001022260226802F4C062914204D0C2
:10164800276827F4C0670F432760626802F4405296
:10165800964505D0616821F4405141EA0E01616068
:10166800226802F01022934204D0226822F010224D
:101678001A432260A36803F440739C4505D0A3680D
:1016880023F4407343EA0C03A36029683368994242
:1016980003D001F018F92B6833602368002043F069
:1016A80001032360BDE8F8834FF4C06178E74FF089
:1016B80080538AE76FF02200F4E700BF0432000885
:1016C8000010014003682DE9F041D3F80880054671
:1016D800876846461C4856F8084B00F04DF84368A2
:1016E800314678601B689847064648BB236823F054
:1016F80001032360236843F00C032360236823F06D
:10170800805323F4B0532360636823F44053636029
:1017180098F8103033B12B689B681A68936843F4C3
:10172800407393603968284601F0CDF8236843F088
:1017380001032360E3699B02FCD53046BDE8F081D4
:101748006FF00406F9E700BF7C320008094B70B55A
:1017580053F820400130002653F82050A54200D805
:1017680070BD236820465B68984700B166600C34FA
:10177800F4E700BFE8310008104B70B50546104C7F
:101788001E469C4204D10E4CB44209D1002412E0FA
:1017980062681AB122681268AA420CD00C34F0E7C9
:1017A80063680BB90C34EFE723682846196800F022
:1017B8000FFF0028F6D1204670BD00BFD8100220C8
:1017C800E80F022002480021024A121A00F036BF30
:1017D80000000220700202200648074A0749121A30
:1017E80008B500F001FF064A06490748BDE8084069
:1017F80000F0FABEB00F0220EC1002207C3700087F
:10180800000000007C3700080000022008B5022014
:10181800FFF79CFF074800F03CFE0320FFF796FF08
:1018280000F0F0FAFEF764FE034A137B23F001038D
:10183800137308BD2A370008D001022080B53A4B3F
:10184800A0B083F30888394D0024F023384E0127CF
:1018580085F82230EC772C766C76AC766B6A43F49C
:10186800E0236B62FFF7A4FCFFF7F4FC4FF0FF33B3
:1018780021466422AB62EB6207AB2E4D184600F09E
:10188800DDFEB06020468DF82970FFF75FFF38460F
:10189800FFF75CFF00F006FA274B35624FF48062D1
:1018A80026492846CDE90473CDE90244CDE9004430
:1018B800234B344600F08EFA6B7B23F0040213F0BE
:1018C8001B0F6A7304D1AB6913B9284600F0ECF812
:1018D8001C4B01221C4E05930F231C493046CDE9B1
:1018E800033200234FF4A072CDE901330093184B63
:1018F80000F070FA737BE66023F00403A560154AD4
:101908007373154BC4E906330D4B184682F30988E7
:1019180063B64FF0000181F31188BFF36F8F002188
:101928000022002300F02BFCB00F022000ED00E0A5
:1019380034020220D0010220713700087002022010
:1019480015180008763700086C010220700602207E
:10195800FB2B0008700602204C02022008B5FFF796
:1019680027F9054B054A00211B68184410611846E1
:10197800BDE8084001F01FB96802022034020220C5
:10198800EFF305800D2809D828B1054B586880F475
:101998000060C0F3C02080F0010070470120FAE722
:1019A80000ED00E010B54FF01003EFF3118483F35E
:1019B8001188BFF36F8F0022064B1A61064B18601F
:1019C800064B1960FFF7CAFF84F31188BFF36F8FC6
:1019D80010BD00BF34020220680202206402022007
:1019E8004FF01003EFF3118183F31188BFF36F8F6A
:1019F800044B9A68D37B013BD37381F31188BFF3FF
:101A08006F8F704734020220094B03F1240282428F
:101A180005D19B688B4202D14B7BDB0606D1D1E90D
:101A2800003213605A600023C1E90033704700BFD9
:101A38003402022038B50D4C024604F1240001F0AE
:101A48001AF8054600B9E568A3684AB95A7BD20670
:101A580006D1AA6922B9DA897F2A01D9236238BD59
:101A68009D4201D0FFF77AFF2562F8E73402022091
:101A780010B54FF01003EFF3118483F31188BFF30F
:101A88006F8F084B01209A68D37B0133D373FFF71C
:101A9800D1FF84F31188BFF36F8FBDE8104000F0C9
:101AA800E0BF00BF34020220F8B54FF01003EFF397
:101AB800118483F31188BFF36F8F154A114651F8CB
:101AC800243F8B421DD0E3B1966A90F90E5093F9EA
:101AD8000E70AF4210DD5A68C0E9003210605860DD
:101AE800437B43F0400343730020FFF7A3FF84F3D5
:101AF8001188BFF36F8FF8BDB34202D01B68002B6B
:101B0800E5D1936A01604360936A18609062E7E7E1
:101B180034020220F8B504464FF01003EFF31187A2
:101B280083F31188BFF36F8F194D014605F1240621
:101B38003046FFF769FF6B6A2A46B34220D0FBB1F3
:101B4800A86A94F90E1093F90E508D4213DD596866
:101B5800C4E900310C605C60637B906843F040032B
:101B68006373031B58425841FFF764FF87F31188DA
:101B7800BFF36F8FF8BD834202D01B68002BE2D100
:101B8800936A26606360936A1C609462E4E700BF0E
:101B9800340202201449154A8B6810B51468A34210
:101BA80003D1BDE81040FFF7D9BE00241460104AE5
:101BB8001268BAB1DA897F2A14D80E4A93F90E400E
:101BC800126894420EDB0C4A126893420AD09A6952
:101BD80042B90A69824203DC1846FFF79BFFE0E737
:101BE800121A0A6110BD00BF3402022060020220EE
:101BF80068020220640202200032000838B5044658
:101C08004FF01003EFF3118583F31188BFF36F8F43
:101C1800437B5A0607D501460948FFF7F5FE637B63
:101C280023F040036373074B9868031B58425841DD
:101C3800FFF700FF85F31188BFF36F8F38BD00BF32
:101C48005802022034020220F8B5461C00F0CDFFED
:101C580034184FF01003EFF3118783F31188BFF3A3
:101C68006F8F0D4D0D4BA8681860FFF7C7FFA86868
:101C780032460B49183000F049F9AA683846537BB8
:101C880043F010035373FFF7FDF800F0AEFF201A7E
:101C980020EAE070F8BD00BF340202206002022092
:101CA8008B2A0008044B002103F124020846C3E9EB
:101CB8000922FFF777BE00BF34020220F8B5224C94
:101CC800224BA2681B689A4225D04FF01003EFF30D
:101CD800118683F31188BFF36F8F04F12405A1687F
:101CE8002846FFF791FE636AA268AB4224D01BB373
:101CF800A16A92F90E0093F90E70874217DD5968B0
:101D0800C2E900310A605A600120FFF793FE86F3AA
:101D18001188BFF36F8F4FF01003EFF3118083F337
:101D28001188BFF36F8FBDE8F840FFF7ABB8994251
:101D380002D01B68002BDED1A36A15605360A36A2A
:101D48001A60A262E0E700BF3402022000320008F5
:101D5800014B9868704700BF34020220EFF30580FA
:101D68000D2807D838B1044B586880F40060C0F3D8
:101D7800C02070470120704700ED00E0024B9B68CF
:101D8800187B00F0010070473402022010B50246AB
:101D98004FF01003EFF3118483F31188BFF36F8FB3
:101DA800437B590704D484F31188BFF36F8F10BDA8
:101DB80023F00403437300F0A8FE10B11046FFF7A8
:101DC80073FE21460248BDE8104000F02BBE00BF5C
:101DD8007002022030B587B004460E9D04950D9D13
:101DE80003950C9D02950B9D01950A9D0095FFF7A3
:101DF8000DFA034B9B6803B19B6DA36507B030BD1B
:101E080034020220F0B51F4E87B01F4D3746B54249
:101E180005F130040AD31C4CFFF7E2FD1B4DBC4210
:101E280021D307B0BDE8F040FFF722BE54F8043CC8
:101E3800059354F8103C049354F8143C039354F855
:101E4800183C029354F81C3C019354F8203C00932E
:101E580054E90A2354E90C01FFF7BCFF54F8303C5D
:101E6800DD642546D3E7626A531C03D020681AB99B
:101E7800FFF78CFF3034D2E701322946183000F0E2
:101E880045F8F7E7D8100220D81002208B2A00085E
:101E9800034B1B680BB9FEF78BBE0020704700BFD1
:101EA8006C020220036840B1074A5268904204D08D
:101EB8001BB19A6881680A449A60426813605A6044
:101EC8000023C0E900337047E00F022038B50D4BFE
:101ED8001C689C4211D084B1A568FFF7D9FF281A65
:101EE80000280DDBA468FFF7D3FF201A064B1B69F7
:101EF80013B19842A8BF184638BD6FF00040F5E707
:101F08000020F3E7E00F02203402022070B50446F7
:101F18001646C1604FF01003EFF3118583F3118863
:101F2800BFF36F8FFFF7B4FF184B012EACBF8019BA
:101F380001301A68A0609A4201D05E6832B95A68C6
:101F4800236062605A6814605C600AE09068A16867
:101F5800884215DD411A91605168C4E900210C607E
:101F680054601A689A4206D0944204D1FFF7AEFF33
:101F78000021FEF7CDFD85F31188BFF36F8F70BD8B
:101F8800091AB242A160DAD01268D7E7E00F02203E
:101F98002DE9F04B0446FFF7FDFD4FF01003EFF37A
:101FA800118583F31188BFF36F8F214F214EDFF81E
:101FB8008890B8463460D9F8004032684C45D7E973
:101FC80000BC05D024B1A368934215DD9B1AA36019
:101FD8001BEB02004FF000044CEBE2713460C8E9DF
:101FE8000001FFF773FF2146FEF792FD85F3118884
:101FF800BFF36F8FBDE8F08B1BEB03004CEBE37175
:10200800D31A33600023C7E90001A3602046FFF715
:1020180049FF85F31188BFF36F8FE36898474FF046
:102028001003EFF3118583F31188BFF36F8FC2E7B5
:10203800000002206C020220E00F02202DE918485F
:102048004FF01003EFF3118483F31188BFF36F8F00
:10205800FEF7AEFD074BD3E9002312EB000B43F16B
:10206800000C5846614684F31188BFF36F8FBDE8B2
:10207800188800BF0000022038B5074C074DAC4255
:1020880001D3002038BD04F114032046C4E9053308
:1020980000F02BF81C34F2E7D8100220D8100220E8
:1020A80070B5C6680C2590F90B004D438842104660
:1020B80006EB0504B8BF7459002AB8BF02F11F0027
:1020C800401104EB800102F01F00196070BD07B5D4
:1020D80001ABFFF7E5FF019A012303FA00F013684B
:1020E8000343136003B05DF804FB2DE9F84343682C
:1020F800FF220689044605684FF00C0E5E4390F8EF
:102108000AC0C27200203544844505DC00252389B5
:10211800AB4221DCBDE8F883D4F80C800EFB00F755
:10212800B6FBF3F108EB0702202902F10409C2E922
:10213800019906DCE0729B080130033323F00303A6
:10214800E2E711F11F0248F8075048BF01F13E02CB
:10215800521105EB8205EEE7E368626820681E1DF0
:102168006A43811886509A6820464A609A681160C6
:102178002A4699600021FFF7AAFF0135C7E708B58D
:102188000446084611461A46A047FFF7E1FDFFF747
:10219800DFF80020704770B50D4604464520A0477B
:1021A80029465220A047294623465220BDE87040C0
:1021B80018472DE9F04F4FF000088BB01C46064633
:1021C800531E0F464FF0FF3AC1460293002505E023
:1021D8006DB9252800F04F813946B047029B13F8A6
:1021E800010F02930028F3D10BB0BDE8F08F6428EB
:1021F8006ED01AD839280AD8312860D22D2800F094
:10220800408130284CD0252807D139460BE0582882
:1022180000F0BB80632800F02A8139462520B047AA
:10222800029B39461878B047D0E7702800F0A380A1
:1022380011D869284CD06C2805D1B8F16C0F2AD177
:102248004FF04C08CAE76828E7D1B8F1680F22D1E7
:102258004FF04808C2E7752871D018D87328DCD128
:1022680054F8045BAB465B461BF8010B002840F0B2
:10227800FB80B9F1030F40F00A815D1BAAEB05054D
:10228800002DA3DD39462020B047013DF8E7782826
:102298007BD07A28C1D1B8F1000FBED180469DE726
:1022A800BAF1000F0EDAB9F1000F00F0ED80A0F1DD
:1022B800300AB9F1000F08BF4FF002098EE7BAF1F2
:1022C800000FF4DB0A2303FB0A0AAAF1300AF0E73D
:1022D800B8F17A0F02D154F8045B1FE0B8F16C0F23
:1022E800F9D0B8F14C0FF6D107344FF0FF3024F095
:1022F8000704F4E8022312F10041069143F10001BA
:1023080007910021DDE906BC614508BF584504D2A4
:1023180039463046FFF73FFF58E71546002D05DAE6
:102328006D420AF1FF3A39462D20B0474B462A46FE
:10233800CDF800A039463046FEF720F946E7B8F157
:102348007A0F02D154F8042B11E0B8F16C0FF9D0D0
:10235800B8F14C0FF6D1073400214FF0FF3024F0CC
:102368000704F4E80223994208BF9042D0D3CDF87D
:1023780000A04B46DEE7394630204FF0080A4FF000
:102388000109B04739467820B047029B1B78702B6B
:1023980004D154F8043B049300230DE0B8F16C0F0A
:1023A800F7D0B8F14C0FF4D1073424F007031C46DA
:1023B8005B6854F8082B0492002110224FF0400B60
:1023C80003910591ABF1040B0498CBF1200CABF110
:1023D800200120FA0BF003FA0CFC23FA01F140EA81
:1023E8000C00084310F00F0008D1059911B9BBF192
:1023F800000F24D1302105E00595E3E709288CBFBB
:102408005721302108443946089340B20592B04715
:10241800039B059A01330393089BBBF1000FEBD193
:10242800B9F1030F7FF4D2AE039BC3EB4A05002D2D
:102438007FF7CCAE39462020B047013DF7E7511E63
:102448009245089107DBB9F1010F06D139463020D2
:102458000993B047099B089AB4E7B9F1020FFAD17A
:10246800099339462020F4E73946B047FBE6394658
:1024780054F8040BD7E6A846A9464FF0FF3A0125C1
:10248800ACE64FF00309A9E64FF00109A6E60546B8
:10249800A4E60FB407B504A951F8040B0191FEF79F
:1024A800C1F803B05DF804EB04B07047704702460A
:1024B80001210020FEF74EB9024602210120FEF755
:1024C80049B9024603210220FEF744B90246042115
:1024D8000320FEF73FB9024605210420FEF73AB96A
:1024E80002460A210520FEF735B9024610210A20C6
:1024F800FEF730B9024611211020FEF72BB902462B
:1025080013211220FEF726B9024616211520FEF7E0
:1025180021B9024617211620FEF71CB902461821D8
:102528001720FEF717B90022062008B51146FEF756
:1025380057FE002207201146FEF752FE002208200F
:102548001146FEF74DFE002209201146FEF748FE0F
:1025580000220A201146FEF743FE002217201146EA
:10256800FEF73EFE002228201146FEF739FE002223
:1025780001201146FEF734FE00222A201146FEF7FC
:102588002FFE002202201146FEF72AFE0022032019
:102598001146FEF725FE00225D201146FEF720FEBB
:1025A800002008BD4FF4D8731922C0E90023002386
:1025B800836070477047FEF759BE01460068FEF712
:1025C80069BE08B5FEF714FFBDE80840FEF740BC39
:1025D8000138013910F8013F11F8012F934201D158
:1025E800002BF7D1981A7047F0B581EA000403462A
:1025F800A5070BD0013B0A4491421AD1F0BD002A2D
:10260800FCD011F8014B013A03F8014B9C07F6D1B5
:1026180095081E1FAC000F19B94205D16FF00306CB
:10262800234406FB0522E5E751F804CB46F804CF1E
:10263800F2E711F8014B03F8014FDDE7C9B2034691
:1026480070B59C0710D141EA012444EA0445940876
:1026580003EB8406B3420DD16FF0030505FB042498
:102668001C44A34209D170BD002AFCD003F8011B09
:10267800013AE6E743F8045BECE703F8011BF0E7EF
:102688004FF0FF3070478A681368C340DB0770B5A6
:102698000E460FD5516869B101250C6885408B68D5
:1026A8001D4203D04B682A463046984714B121464C
:1026B8002468F4E770BD0068806810B5006841B907
:1026C800012404FA02F213B18261084610BD120413
:1026D800FAE76FF02201F8E70068806810B5006833
:1026E80031B90469D44004F001041C60084610BDE7
:1026F8006FF02201FAE78368586830B558B10024B2
:10270800814213D108685CB99C685860A14200D125
:1027180098600020086072B9002030BD2846EFE7B5
:1027280020609868814208BF9C60F2E7056804460B
:10273800002DF3D13AB15A680A60986859600028A8
:10274800EAD19960E9E76FF01500E6E7806839B9E2
:10275800012303FA02F20368134303600846704733
:102768006FF02201FAE7806841B9012303FA02F207
:10277800036823EA02030360084670476FF02201EA
:10278800FAE700F00103B1B123B110230B60002375
:102798001846704700F44070B0F5807F03D14FF4BD
:1027A80000720A60F4E7B0F5007F01D00B60EFE734
:1027B8004FF48062F5E76FF01503E9E7F0B502F032
:1027C80030050124D0F800C08C402E0994FAA4F7F3
:1027D800B7FA87F74FF0030E7F000EFA07F72CEAD7
:1027E800070C94FAA4F7B7FA87F7202D4FEA4707A2
:1027F80006FA07F646EA0C06066016D1072949DCF0
:10280800076A94FAA4F60EB1B6FA86F50F26AD005B
:1028180006FA05F527EA050694FAA4F5B5FA85F54A
:10282800AD0003FA05F5354305624568C2F3801328
:1028380025EA040503FA01F1C2F3C11329434160F3
:10284800856894FAA4F1B1FA81F10326490006FAE1
:1028580001F125EA010594FAA4F1B1FA81F1C2F374
:10286800412249008B402B438360C16894FAA4F34A
:10287800B3FA83F35B0006FA03F321EA030394FA3D
:10288800A4F4B4FA84F4640002FA04F41C43C460A7
:102898000020F0BD476A260A96FAA6FCBCF1000F94
:1028A80001D0BCFA8CF54FF00F0CAD000CFA05F511
:1028B80027EA050596FAA6F6B6FA86F6B600B340F4
:1028C8002B434362B1E7036837B50C4699688368C0
:1028D80001AA51F8085B58684368DB689847019972
:1028E80001EB5401B1FBF4F189B2E96003B030BDEA
:1028F80003689B681B68DA691206FCD540221A62D5
:102908009962704703689B681B68D869DA69C0F3E5
:10291800C000D207DA6948BF40F00200910748BFFB
:1029280040F00400C20701D508221A62810701D5C8
:1029380001221A62420701D502221A6204221A628F
:10294800704703689B681B68DA69100701D508227D
:102958001A62DA69920603D55B6A00200B70704729
:102968004FF0FF30704783681B680B6003689B68F3
:102978001A68136803F4C063B3F5806F28D0A3F511
:10298800C060434243410B71536803F44053B3F5AD
:10299800805F1FD0B3F5405F1ED0002B0CBF012312
:1029A80003234B71136803F01023B3F5805F15D030
:1029B800B3F1805F0CBF022303238B71002093685F
:1029C80003F44073A3F5407253425341CB717047EF
:1029D8000223D8E70023E4E70223E2E70423ECE735
:1029E800437BDB0603BF8069B0FA80F04009002012
:1029F800704738B504464FF01003EFF3118583F3A1
:102A08001188BFF36F8F01468068FEF7FDFF637B77
:102A180023F00203637385F31188BFF36F8F0023DC
:102A2800A36038BD08B539B9FEF7AAFF20B108463A
:102A3800BDE80840FEF726BA81F31188BFF36F8F0F
:102A480008BD08B5024638B9FEF79AFF20B110460E
:102A5800BDE80840FEF716BA82F31188BFF36F8FFE
:102A680008BD4FF01003EFF3118083F31188BFF313
:102A78006F8FFFF7E6BF0368984214BF184600201F
:102A8800704750F8103C70B50446A0F11805CBB15A
:102A98004FF01003EFF3118683F31188BFF36F8FA4
:102AA800294650F8100CFEF7AFFF14F80B3C23F042
:102AB800020304F80B3C86F31188BFF36F8F0023E1
:102AC80044F8103C14F80B3C284623F0140304F88F
:102AD8000B3CFFF785FF20B12846BDE87040FEF7A4
:102AE800E3BF70BD10B5044658B9FFF7E7F84FF4D7
:102AF8007A704FF47A72002384FB0001FDF778FBAB
:102B080010BDFFF7A1F80446F1E7437BDB0603BFDE
:102B18008069B0FA80F0400900207047036D10B555
:102B2800044603B198472046FFF7EFFF38B1204627
:102B3800FFF764F8637B43F00803637310BD637B9E
:102B48009B0702D52046FFF754FFA369002BF1D05D
:102B580004F1180000F009F8ECE70373002342734E
:102B68008173C373C0E90633704710B54FF0100284
:102B7800EFF3118482F31188BFF36F8F03683BB1C1
:102B8800FFF790F9002084F31188BFF36F8F10BD11
:102B98006FF01500F7E710B54FF01003EFF311844D
:102BA80083F31188BFF36F8FFFF790F984F31188CF
:102BB800BFF36F8F10BD70B504460E464FF010037B
:102BC800EFF3118583F31188BFF36F8FFFF77EF959
:102BD800A04205DD012803DD31462046FDF798FFB8
:102BE80085F31188BFF36F8F70BD08B5FFF726FA1C
:102BF80008BD08B54FF01002EFF3118382F3118876
:102C0800BFF36F8FFFF7C7FF01210228D8BF08461F
:0C2C1800FFF7D1FFFEF724FBECE770474C
:082C240008D6FF7F010000004B
:102C2C0000000000BF25000818100220FD24000839
:102C3C001810022011250008181002201B2500086E
:102C4C0000000000BF25000800000000BF250008A0
:102C5C0018100220B724000818100220C124000804
:102C6C0018100220CB24000818100220D5240008CC
:102C7C0018100220DF24000800000000BF25000807
:102C8C0000000000BF25000800000000BF25000860
:102C9C0000000000BF25000800000000BF25000850
:102CAC0000000000BF25000800000000BF25000840
:102CBC0000000000BF25000800000000BF25000830
:102CCC0000000000BF25000800000000BF25000820
:102CDC0000000000BF25000818100220E92400089D
:102CEC0000000000BF25000800000000BF25000800
:102CFC0000000000BF25000800000000BF250008F0
:102D0C0000000000BF25000800000000BF250008DF
:102D1C0000000000BF25000800000000BF250008CF
:102D2C0000000000BF25000800000000BF250008BF
:102D3C0000000000BF25000800000000BF250008AF
:102D4C0000000000BF25000800000000BF2500089F
:102D5C0000000000BF25000800000000BF2500088F
:102D6C0018100220F324000800000000BF25000802
:102D7C00181002200725000800000000BF250008DD
:102D8C0000000000BF25000800000000BF2500085F
:102D9C0000000000BF25000800000000BF2500084F
:102DAC0000000000BF25000800000000BF2500083F
:102DBC0000000000BF25000800000000BF2500082F
:102DCC0000000000BF25000800000000BF2500081F
:102DDC0000000000BF25000800000000BF2500080F
:102DEC0000000000BF25000800000000BF250008FF
:102DFC0000000000BF25000800000000BF250008EF
:102E0C0000000000BF25000800000000BF250008DE
:102E1C0000000000BF25000800000000BF250008CE
:102E2C0000000000BF25000800000000BF250008BE
:102E3C0000000000BF25000800000000BF250008AE
:102E4C0000000000BF25000800000000BF2500089E
:102E5C0000000000BF25000800000000BF2500088E
:102E6C0000000000BF25000800000000BF2500087E
:102E7C0000000000BF25000800000000BF2500086E
:102E8C0000000000BF25000800000000BF2500085E
:102E9C0000000000BF25000800000000BF2500084E
:102EAC0000000000BF25000800000000BF2500083E
:102EBC0000000000BF25000800000000BF2500082E
:102ECC0000000000BF25000800000000BF2500081E
:102EDC0000000000BF25000800000000BF2500080E
:102EEC0000000000BF25000800000000BF250008FE
:102EFC0000000000BF25000800000000BF250008EE
:102F0C0000000000BF25000818100220252500082D
:102F1C0000000000BF25000800000000BF250008CD
:102F2C0000000000BF25000800000000BF250008BD
:102F3C0000000000BF25000800000000BF250008AD
:102F4C0000000000BF25000800000000BF2500089D
:102F5C0000000000BF25000800000000BF2500088D
:102F6C0000000000BF25000800000000BF2500087D
:102F7C0000000000BF25000800000000BF2500086D
:102F8C0000000000BF25000800000000BF2500085D
:102F9C00773300084906000800000000773300086A
:102FAC004107000800000000713200082F250008BE
:102FBC00000000007C32000811090008000000002D
:102FCC0085320008E10A0008000000007733000891
:102FDC003914000800000000E73600084D14000802
:102FEC0080310008ED3600084D14000870310008DF
:102FFC00F33600084D14000860310008F93600085B
:10300C004D14000850310008FF3600084D1400081C
:10301C0040310008053700084D1400083031000815
:10302C000B3700084D140008203100081137000838
:10303C004D14000810310008173700084D14000813
:10304C00003100081D3700084D140008F03000084E
:10305C004C3200084D140008E030000823370008FB
:10306C00CD160008C031000852320008CD160008F9
:10307C00AC31000877330008812000080000000004
:10308C0003000000004000000100000002000000EE
:10309C0004000000080000001000000020000000E8
:1030AC004000000080000000000100000002000051
:1030BC000004000009000000270200000A000000C4
:1030CC002700000026000000280200002700000056
:1030DC00280000000000024000000000000000007A
:1030EC00010000000004024001000000000000008C
:1030FC000200000000080240020000000000000076
:10310C0004000000000C024003000000000000005E
:10311C000800000000100240040000000000000045
:10312C001000000000140240050000000000000028
:10313C002000000000180240060000000000000003
:10314C0040000000001C02400700000000000000CE
:10315C008000000000200240080000000000000079
:10316C0000010000002402400900000000000000E3
:10317C0000020000002802400A00000000000000CD
:10318C0000040000F1140008BF260008E126000826
:10319C00FF260008552700086F27000800000000D4
:1031AC0000100140000000000300000010000000AF
:1031BC0000000000001401400000000003000000AB
:1031CC0020000000000000004B290008F92800082E
:1031DC000D290008891500086F290008E80F022046
:1031EC004810022054100220D8100220D8100220BF
:1031FC00F5FFFFFF6C01022000100000003042754B
:10320C0074746F6E207072657373656420617420C2
:10321C0025640A0050726573732074686520757399
:10322C00657220646566696E656420627574746F7E
:10323C006E206F6E2074686520626F6172640A0084
:10324C004750494F4100554152545F310006070821
:10325C00090A171717171728282828282801FF2AC2
:10326C00FFFF02035D73746D33322D657874690052
:10327C0073746D33322D6363007379735F636C6F9A
:10328C00636B000000000000000000010203040654
:10329C000708092A2A2A2A2A204255532046415532
:1032AC004C54202A2A2A2A2A0A00202053746163AB
:1032BC006B696E67206572726F720A002020507203
:1032CC006563697365206461746120627573206540
:1032DC0072726F720A00202042464152204164648F
:1032EC00726573733A20307825780A002020496D76
:1032FC0070726563697365206461746120627573B3
:10330C00206572726F720A002020496E7374727598
:10331C006374696F6E20627573206572726F720AC6
:10332C00002A2A2A2A2A204D5055204641554C5411
:10333C00202A2A2A2A2A0A002020537461636B69E6
:10334C006E67206572726F722028636F6E74657879
:10335C00742061726561206D6967687420626520F4
:10336C006E6F742076616C6964290A002020556E9A
:10337C00737461636B696E67206572726F720A0099
:10338C002020446174612041636365737320566926
:10339C006F6C6174696F6E0A0020204D4D4641526E
:1033AC0020416464726573733A20307825780A0082
:1033BC002020496E737472756374696F6E2041635B
:1033CC00636573732056696F6C6174696F6E0A0064
:1033DC002020466C6F6174696E672D706F696E7416
:1033EC00206C617A792073746174652070726573D6
:1033FC006572766174696F6E206572726F720A0005
:10340C002A2A2A2A2A205553414745204641554C01
:10341C0054202A2A2A2A2A0A002020446976697311
:10342C00696F6E206279207A65726F0A00202055D0
:10343C006E616C69676E6564206D656D6F72792065
:10344C006163636573730A0020204E6F20636F7095
:10345C00726F636573736F7220696E7374727563C8
:10346C0074696F6E730A002020496C6C6567616C1F
:10347C00206C6F6164206F66204558435F52455441
:10348C0055524E20696E746F2050430A002020491B
:10349C006C6C6567616C20757365206F6620746851
:1034AC006520455053520A002020417474656D709C
:1034BC007420746F206578656375746520756E640F
:1034CC006566696E656420696E7374727563746980
:1034DC006F6E0A0052657365727665642045786379
:1034EC00657074696F6E20280053707572696F7502
:1034FC007320696E7465727275707420284952510C
:10350C0020002A2A2A2A2A20484152442046415582
:10351C004C54202A2A2A2A2A0A0020204275732079
:10352C006661756C74206F6E20766563746F7220A3
:10353C007461626C6520726561640A0020204661CA
:10354C00756C7420657363616C6174696F6E20288F
:10355C007365652062656C6F77290A002A2A2A2A0E
:10356C002A204465627567206D6F6E69746F7220D6
:10357C00657863657074696F6E20286E6F7420694E
:10358C006D706C656D656E74656429202A2A2A2A13
:10359C002A0A002A2A2A2A2A20257320256429206F
:1035AC002A2A2A2A2A0A002A2A2A2A2A2048617226
:1035BC00647761726520657863657074696F6E20DD
:1035CC002A2A2A2A2A0A002A2A2A2A204B65726EBB
:1035DC00656C20416C6C6F636174696F6E20466121
:1035EC00696C75726521202A2A2A2A0A002A2A2A3D
:1035FC002A2A204B65726E656C204F4F5053212048
:10360C002A2A2A2A2A0A002A2A2A2A2A204B6572BE
:10361C006E656C2050616E696321202A2A2A2A2A41
:10362C000A002A2A2A2A20556E6B6E6F776E204666
:10363C006174616C204572726F7220256421202A9E
:10364C002A2A2A0A0043757272656E742074687295
:10365C00656164204944203D2025700A4661756CE3
:10366C0074696E6720696E737472756374696F6EBA
:10367C002061646472657373203D20307825780A6C
:10368C000049535200657373656E7469616C2074E4
:10369C00687265616400466174616C206661756C6A
:1036AC007420696E20257321205370696E6E696ECB
:1036BC00672E2E2E0A00466174616C206661756C53
:1036CC007420696E207468726561642025702120F5
:1036DC0041626F7274696E672E0A004750494F4BF6
:1036EC00004750494F4A004750494F4900475049FD
:1036FC004F48004750494F47004750494F460047F5
:10370C0050494F45004750494F44004750494F439B
:10371C00004750494F4200554152545F36002A2A07
:10372C002A2A2A20426F6F74696E67205A65706866
:10373C007972204F53206275696C64207A657068C9
:10374C0079722D76312E31342E302D313938332D8E
:10375C0067313163636363613463326132202A2AD7
:10376C002A2A2A0A006D61696E0069646C65000082
:10377C009B2100082508000895080008000000009F
:10378C00E9080008000000000024F4008926000865
:10379C0000C201000000000000C201000000000097
:0837AC00E00F0220E00F0220F3
:1037B4009C2F00080000000000000000C02F00083B
:1037C400B40F022000000000D82F00080000000001
:1037D400000000008030000800000000000000002D
:1037E400B42F000800000000180002206830000810
:1037F400D4310008D80F022074300008D4310008F6
:10380400D00F0220A82F00080000000000000000D4
:10381400CC2F00080000000000000000E42F000886
:103824009031000860010220F02F00089031000858
:1038340054010220FC2F00089031000848010220A6
:1038440008300008903100083C01022014300008C0
:103854009031000830010220203000089031000827
:10386400240102202C3000089031000818010220A5
:1038740038300008903100080C0102204430000860
:1038840090310008000102205030000890310008F7
:10389400F40002205C30000890310008E8000220A7
:1038A400D8100220D8100220000000000000000000
:0438B4000F00000001
:04000005080013CD0F
:00000001FF
